:020000040800F2
:10000000A80B0020490100088B2F0008D9290008FF
:10001000892F000839100008C93D000800000000C1
:10002000000000000000000000000000453600084D
:100030006110000800000000E932000805370008E0
:100040006301000863010008630100086301000800
:1000500063010008630100086301000863010008F0
:1000600063010008630100086301000863010008E0
:1000700063010008630100086301000863010008D0
:1000800055100008630100086301000863010008BF
:1000900063010008630100086301000863010008B0
:1000A00063010008630100086301000863010008A0
:1000B0006937000863010008630100086301000854
:1000C0006301000863010008630100086301000880
:1000D00063010008630100087D3D0008893D0008B8
:1000E0006301000863010008630100086301000860
:1000F0006301000863010008630100086301000850
:10010000630100086301000863010008630100083F
:10011000630100086301000863010008630100082F
:10012000630100086301000863010008630100081F
:10013000DFF810D000F0A8FC00480047314A000862
:10014000AFF30080A80B0020064880470648004710
:10015000FEE7FEE7FEE7FEE7FEE7FEE7FEE7FEE777
:10016000FEE7FEE76737000831010008202A04DBBC
:10017000203A21FA02F00021704721FA02F3D04020
:10018000C2F12002914008431946704740EA01033A
:100190009B0703D009E008C9121F08C0042AFAD23D
:1001A00003E011F8013B00F8013B521EF9D2704701
:1001B000D2B201E000F8012B491EFBD270470022A9
:1001C000F6E710B513460A4604461946FFF7F0FF56
:1001D000204610BDCAB2401E10F8011F8A4202D04C
:1001E0000029F9D10020704710B5002200E0521C10
:1001F000835C8C5CA34201D1002BF8D1D8B2E1B270
:10020000401A10BD70B5064603F01AFE0468054694
:100210000A220021304600F0E1F92C6070BDF0B4F4
:1002200080EA0102D40F4200B2EB410F02D2024633
:10023000084611464A0042D0C30DDDB2C1F3C75291
:10024000AD1A202D35DAC1F3160141F4000204B1D4
:100250005242C5F1200602FA06F12A411044B3EBDE
:10026000D05F23D0C4B1012DA0EBC35009DCF0BC9A
:100270004FF0004202EAC352DBB200F5000000F08A
:10028000EEB9400000F1807000EBC350A0F1807027
:1002900040EAD170490009E0490841EAC071A0EB89
:1002A000C35000F50000400800EBC350F0BC00F064
:1002B000CDB96142012202EB4101001BF6E7F0BC1F
:1002C000704781F00041AAE780F00040A7E780EA8C
:1002D000010210B502F00043400022D04A001FD0B6
:1002E000010E01EB1261C0F35600C2F3560240F456
:1002F000000042F40002A0FB022000047F39140435
:1003000000D0401C50EA124001D44000491EC2B245
:100310000C0604EBD010401C4008802A02D003E0F9
:10032000002010BD20F00100002900DA0020184351
:1003300010BD30B480EA010202F0004530F0004206
:1003400021F0004013D090B1C30DD40DC2F31601BB
:10035000C0F31600E41A41F4000140F400027D34B9
:10036000914201D3641C00E04900002C02DA30BC49
:10037000002070474FF400000023914201D3891AF6
:10038000034340084FEA4101F7D151B1914202D1F4
:100390004FF0004105E002D24FF0010101E06FF0A3
:1003A000010103EBC450284430BC00F04FB94200B7
:1003B00005D0C0F3C7525242914201DC0020704781
:1003C00000EBC1507047C10F80EAE0700844CA07D3
:1003D0009623002100F043B996230022114600F035
:1003E0003EB900F0004220F00040C10DC0F31600FD
:1003F00040F400007F2901DA00207047962903DCD1
:10040000C1F19601C84001E096398840002AF4D035
:100410004042704720F00040C10DC0F3160040F488
:1004200000007F2901DA00207047962903DCC1F122
:100430009601C840704796398840704700F00042E6
:1004400030F000400AD0C10D01F56071C0F3160014
:1004500042EA0151C208400711437047002001469B
:10046000704701F0004330B421F0004150EA01022E
:1004700006D00A0DA2F56072C1F31301002A02DC56
:1004800030BC00207047440F44EAC104C100E018AA
:1004900030BC00EBC25000F0D9B80000002801DBEE
:1004A000C0F10040002901DBC1F1004188427047E2
:1004B00030B50B46014600202022012409E021FA34
:1004C00002F59D4205D303FA02F5491B04FA02F531
:1004D0002844151EA2F10102F1DC30BD2DE9F05FC8
:1004E0000546002092469B468846064681464024A3
:1004F0001BE02846414647462246FFF737FE534653
:100500005A46C01A914110D311461846224600F0AF
:10051000CDFA2D1A67EB01084F4622460120002133
:1005200000F0C4FA17EB00094E41201EA4F10104AB
:10053000DFDC484631462A464346BDE8F09F0000CE
:100540000FB4002300B589B00CA900910B996FF08E
:100550000042CB601E4B06931E4B07930423CDE94C
:1005600001321D4A089202466B46002000F062FBF1
:1005700009B05DF814FB70B586B006464FF0FF3049
:100580000091CDE90101002015460C460490324649
:10059000694604A8FFF7D4FF02460498211825B144
:1005A00008B1084600E020462860049800280DD0D5
:1005B000002A02DD0098884208D0081B0094CDE98B
:1005C00001043246694604A8FFF7BAFF06B070BDC1
:1005D0006D0E00088B0E0008F90A00082DE9F0479F
:1005E00091460F4680460446002614F8015B2DB163
:1005F00000F07EFA0068405DC007F6D12B2D02D0D6
:100600002D2D18D0641E4A463946204600F04EFC77
:1006100027B13968A14201D1C7F8008071054FF0B8
:1006200002040BD54042002803DD03F009FC0460FE
:10063000A007BDE8F08746F48066E4E70028F8DA12
:1006400003F0FEFB04606FF00040F2E70029A8BF52
:100650007047401C490008BF20F00100704710B4EB
:10066000B0FA80FC00FA0CF050EA010404BF10BCA0
:10067000704749B1CCF1200421FA04F411FA0CF1CD
:1006800018BF012121430843A3EB0C01CB1D4FEA06
:1006900000614FEA102042BF002010BC704700EB01
:1006A000C35010440029A4BF10BC7047401C49002F
:1006B00008BF20F0010010BC7047F0B4002802DC35
:1006C000F0BC00207047C0F3C751C0F3160040F4DF
:1006D0000000CA0701D14000491E3F2202EB61051C
:1006E000002211464FF4000626FA01F31344D418F1
:1006F000844201D8001B1A464000491C1729F3DD2B
:100700005100814202D24FF0FF3100E0002102EBA4
:10071000C550F0BCFFF79ABF2DE9FE4F804681EA35
:100720000300C00F0C46009021F0004123F000456B
:10073000B8EB0200A94105D24046214690461C462E
:100740000B46024623F00040104347D0270DC7F365
:100750000A00C3F30A510290401A019040286BDA54
:10076000C3F3130040F4801B0098924620B100238D
:10077000D2EB030A63EB0B0B01985946C0F1400220
:10078000504600F093F906460D4650465946019AE8
:1007900000F09BF910EB08006141002487EA115238
:1007A00084EAE7731A4340D0009A62B3019A012A9F
:1007B0004FEA075215DC001B61EB02014FF00042CB
:1007C00002EA0752CDE90042001C41F58011324691
:1007D0002B4600F0C9FB03B0BDE8F08F4046214630
:1007E000F9E7001B61EB0201001C41F580130018C2
:1007F0005B412018A2F5001747EB030140EAD570D2
:10080000B6196D4111E06D084FEA360645EAC0752C
:100810004FEA0752001B61EB0201001C41F58011F9
:1008200049084FEA30000019514132462B4603B0C7
:10083000BDE8F04F00F089BB009801224000002382
:10084000D0EB020263EBE073009821464FEAE074BC
:10085000B8EB000061EB0401E9E783F000435BE7DC
:1008600081F0004158E72DE9FE4F81EA030404F0CE
:10087000004421F0004100944FF0000B23F00043AE
:1008800050EA01045ED052EA03045BD0C3F30A5479
:10089000C1F30A552C44A4F2F3340194A0FB025492
:1008A000C1F3130141F48011C3F3130343F4801324
:1008B00001FB024400FB034E840A970A44EA815478
:1008C00047EA8357A4FB076802958D0A05FB078555
:1008D0004FEA932C04FB0C542705029D4FEA06585F
:1008E00047EA1637B5EB08056EEB070C870E920E3C
:1008F00047EA811742EA8312A7FB0201B6EB0B011C
:1009000064EB00042B0D43EA0C335E1844EB1C50DF
:10091000DA465146E7FB0201C5F313044FEA0B33F5
:1009200043EA14534FEA0432019C43EA0603A4F15C
:100930000C040294009CCDE900B400F015FB03B058
:10094000BDE8F08F00200146F9E72DE9F04D81EA7E
:10095000030404F0004B21F0004514464FF0000A58
:1009600023F0004150EA050220D054EA01021DD0D4
:10097000C5F30A570246C5F31303C1F31300C1F3CD
:100980000A5640F4801543F48013A7EB0608101BA9
:10099000D64608F2FD3873EB050002D308F10108D2
:1009A00001E092185B41B8F1000F03DA0020014624
:1009B000BDE8F08D00204FF48011064684460EE01D
:1009C000171B73EB050705D3121B63EB05030643E7
:1009D0004CEA010C49084FEA300092185B4150EA9A
:1009E0000107EDD152EA030012D082EA040083EA43
:1009F0000501084305D0101BAB4106D2012200239C
:100A000006E000224FF0004302E06FF001025310B5
:100A10001AEB06004CEB085110EB0A0041EB0B01FE
:100A2000BDE8F04D00F091BAC1F30A52C1F31301D1
:100A300040F2FF3341F480119A4202DA002001466D
:100A4000704740F233439A42A2F2334202DC5242F0
:100A5000FFF78CBB00F02AB830B5041E71F100041A
:100A600004DB4FF00044404264EB0101141E73F1BB
:100A7000000405DB1C464FF00043524263EB0403C5
:100A8000994208BF904230BD064C074D06E0E06831
:100A900040F0010394E8070098471034AC42F6D3C5
:100AA000FFF74AFB2C5500084C550008202A04DBB0
:100AB000203A00FA02F1002070479140C2F1200371
:100AC00020FA03F3194390407047202A06DBCB1726
:100AD000203A41FA02F043EAE07306E041FA02F3F9
:100AE000D040C2F1200291400843194670470000EF
:100AF000004870471455000810B50446FFF7F8FF8A
:100B00000068005D00F0010010BD00002DE9FF4FFE
:100B1000087883B09946FF2805D0491C2D2804D0B9
:100B20000024002008E000200BE00124F9E700EB9E
:100B3000800003EB4000491C0B78FF2BF7D104B178
:100B4000404200230293147819461D462D2C01D0F3
:100B50002B2C04D1521C2D2C13D000240294AA4615
:100B60001478FF2C0FD00A25A3FB057801FB058123
:100B70004FF0000C03FB0C11521CE3194AEB01016E
:100B8000EEE70124EAE7814453EA010002D019F5B7
:100B9000C87F06DA03980021C0E9001107B0BDE85C
:100BA000F08F0025AE4E2F46DFF8B882184600F0D1
:100BB00037FACDE90001B9F1000002DAC9F1000409
:100BC00000E004460023A74A1AEB030B42EB045A49
:100BD00012E0E00707D02A46334638464146FFF781
:100BE00042FE074688462A46334610461946FFF716
:100BF0003AFE05460E466410002CEAD1DDE90001FC
:100C0000B9F1000F5A46534606DAFFF79EFE3A4600
:100C10004346FFF79AFE05E0FFF725FE3A464346B6
:100C2000FFF721FE029A0AB181F00041039AC2E95E
:100C30000001B3E72DE9FF4F1F468DB0D7E901460C
:100C40004FF0FF382E2045464FF000090B90B96950
:100C50006D1C0E988847396A824688470028F6D16D
:100C6000BAF1FF3F0AD024F4D064002E11DDBAF1AE
:100C70002B0F08D0BAF12D0F0BD102E0404611B076
:100C80008DE744F48064B9696D1C0E9888478246EC
:100C9000761E6946600501D52D2000E02B208DF8D9
:100CA000000001F1010B0DF1200809E0B9696D1C8C
:100CB0000E98884782460F9844F40074761E0560AB
:100CC000002E02DDBAF1300FF0D00B998A453ED1EB
:100CD00044F0800406E00F99681CA9F1010944F46E
:100CE00000740860B9696D1C761E0E9888478246AC
:100CF0003028F0D02BE00B998A4505D1200603D48B
:100D000044F08004761E18E0504603F07BF908B3E7
:100D10000DF11301761E44F400748B4508D2AAF13C
:100D200030000BF8010B200607D5A9F1010003E004
:100D3000200602D409F101008146A00502D50F99D1
:100D4000681C0860B9696D1C0E9888478246002EA1
:100D5000D1DC53E0002E51DDBAF1650F02D0BAF1BB
:100D6000450F4BD1A00549D5B9696D1C24F44074D9
:100D7000761E0E9888478246002E0CDD2B2804D064
:100D8000BAF12D0F07D144F48074B9696D1C0E9827
:100D900088478246761EE00501D52D2100E02B21F3
:100DA00008F8011BCDF82C8021E00DF12901761EF9
:100DB00044F4007488450CD2AAF1300010F0FF0012
:100DC00088F8000002D10B99884509D908F101087B
:100DD00006E0E00501D5244801E042F20F708146AB
:100DE000B9696D1C0E98884782460F980560002EE1
:100DF00004DD504603F006F90028D6D1F9690E98B3
:100E00008847FF208BF8000088F80000002006903B
:100E100007904B466A4608A906A8FFF777FEA0058B
:100E200002D46FF001002AE714F0240F0AD0E00783
:100E300014D1DDE906123868031D3B600068C0E983
:100E400000120BE0DDE90601FFF70BFB0146E007AE
:100E500004D13868021D3A600068016028460EE738
:100E6000000014400000F03FF1D8FFFF426842B19B
:100E7000016811F8013B23B1521EC0E90012184667
:100E800070470121C160881E704742685AB1C3682B
:100E9000016843B983688B4205D0491E521CC0E9E2
:100EA0000012002070474FF0FF3070472DE9F05FCF
:100EB00082460078002715468B460AF10104B946A0
:100EC000302801D09DB113E014F8010B01277828D8
:100ED00003D0582801D045B10AE00DB1102D07D13B
:100EE0000027102514F8010B02E0082500E00A2570
:100EF0000026B0460EE005FB080005FB06F10127C1
:100F000001EB10461FFA80F8B6F5803F00D3B946D2
:100F100014F8010B294600F075F80028EBDABBF154
:100F2000000F05D00FB1641E00E05446CBF800401E
:100F3000B9F1000F06D002F083FF02210160C81E44
:100F4000BDE8F09F48EA0640FAE710B5141E73F1B9
:100F5000000408DA401C41F1000192185B411A4379
:100F600001D120F0010010BD2DE9F04D92469B46C5
:100F700011B1B1FA81F202E0B0FA80F2203290466B
:100F8000FFF794FD04460F4640EA0A0041EA0B01D0
:100F900053465A46084313D0114653EA010019D06C
:100FA000C8F140025046FFF7E1F805460E465046AC
:100FB00059464246FFF77AFD084305D0012004E078
:100FC00020463946BDE8F08D0020054346EAE0762C
:100FD0002C4337430A986305E40AA0EB080000227B
:100FE000FD0A44EA47540A3002D500200146E9E7E9
:100FF000010510196941DDE9084500196941BDE89D
:10100000F04DA2E73A2800D2303820F02002412AE1
:1010100001D3A2F13700884201D34FF0FF3070476F
:101020000EB540F2334202920022CDE9002213466F
:10103000FFF79AFF03B000BDFEE70000FF21044A5E
:1010400002E01154401CC0B20528FAD302F0A2BE3F
:1010500028000020014800F0DDB80000D001002089
:10106000704772B6FEE72DE9F04101248846064636
:1010700005273019B0FBF7F107FB1105414628465B
:1010800002F034F930B1641CE4B2052CF1D93046D9
:10109000BDE8F0812846FBE710B590F8211000224A
:1010A000022905D00421816380F82020012010BD91
:1010B00001680B6823F00E030B6001680B6823F0D6
:1010C00001030B6090F84030C46B012101FA03F377
:1010D000636080F8211080F82020104610BD0000C9
:1010E0002DE9F05F90F821100024022903D004219B
:1010F0008163012485E001680A6822F00E020A601B
:1011000001680A6822F001020A603F4E3E4FB215A4
:10111000DFF8F4C0DFF8F090DFF8ECA0DFF8E8B01B
:10112000DFF8E4E00168783F13011502ACF1640CCC
:10113000A9F15009AAF13C0AABF1280BAEF1140E4B
:101140004FF48018B14227D9B9420ED0614512D070
:1011500049451DD0514518D0594518D0714501D188
:10116000424615E0294EB14201D1012210E0274E3E
:101170001436B14201D110220AE0244E2836B14281
:1011800006D0224A3C32914201D11A4600E02A465A
:101190001E49091F0A602BE0B94213D0614517D0E0
:1011A000494522D051451DD059451DD0714501D129
:1011B00042461AE0B14202D14FF0807215E0134E60
:1011C000B14201D1012210E0104E1436B14201D1DA
:1011D00010220AE00D4E2836B14206D00B4A3C32AE
:1011E000914201D11A4600E02A46074980394A60F7
:1011F000012180F82110002180F82010416B01B1FD
:1012000088472046BDE8F09F800002400804024065
:10121000806B70472DE9F05FC16B0A6801680B684D
:10122000046C4FF0040808FA04F8844D844E854F8E
:10123000DFF814C2DFF81492DFF814A2DFF814B25A
:10124000DFF814E218EA020F65D05FEA437862D54E
:101250000A68920603D40A6822F004020A60DFF8E2
:10126000F0814FF48062016808F114081301140240
:10127000414524D9A9420DD0B1420FD0B9421AD06C
:10128000614515D0494515D0514501D1120312E0F1
:10129000594501D104220EE0714501D140220AE0F6
:1012A0006D4D1435A94206D06B4A2832914201D1C6
:1012B0001A4600E022466749091F0A6029E0A94250
:1012C00013D0B14215D0B94220D061451BD0494559
:1012D0001BD0514502D14FF4800217E0414502D1A5
:1012E0004FF0806212E0594501D104220EE07145B1
:1012F00001D140220AE0584D1435A94206D0564A81
:101300002832914201D11A4600E022464B49083961
:101310004A60C16A71E04FF0020808FA04F818EA5E
:10132000020F70D05FEA83786DD50A68920606D402
:101330000A6822F00A020A60012180F82110DFF811
:1013400010814FF40072016808F1140813011402AF
:10135000414524D9A9420DD0B1420FD0B9421AD08B
:10136000614515D0494515D0514501D1120312E010
:10137000594501D102220EE0714501D120220AE037
:10138000354D1435A94206D0334A2832914201D155
:101390001A4600E022462F49091F0A6029E0A942A7
:1013A00013D0B14215D0B94220D061451BD0494578
:1013B0001BD0514502D14FF4001217E0414502D134
:1013C0004FF0007212E0594501D102220EE0714542
:1013D00001D120220AE0204D1435A94206D01E4A30
:1013E0002832914201D11A4600E0224613490839B9
:1013F0004A60002180F82010816A00291CD0BDE8D5
:10140000F05F0847FFE70825A540154214D01A07EA
:1014100012D50A6822F00E020A6090F84020C36BD1
:10142000012101FA02F25A60816380F82110002143
:1014300080F82010016BE0E7BDE8F09F0800024053
:101440001C000240300002404400024058000240AC
:101450006C000240080402401C04024030B560B138
:101460001A4B026814219A4209D2194B1344B3FB58
:10147000F1F18900016417490AE0012030BD134BE6
:101480005B421344B3FBF1F1890001640F49083951
:10149000C163022180F82110136843F6F0718B4379
:1014A000F0E901142143D0E902452C4321430469AA
:1014B0002143446921438469214319431160002178
:1014C0004163012242770177084630BD080402409B
:1014D000F8FFFDBF0000024070B5044600F014F9AB
:1014E0000546601C02D004480078044400F00CF962
:1014F000401BA042FAD370BD440000202DE9F84FF4
:10150000DFF8C8910024A9F1040B23460F2709F145
:10151000040AABF1040ED1E00125A54006EA05025C
:10152000AA4276D1DFF8A8C14E68A6EB0C08664542
:101530002BD00DDC032E34D005DC36B3012E19D0B0
:10154000022E2FD11BE0112E16D0122E2AD119E017
:10155000B8F5881F19D006DCB8F5803F15D0B8F56E
:10156000801F1FD111E0B8F5001F0ED0B8F5041F81
:1015700018D10AE0CB6815E0CB681B1D12E0CB68E0
:1015800008330FE0CB680C330CE08B682BB1012BD8
:101590004FF0080303D0456104E0042302E0056135
:1015A00000E00023FF2A01D8064601E000F104060E
:1015B0004FEA840501D9A5F12005D6F8008007FA85
:1015C00005FC28EA0C0803FA05F548EA0508C6F800
:1015D00000804D68ED0070D53E4DAE6946F00106C5
:1015E000AE61AD6924F0030605F0010500953A4DA2
:1015F00006EB050CDCF80850A607360F07FA06F8CC
:1016000025EA0805DFF8D480404503D14FF00008F3
:1016100025E052E0DFF8C880404502D14FF00108D4
:101620001DE0DFF8C080404502D14FF0020816E00F
:10163000DFF8B480404502D14FF003080FE0DFF837
:10164000AC80404502D14FF0040808E0DFF8A080EC
:10165000404502D14FF0050801E04FF0060808FAB6
:1016600006F848EA0508CCF808804D68D9F800600B
:10167000ED024D4601D5164300E096432E604D68BD
:10168000DAF80060AD02554601D5164300E09643F6
:101690002E604D68DBF80060AD035D4601D5164352
:1016A00000E096432E604D68DEF80060ED0375465D
:1016B00001D5164300E096432E60641C0A68164666
:1016C000E2407FF429AFBDE8F88F00000804014034
:1016D000000011100010024000000140000801400D
:1016E000000C0140001001400014014000180140AE
:1016F000001C01408068084000D0012070470AB1FA
:10170000016170470904FBE70148806870470000E9
:101710004400002070B5040025D094F83D00002559
:1017200020B984F83C50204600F04EF9242084F87B
:101730003D002068016821F0010101602068016816
:1017400041F4004101602068016821F4004101601A
:1017500000F096FA4D4A6168914201D84C4900E088
:101760004C49884201D2012070BD4B492368B0FB2F
:10177000F1F15E6826F03F060E435E6063689342B7
:1017800006D94FF4967359434FF47A73B1FBF3F1D2
:101790002368491C1E6A26F03F06314319626168BE
:1017A000914210D84900401EB0FBF1F2521CC2F326
:1017B0000B02042A01D2042022E0B0FBF1F0401C0D
:1017C000C0F30B001CE0A268F2B301EBC10303EB12
:1017D0000116431EB3FBF6F35B1C43F480431B0569
:1017E00049D092B301EBC10202EB0111401EB0FBE4
:1017F000F1F0401CC0F30B0040F4804040F4004086
:101800002168CA694CF6FF739A431043C861D4E952
:10181000071001432068026822F0C00211430160F2
:10182000D4E9030101432068826848F2FF339A43F8
:1018300011438160D4E9050108432168CA6822F098
:10184000FF021043C86001E00EE016E02068016866
:1018500041F0010101602564202084F83D002563EA
:1018600084F83E50002070BD01EB4106431EB3FBDF
:10187000F6F35B1CB3E70120C2E701EB4101401E18
:10188000B0FBF1F0401CC0F30B00B7E7A0860100ED
:1018900080841E0000093D0040420F002DE9F84FF2
:1018A0001F4690468A460446DDF82890FFF72CFF35
:1018B000054694F83D0020287FD119230122404994
:1018C0002046009501F01AF9002876D194F83C00E2
:1018D000012872D0012084F83C0020680168C90703
:1018E00003D1016841F0010101602068016821F421
:1018F00000610160212084F83D00102084F83E0042
:1019000000262664C4F824806785608D20852D48D4
:10191000E0622B464A465146204601F075F890B9E0
:10192000206841698069009036E02A464946204691
:1019300001F08AF950B1206C042804D120680168B4
:1019400041F4007101600120BDE8F88F606A2168F0
:1019500000780861606A401C6062618D491E618583
:10196000218D491E89B2218522685369DB435B07BB
:101970000BD451B100781061606A401C6062608DC8
:10198000401E6085208D401E20852A4649462046FF
:1019900001F088F80028CED1208D0028C5D154F858
:1019A0003D0B016841F400710160202004F81E091C
:1019B000E67766770020C7E7FFE70220C4E700006C
:1019C000020010000000FFFF10B586B0002100915A
:1019D00001910291039100680F4988421AD10F4C7E
:1019E000A06940F00800A061A069694600F0080005
:1019F0000490C0200090122001900320039008481A
:101A0000FFF77CFDE06940F40010E061E06900F45C
:101A10000010049006B010BD0054004000100240B9
:101A2000000C0140024881680278114481607047CF
:101A300044000020074810B5016841F01001016022
:101A4000032000F075F80F2000F006F800F024F8ED
:101A5000002010BD0020024070B50D4D04464FF42B
:101A60007A712878B1FBF0F00A490968B1FBF0F00F
:101A700000F0DCFA48B9102C07D200222146501E93
:101A800000F036F800206C6070BD012070BD0000D1
:101A900044000020500000200C4808B5816941F046
:101AA00001018161816901F001010091C16941F089
:101AB0008051C161C06900F08050009004484168C5
:101AC00021F0E06141F00071416008BD001002406A
:101AD00000000140002809DB00F01F0201219140B5
:101AE0004009800000F1E020C0F8001170470000BC
:101AF000F0B40E4B1B680C46C3F30223C3F1070579
:101B0000042D00D90425191D072901D2002300E066
:101B1000DB1E012606FA05F1491E214099409E4030
:101B2000761E16403143F0BC02F07AB90CED00E0AD
:101B3000064900F0070208684FF6FF03184040EA24
:101B40000220034A10430860704700000CED00E0DB
:101B50000000FA052DE9F0470F46050061D0434E1D
:101B6000306800F00700B84209D2306820F0070062
:101B700038433060306800F00700B84251D128681F
:101B80003B4C810712D5400703D5606840F4E06004
:101B900060602878000703D5606840F4605060609A
:101BA0006068A96820F0F000084360602878C007EA
:101BB00028D06868012810D02168022810D0890731
:101BC00000292EDA616821F0030101436160FFF70B
:101BD0009BFD804641F288390DE021688903EFE7DB
:101BE0008901EDE7FFF790FDA0EB0801494502D917
:101BF0000320BDE8F0876068696800F00C00B0EB76
:101C0000810FEFD1306800F00700B8420BD930687F
:101C100020F0070038433060306800F00700B84219
:101C200001D00120E5E72878400705D56068E9681C
:101C300020F4E060084360602878000706D56068FB
:101C4000296920F4605040EAC100606000F038F873
:101C50006168084AC1F30311515CC8400649086035
:101C600006480068FFF7F8FE0020C2E700200240A7
:101C7000001002407A540008500000204800002064
:101C80000448054900684968044AC1F30221515CCF
:101C9000C840704750000020001002408A540008DD
:101CA0000448054900684968044AC1F3C221515CEF
:101CB000C840704750000020001002408A540008BD
:101CC0000E4A51680E4801F00C03042B11D0082B6A
:101CD0000FD10C48C1F38343C903C05C0AD55168D6
:101CE000084AC1F34041921E515C054A5043B0FB83
:101CF000F1F070470449484370470000001002406B
:101D000000127A006A54000800093D002DE9F84FDE
:101D1000040070D02078C04DC00749D06868C0F377
:101D20008100012807D06868C0F38100022809D12A
:101D30006868C00306D52868800339D56068002824
:101D4000E7D035E06068B0F5803F0BD010B1B0F55A
:101D5000A02F11D0286820F480302860286820F453
:101D6000802002E0286840F480302860606890B1EC
:101D7000FFF7CAFC06460AE0286840F48020286085
:101D8000F0E700BFFFF7C0FC801B642873D8286809
:101D90008003F7D50CE0FFF7B7FC064605E000BF6F
:101DA000FFF7B2FC801B6428F0D828688003F7D4C2
:101DB00020789A4E80074FF001094FF0000839D57E
:101DC000686810F00C0F07D06868C0F38100022823
:101DD00009D16868C00306D42868800714D5206933
:101DE000012808D110E02069B0B1C6F80090FFF7D3
:101DF0008BFC074605E00AE1FFF786FCC01B0228C2
:101E0000C4D828688007F7D52868616920F0F800F1
:101E100040EAC10028600DE0C6F80080FFF774FCBE
:101E2000074604E0FFF770FCC01B022823D828688F
:101E30008007F7D4207800072CD57948A169D9B15B
:101E4000C0F80090FFF760FC074604E0FFF75CFC79
:101E5000C01B02280FD8686A8007F7D571484FF475
:101E6000FA510068B0FBF1F0009000BF0098411EED
:101E70000091FAD20EE080E0C0F80080FFF744FC49
:101E8000074604E0FFF740FCC01B022875D8686ACB
:101E90008007F7D42078400760D5E8690027C000A4
:101EA00008D4E86940F08050E861E869012700F053
:101EB000805000905C480168C90513D401688346CE
:101EC00041F480710160FFF71FFC824606E000BF0D
:101ED000FFF71AFCA0EB0A0064284ED8DBF80000DC
:101EE000C005F5D5E06801280AD008B1052813D04F
:101EF000286A20F001002862286A20F0040002E02D
:101F0000286A40F001002862E06841F2883B98B1FD
:101F1000FFF7FAFB82460BE0286A40F004002862D3
:101F2000EEE700BFFFF7F0FBA0EB0A0159455AD8D6
:101F3000286A8007F6D50CE0FFF7E6FB824605E04D
:101F4000FFF7E2FBA0EB0A0159454CD8286A80074D
:101F5000F6D41FB1E86920F08050E861E06988B3E9
:101F60006968C1F38101022944D00228C6F8608063
:101F700004D0FFF7C9FB044638E034E0FFF7C4FBA8
:101F8000074604E0FFF7C0FBC01B02282BD82868D7
:101F90008001F7D4206AB0F5803F05D16868A16858
:101FA00020F4003008436860D4E9080108436968F8
:101FB00021F4741108436860C6F86090FFF7A4FB31
:101FC000044606E025E000BFFFF79EFB001B022849
:101FD00009D828688001F7D51BE000BFFFF794FB04
:101FE000001B022802D90320BDE8F88F2868800171
:101FF000F4D40EE00128F7D06868226A00F480313A
:10200000914204D1616A00F47010884201D001202D
:10201000EAE70020E8E7000000100240000042422A
:1020200080044242500000200070004010B5401E65
:10203000B0F1807F01D3012010BD4FF0E02460613A
:102040000F21601701F0ECFE0020A0610720206145
:10205000002010BD7047704770B590F83C20012AF1
:102060002CD0012480F83C40022280F83D200368F7
:102070005A689D6822F070060A6832435A60104B15
:1020800002689A420ED00F4B9A420BD0B2F1804FA9
:1020900008D00D4B9A4205D00C4B9A4202D00C4B03
:1020A0009A4204D1496825F080031943916080F871
:1020B0003D40002180F83C10084670BD022070BDF4
:1020C000002C0140003401400004004000080040A2
:1020D000000C004010B5040003D094F83D0010B18E
:1020E00007E0012010BD002084F83C00204600F0ED
:1020F0001FF8022084F83D00211D206801F03AFB02
:10210000012084F8460084F83E0084F83F0084F8FB
:10211000400084F8410084F8420084F8430084F8C9
:10212000440084F8450084F83D00002010BD000004
:1021300008B50068B0F1804F12D10A48C16941F07A
:102140000101C161C069002200F001000090114648
:102150001C20FFF7CDFCBDE808401C20FFF7BABCEF
:1021600008BD00000010024070B5044690F83C0025
:102170000025012817D0012684F83C60022084F84D
:102180003D002068826822F0770222F47F4282605C
:102190000868502838D00DDC20284FD005DC90B3DB
:1021A000102811D14AE0022070BD302846D04028C6
:1021B0000AD13BE060282FD070280DD0B0F5805FA9
:1021C00003D0B0F5005F12D0012584F83D600020F7
:1021D00084F83C00284670BDCB68D1E90121206815
:1021E00001F016FB2068816841F0770109E0CB68B7
:1021F000D1E90121206801F00BFB2068816841F4DE
:1022000080418160E1E719E0CA684968206801F00F
:1022100011FB5021206806E0CA684968206801F077
:102220001AFB6021206801F0FDFACEE7CA68496810
:10223000206801F0FFFA40212068F4E72268014697
:102240001046F0E770472DE9F04104460068C66883
:1022500005694FF00007A90713D5B10711D5F91E7D
:10226000016101202077206880698007204602D024
:10227000FFF7E8FF04E000F07EF8204600F07CF86D
:102280002777680716D5700714D521686FF004000A
:102290000861022020772068806910F4407F204682
:1022A00002D0FFF7CFFF04E000F065F8204600F011
:1022B00063F82777280715D5300713D521686FF005
:1022C00008000861042020772068C0698007204644
:1022D00002D0FFF7B7FF04E000F04DF8204600F011
:1022E0004BF82777E80616D5F00614D521686FF06D
:1022F00010000861082020772068C06910F4407F32
:10230000204602D0FFF79EFF04E000F034F820469C
:1023100000F032F82777E80708D0F00706D02168E8
:102320006FF001000861204600F027F8280608D564
:10233000300606D521686FF0800008612046FFF75F
:1023400089FE680608D5700606D521686FF0400042
:102350000861204600F012F8A8060AD5B00608D594
:1023600021686FF0200008612046BDE8F041FFF7CA
:1023700072BEBDE8F081704770477047704700003B
:102380002DE9F0410D4600680A490B4C88420FD1F7
:102390000A4E00276088A8420AD0305C02F0DEF9BD
:1023A0006088401C80B26080FF28F3D96780F1E725
:1023B000BDE8F0810044004000000020140200202D
:1023C00070B5044620680C3050E8001F21F490716D
:1023D00040E80012002AF5D12068143050E8001FB0
:1023E00021F0010140E80012002AF5D1206B0128FC
:1023F00009D120680C3050E8001F21F0100140E89E
:102400000012002AF5D1206840694FF0000540060F
:1024100015D52068143050E8001F21F0400140E835
:102420000012002AF5D1E06B48B14563E06BFEF77E
:1024300033FE20B1E06BFEF7EBFE202806D0E585E9
:10244000202084F842002563002070BD10206064C5
:10245000032070BD70470000F8B5016804460868A5
:10246000CA684B6910F00F0F4FF0000559D003F008
:10247000010602F49077374365D0C10705D0D10536
:1024800003D5616C41F001016164410705D5D907AD
:1024900003D0616C41F002016164810705D5D90761
:1024A00003D0616C41F004016164010707D502F0BB
:1024B0002001314303D0616C41F008016164616C1B
:1024C00000293AD0800604D5900602D5204601F0B6
:1024D0005EFB20684069616CC0F38010090700D47E
:1024E00060B3204601F02CFB20684069400621D5EE
:1024F0002068143050E8001F21F0400140E800122D
:10250000002AF5D1E06BA8B16D494163E06BFEF79D
:10251000E7FD002811D0E06B416B01B0BDE8F04051
:10252000084783060FD593060DD52046BDE8F84031
:1025300001F02DBB2046FFF78DFFF8BD2046FFF7C9
:1025400089FF6564F8BD266B2023012E7CD1C60669
:102550007AD5D60678D508684868009048694FF063
:102560000206400640D5E16B086840680004000C94
:10257000E8D0A28D8242E5D9E085886920282DD057
:1025800020680C3050E8001F21F4807140E80012F0
:10259000002AF5D12068143050E8001F21F0010115
:1025A00040E80012002AF5D12068143050E8001FDE
:1025B00021F0400140E80012002AF5D184F84230B1
:1025C000256320680C3050E8001F21F0100140E81E
:1025D0000012002AF5D1E06BFEF75EFD6663A08D68
:1025E000E18D401A81B22AE0A08DE18D401A81B2BE
:1025F000E08D0028A6D00029A4D022680C3252E831
:10260000000F20F4907042E80007002FF5D12068F9
:10261000143050E8002F22F0010240E80027002F7C
:10262000F5D184F84230256320680C3050E8002F43
:1026300022F0100240E80023002BF5D1666320460B
:10264000FFF79EFEF8BDFFE705062BD5150629D539
:1026500094F841002128F5D1A068B0F5805F01D140
:102660002069B0B1206A411C21622168007848606D
:10267000E08C401E0004000CE084E3D12068C168B7
:1026800021F08001C1602068C16841F04001C16053
:10269000D8E7206A0088C0F308004860206A801CE0
:1026A0002062E5E74006CDD55006CBD5CA68204666
:1026B00022F04002CA6084F8413000F08CF9C1E792
:1026C000313B000870B5040004D094F841000025A7
:1026D00010B106E0012070BD84F84050204600F0A3
:1026E00023F8242084F841002068C16821F40051B7
:1026F000C160204601F0ACFA2068016921F49041E4
:1027000001612068416921F02A0141612068C168A6
:1027100041F40051C1606564202084F8410084F8D0
:1027200042006563002070BDF0B585B000240094C0
:10273000019402940394054602684B48DFF824C1D3
:1027400002230321494E0715624520D1826942F4D4
:1027500080428261826902F480420492826942F07E
:10276000040282618069039100F004000490180261
:10277000CDE9000369463046FEF7C0FECDE900749E
:10278000694630460294FEF7B9FE05B0F0BDDFF8A9
:10279000E0C062453AD1C26942F40032C261C26906
:1027A00002F400320492826942F00402826180697C
:1027B000039100F0040004900420CDE90003694671
:1027C0003046FEF79BFE0820CDE9000469463046FE
:1027D0000294FEF793FE284E2648C6E900048020A6
:1027E000C6E9024020203461C6E905403046F46164
:1027F000FEF734FE08B1FEF734FCEE63002211460A
:1028000026207562FFF774F9262028E01B4DAA42A6
:10281000BBD1C26942F48022C261C26902F4802243
:102820000492826942F0080282618069144D00F0CE
:102830000800CDE90310CDE9007369462846FEF78C
:102840005DFEE814CDE90004694628460294FEF7CF
:1028500055FE002211462720FFF74AF92720FFF7EF
:1028600039F992E7003801400010024000080140A9
:10287000004400406C000240D001002000480040AD
:10288000000C01402DE9F84F044690F842009A46AA
:1028900016460D46202802D00220BDE8F88FB5B1BB
:1028A000AEB100206064222184F842102063FEF75C
:1028B0002BFFA6858146E685A0684FF48058202727
:1028C000404501D1206920B12E46002529E0012094
:1028D000E3E7002625E04B46002220212046CDF8E4
:1028E00000A001F011FA18B184F842700320D4E777
:1028F00026B1A06840451AD038B108E02068406889
:10290000C0F3080025F8020B08E0206978B12068C0
:10291000406800F07F0000BF06F8010BE08D401E0C
:10292000E085E08D0028D6D184F84270B5E72068B4
:102930004068F1E770472DE9F843044690F84100FC
:10294000984616460D46202802D00220BDE8F8839E
:1029500085B17EB100206064212084F84100FEF73B
:10296000D3FEA6848146E684A0682027B0F5805F68
:1029700002D003E00120E9E7206910B12E460025CE
:102980000EE000260CE08021204601F0BDF9A8B938
:10299000C6B116F8010B21684860E08C401EE08447
:1029A000E08C4B464FF00002CDF800800028EAD1C1
:1029B0004FF04001204601F0A7F940B184F8417082
:1029C0000320C3E735F8020BC0F30800E3E784F8FF
:1029D00041700020BAE77047FEE701684A69D243B8
:1029E00052050FD46FF480624A61002140F8301F15
:1029F000202242738173026942F004020261017372
:102A00000120704700207047F8B50446C06A1E4692
:102A10000D461746082807D0012805D010F5803F3D
:102A200002D0206B122804D12068016841F4807123
:102A30000160134600224FF001112046009600F07D
:102A40005DF840B120680068C00502D54FF4007001
:102A500020640320F8BD2069B0F5804F0ED0062019
:102A6000216800EAD51040F0F000086133463A468C
:102A70000B49204600F08AF878B902E005F0FE0024
:102A800000E0E8B221680861054933463A46891FEB
:102A9000204600F07BF80028DCD00120F8BD0000C3
:102AA0000800010070B516460D4604461EE020469B
:102AB000FFF793FF08B1012070BD681C16D0FEF728
:102AC00023FE801BA84200D885B920684069C04316
:102AD00040070BD5002044F8300F20216173A0730C
:102AE000216941F0200121612073E4E720684069F9
:102AF000C0434007DBD4002070BD00002DE9F04743
:102B0000984617460D460446C1F30746DDF8209067
:102B10002AE000BFB8F1FF3F26D0FEF7F5FDA0EB9D
:102B20000901414502D8B8F1000F1DD12068012EDE
:102B300016D0806925EA00000004000C12D00020A5
:102B4000B84211D1002044F8300F20216173A073E6
:102B5000216941F02001216120730120BDE8F08747
:102B60004069E7E70120EBE72068012E0AD0806981
:102B700025EA00000004000C06D00020B842C9D0AD
:102B80000020EBE74069F3E70120F7E72DE9F04784
:102B9000984616460D4604464FF000094FF0200AAD
:102BA000C1F3074723E020684069C043400515D4BE
:102BB0002068016841F40071016021686FF4806051
:102BC0004861C4F8309084F83DA084F83E90216CB0
:102BD00041F00401216484F83C9021E0701C06D08F
:102BE000FEF792FDA0EB0800B04203D816B1012F0A
:102BF0001FD021E02068012F15D0806925EA000050
:102C00000004000C18D000BF44F8309F84F80DA0D9
:102C100084F80E90216941F02001216184F80C9024
:102C20000120BDE8F087406925EA00000004000C9F
:102C3000EAD12068406901E02068806925EA000047
:102C40000004000CAFD1ECE770B516460D46044603
:102C50001EE02046FFF7C1FE08B1012070BD681CD0
:102C600016D0FEF751FD801BA84200D885B9206818
:102C70004069C04300060BD5002044F8300F2021E6
:102C80006173A073216941F0200121612073E4E7A1
:102C900020684069C0430006DBD4002070BD0000FE
:102CA00010B500F00DF8054908B14A781AB10022B4
:102CB0004870104610BD0122FAE700000C00002009
:102CC00010B520210348FEF715FD08B1002010BD06
:102CD000012010BD00100140C17819B10021C17060
:102CE000012070470020704710B5FEF703FD08B1C2
:102CF000002010BD012010BD42788A420FD1827899
:102D0000032A01D2521C8270D2B2022A06D3027860
:102D10008A4203D00170012900D1C170704700229E
:102D20008270417070470000094808B5416941F060
:102D3000010141614069002200F00100009011464C
:102D40001020FEF7D5FEBDE808401020FEF7C2BEF9
:102D5000001002402DE9F04385B000243248009471
:102D6000019402940394816941F020018161816999
:102D700001F020010491816941F0100181618169B4
:102D800001F010010491816941F0040181618169C0
:102D900001F004010491816941F0080181618069B9
:102DA000DFF8888000F008000490012202214046EC
:102DB000FEF7A5FC00224FF480514046FEF79FFC31
:102DC0000122DFF86C90170239464846FEF797FC5F
:102DD0002F2001258DE8310069461648FEF78EFB4D
:102DE000CDE900540226694648460296FEF786FB66
:102DF00041F20200CDE90005CDE9024669464046B0
:102E0000FEF77CFB00970396CDE9015469464846DE
:102E1000FEF774FBE8038DE8310069464846FEF78B
:102E20006DFB05B0BDE8F08300100240000C0140CE
:102E300000080140001001400D4810B50B49016029
:102E40000C49416000214FF480428160C0E90312C7
:102E500041618161C1610162FEF75CFC002803D021
:102E6000BDE81040FEF7FDB810BD00000054004062
:102E70005C000020801A060010B586B000241748B8
:102E8000009401940294039404944FF080410594BB
:102E900001604721C0E9011440F2E731C0E90314A1
:102EA00080218161FFF716F908B1FEF7DAF84FF4D7
:102EB0008050009069460948FFF756F908B1FEF7BF
:102EC000D0F8049404A905480594FFF7C5F8002834
:102ED00001D0FEF7C6F806B010BD0000B00000201B
:102EE0000C4810B50A4901604FF4E13141600021FE
:102EF00081600C22C160C0E904128161C161FFF7E9
:102F0000E1FB002803D0BDE81040FEF7AAB810BDD1
:102F100000380140F80000200C4810B50A49016053
:102F20004FF4E1314160002181600C22C160C0E9B1
:102F300004128161C161FFF7C5FB002803D0BDE821
:102F40001040FEF78EB810BD004400404001002044
:102F50000C4810B50A4901604FF4E131416000218D
:102F600081600C22C160C0E904128161C161FFF778
:102F7000A9FB002803D0BDE81040FEF772B810BDD1
:102F80000048004088010020FEE7FEE74FF4806122
:102F90000148FDF714B90000A8030020A0F1610169
:102FA000192901D82038C0B220383B286FD2DFE879
:102FB00000F01E99999999999999999999999920B7
:102FC00029262C2F3235383B3E4144472399999985
:102FD0009999994A4D505356595C5F6265686B6F79
:102FE0007275787B7E8184878A8D909396003F48A6
:102FF00070473E48801D70473C480C3070473B4846
:103000001230704739481830704738481E307047C2
:1030100036482430704735482A30704733483030BE
:10302000704732483630704730483C3070472F4840
:10303000423070472D48483070472C484E3070471A
:103040002A485430704729485A3070472748603022
:10305000704726486630704724486C3070472348D4
:103060007230704721487830704720487E30704772
:103070001E48843070471D488A3070471B48903086
:1030800070471A489630704718489C30704729E0BE
:103090001648A230FAE71548A830F7E71348AE30D3
:1030A000F4E71248B430F1E71048BA30EEE70F48C1
:1030B000C030EBE70D48C630E8E70C48CC30E5E718
:1030C0000A48D230E2E70948D830DFE70748DE3067
:1030D000DCE70648E430D9E70448EA30D6E703489D
:1030E000F030D3E70148F630D0E700006C53000819
:1030F00010B56420FEF7F0F9AE2000F0DFF82020D4
:1031000000F0DCF8102000F0D9F8B02000F0D6F87C
:10311000C82000F0D3F8002000F0D0F8102000F014
:10312000CDF8402000F0CAF8812000F0C7F87F20D9
:1031300000F0C4F8A12000F0C1F8A62000F0BEF80D
:10314000A82000F0BBF83F2000F0B8F8A42000F061
:10315000B5F8D32000F0B2F8002000F0AFF8D52089
:1031600000F0ACF8F02000F0A9F8D92000F0A6F8A3
:10317000222000F0A3F8DA2000F0A0F8122000F0DE
:103180009DF8DB2000F09AF8202000F097F88D20C1
:1031900000F094F8142000F091F8AF2000F08EF8C1
:1031A000FFF7F4FEBDE8104000F010B8FFF7EEBEE8
:1031B00010B5FFF79DFFFFF7E9FEBDE8104000F0F6
:1031C00005B800F003B800F05FB800002DE9F04F3B
:1031D0000024DFF878B087B05FF0400704F1B0005A
:1031E000C0B200F06BF8002000F068F8102000F08A
:1031F00065F880260BEBC41900250DF104084FF08B
:10320000640A00BF8DF804700020414608E000BF4A
:1032100019F805200B186D1C401C5A70ADB280B215
:10322000B54201D21028F3D3401C83B201AA782101
:103230000748CDF800A0FEF731FBB542E2D3641C8D
:10324000E4B2082CCAD307B0BDE8F08FA803002071
:103250005C00002070B50D460446082910D27A2C77
:103260000ED81046FFF79AFE064A0146002002EBF0
:10327000C5120B5C2518401CC0B253550628F8D364
:1032800070BD0000A8030020082804D20A460146A9
:10329000002000F001B8704770B515460E46044690
:1032A00006E031462046FFF7D5FFA41DE4B26D1CB1
:1032B0002A78002A01D07A2CF3D970BD1CB50021E0
:1032C0008DF804108DF8050064200090022301AAF7
:1032D00078210448FEF7E2FA08B100201CBD012065
:1032E0001CBD00005C0000207047000010B50022EB
:1032F000064B06E09C5C844201D1012010BD521CAB
:10330000D2B28A42F6D3002010BD0000280000206F
:10331000F0B589B0FFF74AFF40A10020FFF753FF47
:10332000434D05F11C042878B8B142A10120FFF7F4
:103330004AFF43A10220FFF746FF45A15FF00300CB
:10334000FFF741FF012000F0D1F9394D1435002875
:1033500025D0687854F8206022E06B7840A21821CC
:1033600002A85B1C00F042FD02A90120FFF72BFF21
:10337000A8783FA2182154F8203002A800F036FDAA
:1033800002A90220FFF71FFF3BA10320FFF71BFF4D
:103390003DA10420FFF717FF3EA10520D0E741A67D
:1033A000002000F0A3F918B1287854F8203000E08C
:1033B0003CA33DA2182102A8009600F017FD02A927
:1033C0000620FFF700FF042000F090F918B12879DB
:1033D00054F8207000E033A7032000F087F918B1FB
:1033E000E87854F8206000E02EA6022000F07EF974
:1033F00018B1A87854F8203000E02AA32DA2182193
:1034000002A8CDE9006700F0F1FC02A90720FFF750
:10341000DAFEFFF7D6FE09B0F0BD00005345542098
:10342000352D504F494E54204F5244455200000014
:10343000140000204F524445522052454144590047
:103440004B45593020544F205354415254000000F2
:103450004241434B20544F204D4F444946590000B0
:103460004544495420535445503A25642F350000B3
:103470004355523A2573000055502F444E3A20537D
:10348000454C4543540000004F4B2020203A205328
:10349000415645004241434B203A2052452D454478
:1034A000495400002D2D0000313A257320323A2571
:1034B00073000000333A257320343A257320353ADF
:1034C00025730000002806D003494A6902600A8B70
:1034D0008280897E817170471400002010B50E48EB
:1034E00000210A46416101838176FF2300F1140423
:1034F000A354521CD2B2052AFAD341608160C16044
:1035000001610170417081700121C170FFF750FEAF
:10351000BDE81040FFF7FCBE140000200148807990
:10352000704700002800002030B40B4A00210846F4
:10353000516111839176FF2302F114042354401C3E
:10354000C0B20528FAD31170517091700120D0706B
:1035500030BCFFF7DDBE0000140000202DE9F0476D
:10356000364C01212046FFF7BFFB01463448FFF7E8
:10357000C3FB02212046FFF7B7FB01463048001D80
:10358000FFF7BAFB04212046FFF7AEFB01462C48AB
:103590000830FFF7B1FB08212046FFF7A5FB0146E5
:1035A00027480C30FFF7A8FB254C241F0126207864
:1035B00070BB201DFFF790FBB8B1A77894F801A06D
:1035C00001254FF00509781B401D90FBF9F209FB1E
:1035D0001200C0B280465146FFF788FE08B36D1C4A
:1035E000EDB2052DEFD9A770E6701548001DFFF765
:1035F00073FB28B16178A078FDF735FDA070E67007
:103600000F480830FFF768FB10B100F01DF8E670B6
:103610000B480C30FFF760FB28B100F03BF8E67078
:1036200004E04746DFE7E078002805D00020E0709E
:10363000BDE8F047FFF76CBEBDE8F0870010014021
:10364000180000207047000070B5114C6178A07818
:10365000FFF74CFE00281AD1617804F11405A07818
:10366000685400F097FB2078002810D16078042877
:103670000DD2401CC0B2607000F038F810B1607814
:10368000285C03E06178A078FDF7EDFCA07070BDC8
:103690001400002070B5144D0020A5F114046979C0
:1036A00091B12178012914D0607808B1401E607072
:1036B0005FFA80F0FDF7C2FC607878B100F016F890
:1036C00060B16078285C0DE06070A0702070A87117
:1036D00070BD2070A87104206070EBE76178002055
:1036E000FDF7C1FCA07070BD28000020052805D2A0
:1036F0000349085CFF2801D0012070470020704773
:1037000028000020FEF78EB930B58FB0282168461A
:10371000FCF755FD14210AA8FCF751FD012108040E
:10372000CDE900100024029402250491CDE9075050
:103730004FF4E01009906846FEF7E8FA08B172B657
:10374000FEE70F20CDE90A054FF48060CDE90C407B
:1037500002210AA80E94FEF7FDF9002801D072B6E6
:10376000FEE70FB030BD70470148FEF76CBD0000AA
:10377000B0000020F0B50268204C214D214E224FB0
:10378000224B4FF0804CA04209D0984207D06045B0
:1037900005D0A84203D0B04201D0B84204D122F0F3
:1037A000700E4A6842EA0E02A04209D0984207D041
:1037B000604505D0A84203D0B04201D0B84203D141
:1037C00022F44075CA682A434D6922F080022A43D8
:1037D00002608A68C2620A688262A04201D098428E
:1037E00001D109690163012141610169C90703D060
:1037F000016921F001010161F0BD0000002C0140D0
:103800000004004000080040000C0040003401406B
:1038100010B5846842EA032224F47F440A43224319
:10382000826010BD826822F070020A4342F00701F4
:103830008160704710B5036A046A24F001040462D1
:10384000846924F0F00444EA021423F00A020A43D3
:103850008461026210BD10B5036A046A24F010048A
:103860000462846923F0A00324F4704444EA023221
:1038700043EA01118261016210BD000010B501F040
:103880008BF9012001F06BF9C820FDF725FEFFF749
:1038900025FE054C00202070FDF736FF6060FFF725
:1038A0000FFA607010BD00000C0000207CB51D4CAC
:1038B000207820B10025012829D025707CBDFDF796
:1038C00023FF6168401A0A2804D3FDF71DFF6060DA
:1038D000FFF744FEFFF722FE0028EFD0FFF7E0F9E4
:1038E0000028EBD06846FFF7EDFD684600F028F8A9
:1038F000FFF74CFB0CA10020FFF7C6FC0DA1022036
:10390000FFF7C2FCFFF762FC012020707CBDFFF7CF
:10391000C7F90028FAD0FFF707FE2570FDF7F4FE7F
:1039200060607CBD0C000020504154524F4C20443C
:103930004F4E45004B4559303A20414741494E00D2
:1039400070B50546FFF722FB24A10020FFF79CFC81
:10395000FFF73CFC01F026FB4FF49670FDF7BCFD31
:10396000002421E0285D05281CD21F491E4A143A74
:1039700051F8201052F8200001F028F940B1FFF76B
:1039800005FB1AA10020FFF77FFC1BA1022017E016
:10399000601CC1B26A791CA000F046F84FF41670A2
:1039A000FDF79AFD641CE4B26879A042DAD80021E0
:1039B000084601F00BF948B1FFF7E8FA14A100201E
:1039C000FFF762FCBDE87040FFF700BCBDE8704047
:1039D0000022114611A000F027B80000484F4D49C1
:1039E0004E472E2E2E000000585300084D4F5645CE
:1039F000204641494C000000504154524F4C204158
:103A0000424F525400000000504154524F4C0000AD
:103A1000484F4D45204641494C0000005245545501
:103A2000524E20484F4D45002DE9F74F8346002068
:103A300094B0012617461190344609ADCDF8200008
:103A400005EB84012046091F01F033FB00B100267D
:103A50000F20FDF741FD641CE4B2042CF0D9DFF81F
:103A6000B0A00024A8460DF1340900BF58F8240086
:103A7000FCF7A9FC5146FCF75CFC0546204600F02B
:103A800081FF2946FCF71DFC49F82400641C042C26
:103A9000ECDB2EB108AA11A90DA800F091FE18B90F
:103AA00008A911A801F070F8FFF770FA5946002034
:103AB000FFF7EAFB57B1009716A2162102A8159B43
:103AC00000F094F902A90120FFF7DEFB1198FCF742
:103AD000B5FCCDE9000112A2162102A800F086F97A
:103AE00002A90320FFF7D0FB0898FCF7A7FCCDE95B
:103AF00000010DA2162102A800F078F902A9042005
:103B0000FFF7C2FBFFF762FB17B0BDE8F08F0000C4
:103B1000246B8844535445503A25642F2564000093
:103B2000583A25362E316600593A25362E31660030
:103B300010B5406A0021C185C184FEF78BFC10BD21
:103B400001680C3151E8002F22F4907241E8002303
:103B5000002BF5D10168143151E8002F22F0010249
:103B600041E80023002BF5D1016B012909D101683F
:103B70000C3151E8002F22F0100241E80023002B05
:103B8000F5D1202180F8421000210163704708B56B
:103B900090F84210222901D0022008BD82684FF41B
:103BA00080539A4201D1016921B1816A9A421BD0A6
:103BB0004AB10AE00268816A5268C2F308020A80C8
:103BC000816A891C08E0026972B10268526802F0D9
:103BD0007F020A70816A491C8162C18D491E0904F5
:103BE000090CC18503D01BE002685268F1E7016847
:103BF000CA6822F02002CA600168CA6822F4807292
:103C0000CA6001684A6922F001024A61202180F8F5
:103C1000421000214163026B012A03D0FEF78AFEA5
:103C2000002008BD016301680C3151E8002F22F02B
:103C3000100241E80023002BF5D101680A68D20682
:103C400002D50A6849680091818DFEF799FBE7E784
:103C500070B5044600680169E26821F440511143DF
:103C600001612169A0680843616908432168CA6845
:103C700041F20C639A430243CA6020684169A26919
:103C800021F44071114341611E492068884202D1EC
:103C9000FEF706F801E0FDF7F3FF00EBC00101EBD2
:103CA0000012606864218000B2FBF0F3B3FBF1F313
:103CB0006FF018067343B2FBF0F5B2FBF0F605EBBC
:103CC0008305322303EB0515B5FBF1F5B6FBF1F6E1
:103CD00005F0F00505EB0615B2FBF0F6B2FBF0F0CF
:103CE000B0FBF1F06FF01802504306EB800003EBDD
:103CF0000010B0FBF1F0216800F00F00284488604C
:103D000070BD0000003801402DE9F8439846174681
:103D10000D460446089E24E0701C22D0FDF7F4FCFA
:103D2000A0EB0800B0421AD8CEB12068C16849079C
:103D300017D5802D15D0402D13D00168C943090730
:103D40000FD401680025406800902046FFF7F8FE78
:103D50000820606484F840500120BDE8F883032007
:103D6000FBE72068006835EA000004D00020B84274
:103D7000D2D00020F1E70120F9E700000148FEF76A
:103D80006BBB0000400100200148FEF765BB00004E
:103D9000880100200B48002211464271435CFF2B32
:103DA00002D043795B1C4371491CC9B20529F5D384
:103DB000044943791439052B00D3012282710A701A
:103DC0007047000028000020FEE700000FB4054BFC
:103DD00010B503A9044A029800F01CF910BC5DF864
:103DE00014FB0000A9470008540000200FB47CB564
:103DF0000C0009AD01D0611E00E00021CDE90001F9
:103E0000064B6A462946089800F004F9002C02D0B7
:103E1000009A002111707CBC5DF814FB1B47000860
:103E20000907090E002804DB00F1E02080F80014E7
:103E3000704700F00F0000F1E02080F8141D70477B
:103E40000048704758000020014800687047000093
:103E50005800002002E008C8121F08C1002AFAD149
:103E600070477047002001E001C1121F002AFBD1FA
:103E700070470000014908607047000058000020AA
:103E80002DE9FF5F82B00021DDE90430020DDDF88D
:103E900040B0034318D044F61050A2F2FF32424320
:103EA0001514119801281FD0A5EB0B00401C5FEAE8
:103EB000000A4FF000064E4FDFF83891B0465046EA
:103EC00015D5CAF1000413E0119801244AA3012872
:103ED00001D16FEA0B010298119AC0E90031C0E9E3
:103EE000024206B0BDE8F09FCBF10000DFE70446D8
:103EF0000021404A491842EB0450CDE9001012E07D
:103F0000E00707D032463B4640464946FCF7ABFC4B
:103F10008046894632463B4610461946FCF7A3FCCC
:103F200006460F466410002CEAD1DDE90401DDE904
:103F30000023BAF1000F06DAFCF795FC42464B4627
:103F4000FCF791FC05E0FCF700FD42464B46FCF710
:103F5000FCFC04460E460022284BFCF77DFD03D8EE
:103F60004FF0FF30014607E00022254B2046314646
:103F7000FCF7D2FBFCF758FD102409E0002C0ADB0B
:103F80000A220023FCF7AAFA039B30321A55641E5A
:103F900050EA0102F2D1641C039AC4F111031444E3
:103FA000119A012A03D0012208430DD10AE00843E7
:103FB00004D000204FF0110B119072E7A3EB0B051A
:103FC0006D1E0DE05B4504DD4FF0000205F10105BB
:103FD00004E003DA4FF00002A5F10105002AECD05D
:103FE00002981199C0E90231C0E9004579E7000063
:103FF000000014400000F03F300000000000F043DB
:104000000000E03F30380A2801D20120704700202C
:10401000704700002DE9FF4F95B09A468846064646
:104020000025EEE1252877D100242746F94A012111
:10403000039400E0044316F8013F203B01FA03F02B
:104040001042F7D130782A2811D06FF02F03307842
:10405000A0F13002092A16D8039A44F0020402EBB8
:10406000820203EB42021044761C0390EFE758F8FB
:10407000042B0392002A03DA504244F400540390C4
:1040800044F00204761C30782E2816D116F8010F61
:1040900044F004042A280DD06FF02F023078A0F1EC
:1040A0003003092B09D807EB870302EB4303C7183A
:1040B000761CF3E758F8047B761C30786C280FD018
:1040C00006DC4C2817D068280DD06A2814D104E0EB
:1040D000742810D07A280FD10DE044F400140AE0BF
:1040E00044F4801401E044F440147278824202D116
:1040F00004F58014761C761C307866280BD013DC0F
:10410000582877D009DC002875D04528F6D04628F5
:10411000F4D047281AD193E118E0632835D06428F9
:1041200079D0652812D18BE1702873D008DC67281C
:10413000F1D069286FD06E280DD06F2806D1ACE081
:1041400073282CD0752874D0782853D052461799EC
:1041500090476D1C54E1C4F30250022809D0032893
:104160000DD0D8F8001004280DD00D6008F1040817
:1041700046E1D8F80010EA17C1E90052F6E7D8F88E
:1041800000100D80F2E70D70F0E718F8041B8DF8B1
:10419000001000208DF80100EB46012003E058F8E4
:1041A00004BB4FF0FF3061074FF0000102D40DE077
:1041B00009F101018946B9420FDA8145F8DB1BF8A4
:1041C00009100029F4D108E009F101018946814272
:1041D000FADB1BF809100029F6D103985346A0EB2F
:1041E000090721463846179A00F080FA284400EB68
:1041F000090507E044E008E10DE01BF8010B524619
:1042000017999047B9F10109F7D25346214638462C
:10421000179AF2E039E00A21C4F302524FF0000B82
:104220000091022A06D058F8040BC117032A09D0BE
:104230000AE023E008F1070020F00702F2E802019B
:10424000904605E000B2C117042A01D140B2C1175F
:10425000002906DA0A460021404261EB02012D22C4
:1042600002E0220504D52B228DF80420012203E070
:10427000E20701D02022F7E7914657E00A2100E04B
:1042800010214FF0000B00910BE010214FF0000BBC
:1042900044F004040827009103E008204FF0000BCD
:1042A0000090C4F30252022A05D058F8040B0021F2
:1042B000032A08D008E008F1070020F00702F2E81E
:1042C0000201904603E080B2042A00D1C0B24FF050
:1042D000000922072AD53278702A07D0DDF800C0FD
:1042E0008CF0100C5CEA0B0C05D00EE040228DF82F
:1042F0000420012208E050EA010306D030238DF8A3
:1043000004308DF8052002229146009B83F00803BB
:1043100053EA0B030AD150EA010201D1620705D525
:1043200030228DF804204FF001097F1E3278582A80
:1043300004D039A20C920CAA02920BE03BA2F9E73E
:104340005B46009AFCF7CAF80C9B9B5C029A521ED3
:104350000292137050EA0102F2D1029804A9081ADD
:1043600000F1200B600702D524F4803400E001271F
:104370005F4502DDA7EB0B0000E0002000EB0B0126
:10438000009003984944401A0390E00306D4534632
:104390002146179A039800F0A9F90544002706E082
:1043A00001A85246C05D179990476D1C7F1C4F4570
:1043B000F6DBE0030CD553462146179A039800F02C
:1043C00095F9054404E030205246179990476D1C3A
:1043D0000099481E00900029F5DC08E00298029937
:1043E00052460078491C0291179990476D1CBBF109
:1043F0000001ABF1010BF1DC5BE100F065F9054474
:10440000761C307800287FF40DAE19B02846BDE840
:10441000F08F00000928010030313233343536374F
:104420003839616263646566000000003031323300
:1044300034353637383941424344454600000000A0
:10444000600700D4062708F1070020F00700F0E815
:104450000223804603F0004C5FEA0C0001D097A0D5
:1044600009E0200501D596A005E0E00701D095A060
:1044700001E0AFF24C001390307823F00043652840
:104480000CD006DC452809D046281DD047287FD10E
:104490003BE0662818D067287AD136E00021112F3A
:1044A00001DB112000E0781CCDE9000104A90CA873
:1044B000FFF7E6FCDDE90D010C9A4FF0000B07F168
:1044C0000109109200914EE04FF000400097CDE9B5
:1044D000011004A90CA8FFF7D3FCDDE90D020C9B29
:1044E0000F994FF0000B91461093009211B9791C6F
:1044F00000EB0109B7EB090003D4C0F1FF3B07F162
:104500000109A9EB0700019042E0012F00DA012721
:104510000021112F01DD112000E03846CDE9000116
:1045200004A90CA8FFF7ACFCDDE90D010C9A009181
:104530004FF0000BB946109221070FD4009A4A455C
:1045400003DA914601E0A9F10109B9F1010F05DD96
:10455000109AA9F10101515C3029F4D0B84202DA75
:1045600010F1040F03DA0121CDE9011010E0002859
:1045700003DC8344A9EB000102E0411C494500DD56
:104580008946A0EB0B00401C01904FF000400290C8
:10459000200705D40198484502DB4FF0FF30019019
:1045A00000208DF84B0002980DF14B07B0F1004F41
:1045B00025D002200C902B200D90029800280CDAB8
:1045C000404202902D200D9007E00A210298FBF74F
:1045D0006FFF3031029007F8011D0C99481E0C90B6
:1045E0000029F2DC02980028EFD1791E0D9808709E
:1045F000307800F0200040F0450007F8020D11A8C7
:10460000C01BC01D02901398007800B1012000EB80
:104610000901019801EBE071029801440398401AE6
:10462000401E0390E00306D453462146179A039890
:1046300000F05CF805441398007818B152461799B9
:1046400090476D1CE00323D553462146179A0398E3
:1046500000F04CF805441BE0BBF1000F07DB0098AD
:10466000584504DD1098179910F80B0001E01799D0
:1046700030205246904701980BF1010B401E05F186
:104680000105019004D12E205246179990476D1CC8
:10469000B9F10001A9F10109DEDC05E017F8010B11
:1046A0005246179990476D1C0299481E02900029A6
:1046B000F4DC53462146179A03989EE62D0000002D
:1046C0002B000000200000002DE9F04104460025E9
:1046D0001E461746880404D405E039462020B0471A
:1046E0006D1C641EF9D52846BDE8F0812DE9F04126
:1046F000044600251E469046C80301D5302700E039
:104700002027880404D505E041463846B0476D1C93
:10471000641EF9D52846BDE8F0814A68002A06D013
:104720000A68531C0B6010704868401E4860704750
:1047300030B583B00446FFF787FB05460020CDE97E
:104740000000024621466846FBF715FF2846FFF7A2
:1047500091FBDDE9000103B030BD000070B500251C
:104760000F4C242811D0617800290DD021460D4A24
:10477000097823280CD00D2806D00A2804D02F2928
:104780000AD25054491C217070BD0120607004E0B1
:104790005554044800F028FD6570257070BD000078
:1047A000000000201403002013B50A2301226946EB
:1047B0000248FEF7C0F800981CBD0000F800002079
:1047C0002DE9F74F90B0DFF8B09107460024A9F12A
:1047D000200A09F1100B02AE0DF118080DF12805A1
:1047E00059F824105AF82400FBF76BFD46F8240012
:1047F00061485BF82410103850F82400FBF761FD85
:1048000048F8240057F824000146FBF760FD5B4997
:10481000FBF757FD45F8240010F1FF4F7DD2641CD3
:10482000042CDDDB06990846FBF751FD029904468E
:104830000846FBF74CFD2146FBF7F1FC0A99FBF714
:1048400043FD0E90002083460190824607460124D6
:10485000009002A8029950F824603046FBF731FD21
:104860000121FBF7A4FD814606A8069950F82450C3
:104870002846FBF726FD0121FBF799FD80462946D6
:104880000846FBF724FD054631460846FBF71FFDA9
:104890002946FBF7C4FC0AA951F82410FBF714FDC4
:1048A0000E99FBF70EFD054649460846FBF70FFD3E
:1048B0000199FBF7B4FC019041464846FBF707FD20
:1048C0005946FBF7ACFC834641460846FBF7FFFC24
:1048D0000099FBF7A4FC009029464846FBF7F7FC3B
:1048E0005146FBF79CFC824629464046FBF7EFFC0D
:1048F0003946FBF794FC641C0746042CA9DB594697
:104900000846FBF7E4FC0446DDE90010FBF7DFFC9A
:104910002146FBF7D6FC044600E004E0184920F0ED
:104920000040884203DA002013B0BDE8F08F39461A
:104930005846FBF7CCFC054651460098FBF7C7FCF0
:104940002946FBF7BEFC2146FBF7F3FC11990860F2
:1049500051465846FBF7BBFC054639460198FBF724
:10496000B6FC2946FBF7ADFC2146FBF7E2FC1299A9
:1049700008600120D8E700002453000800C8AF43B6
:10498000BD3786351FB5044600216A46084600F04B
:1049900005F85DF8240004B010BD00002DE9F74FC4
:1049A000DFF8648017460024A8F1200908F1100AF6
:1049B000A8F1100B58F824100098FBF730FC59F8B8
:1049C0002410FBF781FC05465AF824100198FBF7E8
:1049D00026FC5BF82410FBF777FC0146FBF777FC1D
:1049E000064629460846FBF772FC3146FBF717FCE2
:1049F0000649FBF714FC00F06FFC47F82400641C28
:104A0000042CD7DBBDE8FE8F2453000800C8AF4359
:104A100020F000420548824205DC21F0004181423D
:104A200001DC012070470020704700000000B04109
:104A3000FDF700F8FEF768FEFEF78CF9FEF774F953
:104A4000FEF71CFFFEF7F8F9FEF74AFAFEF764FAE4
:104A5000FEF77EFAFEF710FA00F09EF8012000F053
:104A60007EF800BFFEF722FFFCE70000F0B5154618
:104A70000C460A4691B001461E466846FBF786FB87
:104A80002146684600F052F80DF804000DEB0401D1
:104A9000000A4870A41CA4B22348FDF791FC3223FD
:104AA000224669462048FDF746FF10B1012011B0AB
:104AB000F0BD0024FCF728FE074612E00523012282
:104AC00010A91948FDF7DEFE58B99DF84000285599
:104AD000641CA4B2022C04D36878000601D5052C0E
:104AE00006D2FCF711FEC01B502801D2B442E5D318
:104AF000B44206D2022C02D36878000604D4022005
:104B0000D5E76878000601D50420D0E7B01E81B251
:104B1000284600F00BF8A91931F8021C884201D090
:104B20000320C4E70020C2E78801002070B50546D5
:104B30004FF6FF7000224AF201040DE0AB5C5840D2
:104B40000023C6074FEA500000D060405B1CDBB278
:104B5000082BF6D3521C92B28A42EFD370BD70B5C7
:104B600000250646012400223146204600F03EFA88
:104B700000B105461420FCF7AFFC641CE4B2042C21
:104B8000F1D9284670BD0000024A136803605068DE
:104B900008607047040000200A4910B50020086032
:104BA0004860094A0146FFF7F9FE0749002001F174
:104BB000100200BF51F8203042F82030401C042879
:104BC000F8DB10BD04000020880300202DE9F34F1E
:104BD0009DB0DDE91D01FFF71BFF00285DD0DDE979
:104BE0001D0111AAFFF7DAFE4FF000099D4E4C4659
:104BF0000DAF11AD56F8241055F82400FBF761FBFA
:104C000047F8240020F0004080464946FBF746FC68
:104C100000D2C146641C042CECDB4846FBF70EFCBA
:104C200082468B461098FBF709FC044688460F988D
:104C3000FBF704FCCDE900010E98FBF7FFFB0491A4
:104C400018900D98FBF7FAFB19911C901E98FBF732
:104C5000F5FB1A9017911D98FBF7F0FB024608A888
:104C60000B4680E8100DDDE90001CDE9060104994D
:104C70001898CDE9040119991C98CDE902011799FA
:104C80001A98CDE9000178A0FFF7A0F8834989457B
:104C900013DA83A0FFF79AF8E1E01E98FBF7CEFB4A
:104CA00004460D461D98FBF7C9FB02460B467FA044
:104CB000CDE90045FFF78AF8C2E00024DFF810A232
:104CC000A046601CC0B202900DA850F8240010F15C
:104CD000FF4F01D2012100E0002120F000470491A4
:104CE00051463846FBF7F3FA4FF07C51FBF797FA41
:104CF000FBF790FB834649463846FBF71AFB75499C
:104D0000884200DA08467449FBF7E1FAFBF782FBB8
:104D10000204120C00D101220121CDE900815B4681
:104D20000499029800F08EF9C7B2384600F0EEF907
:104D300002466AA00299FFF749F837B16BA0FFF766
:104D400045F838461FB0BDE8F08F1420FCF7C4FBCF
:104D5000641C042CB5DB00F003FA040007D000F05B
:104D6000D5F901466BA0FFF731F82046EAE7514636
:104D70004846FBF7ACFA4FF07C51FBF750FAFBF7D3
:104D800049FBFBF729FB6949FBF7D3FA5249FBF7CB
:104D90009EFAFBF73FFB4FF4487200F2DC5042F6FC
:104DA000E061904201D2104602E0884200D90846F4
:104DB000FCF792FB4FF0010900274C4606A920465C
:104DC000CDF8188000F075F948B100F09FF902465F
:104DD000214657A0FEF7FAFF4FF0000922E005EB4D
:104DE000840050F8041C1F48103000EB840050F879
:104DF000040CFBF766FA5146FBF769FAFBF7F1FA88
:104E0000069A0346D11A01D5484200E00846B84246
:104E100000DD0746009121464BA0FEF7D7FF142086
:104E2000FCF75AFB641CE4B2042CC7D9B9F1000F9B
:104E300002D0B7F5967F05DD39464CA0FEF7C6FFD8
:104E400004207FE756481D9901601E9941600020AB
:104E500055F8201046F82010401C0428F8DB0020EC
:104E600070E70000880300206D6F766528252E31DD
:104E7000662C252E31662920644C3D252E32662075
:104E8000252E326620252E326620252E32662020E1
:104E9000646D61783D252E32660D0A000AD7233CE9
:104EA0002020736B69700D0A0000000052454A45CE
:104EB00043542028252E31662C252E316629206F5B
:104EC0007574206F662072616E67650D0A000000C0
:104ED000246B8844CDCC4C3D00007A442020627580
:104EE00066206D25643A2025730D0A002020627526
:104EF00066666572204641494C202D3E204E4F206B
:104F0000747269676765722C2061626F72740D0A32
:104F100000000000202074726967676572204641B6
:104F2000494C3A2025730D0A000000000080BB4563
:104F300020206D25642072656164204641494C3A09
:104F40002025730D0A00000020206D256420706F5D
:104F5000733D256C6420206578703D256C642020AD
:104F6000286572723D256C64290D0A002020564583
:104F700052494659204641494C20286D61787C654C
:104F800072727C3D256C6429202D3E206D6F646516
:104F90006C204E4F5420757064617465640D0A0076
:104FA0000400002010B50124204600F003F914206D
:104FB000FCF792FA641CE4B2042CF5D909490020EC
:104FC000094A086048600146FFF7E8FC06490020EE
:104FD00001F1100251F8203042F82030401C042822
:104FE000F8DB10BD040000208803002000B587B066
:104FF000E0238DF8000010208DF8010000208DF8CE
:1050000002008DF803308DF8040002238DF805307E
:1050100004238DF80630AB238DF8073001B1012150
:105020008DF808100AB1012100E000218DF8091067
:105030008DF80A00082304AA0B216846FFF716FD25
:1050400007B000BDF0B589B0F027DDE90E568DF848
:10505000000010208DF8010000208DF802008DF86E
:1050600003708DF8040005278DF805700A278DF868
:1050700006708DF807008DF80810100A8DF80900E9
:105080008DF80A20180A1C0C8DF80B008DF80C30D6
:10509000200A8DF80D008DF80E408DF80F508DF818
:1050A00010601121082306AA6846FFF7DFFC09B04B
:1050B000F0BD10B586B00C468DF80000032000212D
:1050C0008DF801008DF802108DF8041046228DF83D
:1050D00003208DF805000B2302AA06216846FFF77E
:1050E000C5FC00280FD1BDF80B00BDF80F1042BA67
:1050F000BDF80D0049BA40BA40EA0140012A00D18A
:1051000040422060002006B010BD000005280ED2ED
:10511000DFE800F0030507090B0006A0704706A0B2
:10512000704707A0704708A0704709A070470BA000
:10513000704700004F4B000054585F4641494C00F7
:1051400054494D454F5554004352435F424144003A
:1051500052454A4543544544000000003F000000CA
:105160001CB500208DF8000006218DF801108DF887
:105170000200FF218DF8031066218DF804108DF8D0
:10518000050006216846FFF7D1FC8DF80600000AED
:105190008DF807000648FDF713F932230822694607
:1051A0000348FDF7C8FB002800D001201CBD00000B
:1051B000880100201FB50A218DF8000006208DF817
:1051C000010000208DF802008DF8040001208DF808
:1051D00003108DF80500082302AA06216846FFF790
:1051E00045FC04B010BD00002DE9F0470646FCF771
:1051F0008BFA2F4C80462C2120643046FAF7EAFFC8
:10520000050002D0002005F8010BB14629A1304667
:10521000FAF7EAFF012798B1002D1AD02846FFF7C8
:1052200087FAFBF71EF906462C212846FAF7D2FF2B
:1052300088B1401CFFF77CFAFBF713F905460BE039
:105240001DB12846FAF7DEFF00E00020A06384F8D5
:105250003C70BDE8F087002517A14846FAF7C4FF67
:10526000A0B117A14846FAF7BFFFA8B116A148465A
:10527000FAF7BAFFB0B116A14846FAF7B5FF002811
:10528000E7D1C4E90B6584F83470E2E7C4E900654E
:105290002772C4F80C80DCE7C4E904652776C4F8FB
:1052A0001C80D6E7C4E9086584F82870D1E70000BF
:1052B00044030020484200004C4153455200000086
:1052C0004649524500000000434952434C45000006
:1052D00054494C540000000070B50546FBF7EDF949
:1052E000044620F00040C0F1FF40C00F08D025F078
:1052F0000040C0F1FF40C00F04BF0120FEF7BAFD1F
:10530000204670BD0000F0C10000F0410000F041F7
:105310000000F0C10000F0C10000F0410000F0C149
:105320000000F041000088C0000088400000884074
:10533000000088C0000050C000005040000050C075
:1053400000005040000070C100007041000070413A
:10535000000070C1000000000000704100007041BA
:10536000000070C1000070C10000000000000000DB
:105370000000080808080800003636000000201069
:10538000080402000060600000003E5149453E00F4
:1053900000427F4000004261514946002141454B97
:1053A00031001814127F10002745454539003C4A4A
:1053B0004949300001710905030036494949360061
:1053C000064949291E007E1111117E007F49494975
:1053D00036003E41414122007F4141221C007F496D
:1053E000494941007F09090901003E4149497A00C4
:1053F0007F0808087F0000417F4100002040413FB6
:1054000001007F08142241007F40404040007F029D
:105410000C027F007F0408107F003E4141413E00A6
:105420007F09090906003E4151215E007F091929C3
:10543000460046494949310001017F0101003F40D2
:1054400040403F001F2040201F003F4038403F00A9
:105450006314081463000708700807006151494588
:105460004300020151090600010202030405060778
:1054700008090A0B0C0D0E0F1010000000000000B0
:1054800000000102030406070809000000000102F1
:1054900003040040404040404040404041414141C1
:1054A00041404040404040404040404040404040FB
:1054B000404040050202020202020202020202020F
:1054C0000202022020202020202020202002020290
:1054D0000202020290909090909010101010101004
:1054E00010101010101010101010101010100202D8
:1054F0000202020288888888888808080808080844
:105500000808080808080808080808080808020227
:105510000202400093540008503100005032000055
:105520005033000050340000503500004C55000846
:10553000000000205C000000543E0008A855000850
:105540005C0000204C0B0000643E000800000000DE
:10555000000000000000000000000000000000004B
:10556000000000010000000000000000000000003A
:1055700000000000000000000000000018550008B6
:105580001C5500082055000824550008285500081F
:1055900001000000100000000000000000127A006E
:0855A000000000000000000003
:0400000508000131BD
:00000001FF
