:020000040800F2
:100000004807002049010008A727000843250008E9
:10001000A5270008850D0008212D0008000000001C
:10002000000000000000000000000000AB270008F6
:10003000BF0D000800000000A9270008AD27000838
:100040006301000863010008630100086301000800
:1000500063010008630100086301000863010008F0
:1000600063010008630100086301000863010008E0
:1000700063010008630100086301000863010008D0
:10008000890D00086301000863010008630100088E
:1000900063010008630100086301000863010008B0
:1000A00063010008630100086301000863010008A0
:1000B00011280008630100086301000863010008BB
:1000C0006301000863010008630100086301000880
:1000D0006301000863010008092D0008152D0008C0
:1000E0006301000863010008630100086301000860
:1000F0006301000863010008630100086301000850
:10010000630100086301000863010008630100083F
:10011000630100086301000863010008630100082F
:10012000630100086301000863010008630100081F
:10013000DFF810D000F04EFB00480047CD36000835
:10014000AFF3008048070020064880470648004774
:10015000FEE7FEE7FEE7FEE7FEE7FEE7FEE7FEE777
:10016000FEE7FEE70F28000831010008202A04DB23
:10017000203A21FA02F00021704721FA02F3D04020
:10018000C2F120029140084319467047D2B201E003
:1001900000F8012B491EFBD270470022F6E710B58C
:1001A00013460A4604461946FFF7F0FF204610BDE5
:1001B000CAB2401E10F8011F8A4202D00029F9D1AC
:1001C0000020704710B5002200E0521C835C8C5C5C
:1001D000A34201D1002BF8D1D8B2E1B2401A10BD30
:1001E00070B5064602F0BEFD046805460A220021ED
:1001F000304600F0C7F82C6070BD00F0004230F0CF
:1002000000400AD0C10D01F56071C0F3160042EA4A
:100210000151C20840071143704700200146704752
:1002200001F0004330B421F0004150EA010206D051
:100230000A0DA2F56072C1F31301002A02DC30BC82
:1002400000207047440F44EAC104C100E01830BCEC
:1002500000EBC25000F0CEB830B50B46014600208E
:100260002022012409E021FA02F59D4205D303FA78
:1002700002F5491B04FA02F52844151EA2F10102F9
:10028000F1DC30BD2DE9F05F0546002092469B462B
:1002900088460646814640241BE02846414647469C
:1002A0002246FFF763FF53465A46C01A914110D3C6
:1002B00011461846224600F09FFA2D1A67EB0108F6
:1002C0004F4622460120002100F096FA17EB000964
:1002D0004E41201EA4F10104DFDC484631462A4687
:1002E0004346BDE8F09F00000FB4002300B589B07D
:1002F0000CA900910B996FF00042CB601E4B069346
:100300001E4B07930423CDE901321D4A0892024691
:100310006B46002000F034FB09B05DF814FB70B5AB
:1003200086B006464FF0FF300091CDE90101002074
:1003300015460C4604903246694604A8FFF7D4FFE0
:1003400002460498211825B108B1084600E020466D
:100350002860049800280DD0002A02DD0098884209
:1003600008D0081B0094CDE901043246694604A870
:10037000FFF7BAFF06B070BDB90B0008D70B000835
:10038000450800082DE9F04791460F46804604468F
:10039000002614F8015B2DB100F050FA0068405DB2
:1003A000C007F6D12B2D02D02D2D18D0641E4A4641
:1003B0003946204600F020FC27B13968A14201D11E
:1003C000C7F8008071054FF002040BD540420028A9
:1003D00003DD02F0C7FC0460A007BDE8F08746F427
:1003E0008066E4E70028F8DA02F0BCFC04606FF0F5
:1003F0000040F2E70029A8BF7047401C490008BF31
:1004000020F00100704710B4B0FA80FC00FA0CF044
:1004100050EA010404BF10BC704749B1CCF120047C
:1004200021FA04F411FA0CF118BF01212143084309
:10043000A3EB0C01CB1D4FEA00614FEA102042BF35
:10044000002010BC704700EBC35010440029A4BF2B
:1004500010BC7047401C490008BF20F0010010BCD0
:1004600070472DE9FE4F804681EA0300C00F0C461D
:10047000009021F0004123F00045B8EB0200A941B3
:1004800005D24046214690461C460B46024623F0C4
:100490000040104347D0270DC7F30A00C3F30A51A9
:1004A0000290401A019040286BDAC3F3130040F425
:1004B000801B0098924620B10023D2EB030A63EB25
:1004C0000B0B01985946C0F14002504600F094F9D8
:1004D00006460D4650465946019A00F09CF910EB2D
:1004E00008006141002487EA115284EAE7731A4345
:1004F00040D0009A62B3019A012A4FEA075215DCF4
:10050000001B61EB02014FF0004202EA0752CDE905
:100510000042001C41F5801132462B4600F0CAFB18
:1005200003B0BDE8F08F40462146F9E7001B61EBC0
:100530000201001C41F5801300185B412018A2F550
:10054000001747EB030140EAD570B6196D4111E081
:100550006D084FEA360645EAC0754FEA0752001BA0
:1005600061EB0201001C41F5801149084FEA30009F
:100570000019514132462B4603B0BDE8F04F00F060
:100580008ABB0098012240000023D0EB020263EBFB
:10059000E073009821464FEAE074B8EB000061EB8D
:1005A0000401E9E783F000435BE781F0004158E78D
:1005B0002DE9FE4F81EA030404F0004421F00041DC
:1005C00000944FF0000B23F0004350EA01045ED08A
:1005D00052EA03045BD0C3F30A54C1F30A552C4416
:1005E000A4F2F3340194A0FB0254C1F3130141F4CB
:1005F0008011C3F3130343F4801301FB024400FB97
:10060000034E840A970A44EA815447EA8357A4FBBD
:10061000076802958D0A05FB07854FEA932C04FBBA
:100620000C542705029D4FEA065847EA1637B5EBEA
:1006300008056EEB070C870E920E47EA811742EA17
:100640008312A7FB0201B6EB0B0164EB00042B0D38
:1006500043EA0C335E1844EB1C50DA465146E7FB84
:100660000201C5F313044FEA0B3343EA14534FEA74
:100670000432019C43EA0603A4F10C040294009C9A
:10068000CDE900B400F016FB03B0BDE8F08F002008
:100690000146F9E72DE9F04D81EA030404F0004B2F
:1006A00021F0004514464FF0000A23F0004150EAC3
:1006B000050220D054EA01021DD0C5F30A570246B4
:1006C000C5F31303C1F31300C1F30A5640F48015B8
:1006D00043F48013A7EB0608101BD64608F2FD383A
:1006E00073EB050002D308F1010801E092185B41A9
:1006F000B8F1000F03DA00200146BDE8F08D0020BC
:100700004FF48011064684460EE0171B73EB050775
:1007100005D3121B63EB050306434CEA010C4908A1
:100720004FEA300092185B4150EA0107EDD152EADE
:10073000030012D082EA040083EA0501084305D0D1
:10074000101BAB4106D20122002306E000224FF02D
:10075000004302E06FF0010253101AEB06004CEB6D
:10076000085110EB0A0041EB0B01BDE8F04D00F021
:1007700092BAC1F30A52C1F3130140F2FF3341F4BC
:1007800080119A4202DA00200146704740F233435A
:100790009A42A2F2334202DC5242FFF7E7BC00F079
:1007A0002BB8000030B5041E71F1000404DB4FF0DB
:1007B0000044404264EB0101141E73F1000405DBA8
:1007C0001C464FF00043524263EB0403994208BFBA
:1007D000904230BD064C074D06E0E06840F0010352
:1007E00094E8070098471034AC42F6D3FFF7A4FC16
:1007F000203A0008403A0008202A04DB203A00FA98
:1008000002F1002070479140C2F1200320FA03F367
:10081000194390407047202A06DBCB17203A41FA53
:1008200002F043EAE07306E041FA02F3D040C2F17D
:100830002002914008431946704700000048704765
:100840001C3A000810B50446FFF7F8FF0068005D89
:1008500000F0010010BD00002DE9FF4F087883B0C3
:100860009946FF2805D0491C2D2804D000240020DB
:1008700008E000200BE00124F9E700EB800003EB27
:100880004000491C0B78FF2BF7D104B140420023F4
:100890000293147819461D462D2C01D02B2C04D11F
:1008A000521C2D2C13D000240294AA461478FF2C3D
:1008B0000FD00A25A3FB057801FB05814FF0000C42
:1008C00003FB0C11521CE3194AEB0101EEE7012472
:1008D000EAE7814453EA010002D019F5C87F06DA3D
:1008E00003980021C0E9001107B0BDE8F08F002592
:1008F000AE4E2F46DFF8B882184600F037FACDE941
:100900000001B9F1000002DAC9F1000400E0044678
:100910000023A74A1AEB030B42EB045A12E0E0074C
:1009200007D02A46334638464146FFF741FE074680
:1009300088462A46334610461946FFF739FE0546D3
:100940000E466410002CEAD1DDE90001B9F1000F78
:100950005A46534606DAFFF79DFE3A464346FFF7EE
:1009600099FE05E0FFF724FE3A464346FFF720FED6
:10097000029A0AB181F00041039AC2E90001B3E78B
:100980002DE9FF4F1F468DB0D7E901464FF0FF38E4
:100990002E2045464FF000090B90B9696D1C0E984A
:1009A0008847396A824688470028F6D1BAF1FF3F66
:1009B0000AD024F4D064002E11DDBAF12B0F08D038
:1009C000BAF12D0F0BD102E0404611B08DE744F48F
:1009D0008064B9696D1C0E9888478246761E694608
:1009E000600501D52D2000E02B208DF8000001F1DD
:1009F000010B0DF1200809E0B9696D1C0E988847BC
:100A000082460F9844F40074761E0560002E02DDC5
:100A1000BAF1300FF0D00B998A453ED144F08004F2
:100A200006E00F99681CA9F1010944F400740860FC
:100A3000B9696D1C761E0E98884782463028F0D022
:100A40002BE00B998A4505D1200603D444F080049D
:100A5000761E18E0504602F067FA08B30DF1130154
:100A6000761E44F400748B4508D2AAF130000BF8CE
:100A7000010B200607D5A9F1010003E0200602D4EE
:100A800009F101008146A00502D50F99681C086094
:100A9000B9696D1C0E9888478246002ED1DC53E060
:100AA000002E51DDBAF1650F02D0BAF1450F4BD1DE
:100AB000A00549D5B9696D1C24F44074761E0E98C2
:100AC00088478246002E0CDD2B2804D0BAF12D0F6A
:100AD00007D144F48074B9696D1C0E98884782462A
:100AE000761EE00501D52D2100E02B2108F8011B21
:100AF000CDF82C8021E00DF12901761E44F400741C
:100B000088450CD2AAF1300010F0FF0088F80000F0
:100B100002D10B99884509D908F1010806E0E005E2
:100B200001D5244801E042F20F708146B9696D1C7D
:100B30000E98884782460F980560002E04DD5046C7
:100B400002F0F2F90028D6D1F9690E988847FF2003
:100B50008BF8000088F800000020069007904B46B4
:100B60006A4608A906A8FFF777FEA00502D46FF031
:100B700001002AE714F0240F0AD0E00714D1DDE9C0
:100B800006123868031D3B600068C0E900120BE0E4
:100B9000DDE90601FFF744FB0146E00704D13868B0
:100BA000021D3A600068016028460EE7000014400C
:100BB0000000F03FF1D8FFFF426842B1016811F830
:100BC000013B23B1521EC0E90012184670470121B3
:100BD000C160881E704742685AB1C368016843B952
:100BE00083688B4205D0491E521CC0E900120020C8
:100BF00070474FF0FF3070472DE9F05F8246007874
:100C0000002715468B460AF10104B946302801D069
:100C10009DB113E014F8010B0127782803D0582860
:100C200001D045B10AE00DB1102D07D100271025E4
:100C300014F8010B02E0082500E00A250026B04662
:100C40000EE005FB080005FB06F1012701EB10464D
:100C50001FFA80F8B6F5803F00D3B94614F8010BAF
:100C6000294600F075F80028EBDABBF1000F05D03B
:100C70000FB1641E00E05446CBF80040B9F1000FFC
:100C800006D002F06FF802210160C81EBDE8F09F97
:100C900048EA0640FAE710B5141E73F1000408DABA
:100CA000401C41F1000192185B411A4301D120F030
:100CB000010010BD2DE9F04D92469B4611B1B1FAED
:100CC00081F202E0B0FA80F220329046FFF794FD04
:100CD00004460F4640EA0A0041EA0B0153465A46D1
:100CE000084313D0114653EA010019D0C8F140025D
:100CF0005046FFF73BFA05460E46504659464246D7
:100D0000FFF77AFD084305D0012004E0204639466C
:100D1000BDE8F08D0020054346EAE0762C433743DA
:100D20000A986305E40AA0EB08000022FD0A44EAE1
:100D300047540A3002D500200146E9E701051019A1
:100D40006941DDE9084500196941BDE8F04DA2E7B8
:100D50003A2800D2303820F02002412A01D3A2F1F3
:100D60003700884201D34FF0FF3070470EB540F294
:100D7000334202920022CDE900221346FFF79AFF88
:100D800003B000BDFEE70000014800F0D7B8000046
:100D90009001002030B590F840500124AC40C56B64
:100DA0006C60046863604368102B036803D099602B
:100DB0000068C26030BD9A600068C16030BD704795
:100DC00072B6FEE710B590F821100022022905D076
:100DD0000421816380F82020012010BD01680B6888
:100DE00023F00E030B6001680B6823F001030B6016
:100DF00090F84030C46B012101FA03F3636080F87E
:100E0000211080F82020104610BD00002DE9F05F71
:100E100090F821100024022903D0042181630124C9
:100E200085E001680A6822F00E020A6001680A681B
:100E300022F001020A603F4E3E4FB215DFF8F4C0C7
:100E4000DFF8F090DFF8ECA0DFF8E8B0DFF8E4E0DE
:100E50000168783F13011502ACF1640CA9F1500947
:100E6000AAF13C0AABF1280BAEF1140E4FF4801836
:100E7000B14227D9B9420ED0614512D049451DD0A3
:100E8000514518D0594518D0714501D1424615E059
:100E9000294EB14201D1012210E0274E1436B14251
:100EA00001D110220AE0244E2836B14206D0224A4F
:100EB0003C32914201D11A4600E02A461E49091FE0
:100EC0000A602BE0B94213D0614517D0494522D0C2
:100ED00051451DD059451DD0714501D142461AE0FA
:100EE000B14202D14FF0807215E0134EB14201D1F0
:100EF000012210E0104E1436B14201D110220AE056
:100F00000D4E2836B14206D00B4A3C32914201D1F7
:100F10001A4600E02A46074980394A60012180F8D4
:100F20002110002180F82010416B01B18847204634
:100F3000BDE8F09F80000240080402402DE9F05F08
:100F4000C16B0A6801680B68046C4FF0040808FA6A
:100F500004F8844D844E854FDFF814C2DFF81492F4
:100F6000DFF814A2DFF814B2DFF814E218EA020F77
:100F700065D05FEA437862D50A68920603D40A68AE
:100F800022F004020A60DFF8F0814FF48062016809
:100F900008F1140813011402414524D9A9420DD0C7
:100FA000B1420FD0B9421AD0614515D0494515D08C
:100FB000514501D1120312E0594501D104220EE03E
:100FC000714501D140220AE06D4D1435A94206D089
:100FD0006B4A2832914201D11A4600E02246674905
:100FE000091F0A6029E0A94213D0B14215D0B942C5
:100FF00020D061451BD049451BD0514502D14FF44B
:10100000800217E0414502D14FF0806212E059455D
:1010100001D104220EE0714501D140220AE0584D71
:101020001435A94206D0564A2832914201D11A46B7
:1010300000E022464B4908394A60C16A71E04FF02E
:10104000020808FA04F818EA020F70D05FEA837801
:101050006DD50A68920606D40A6822F00A020A6070
:10106000012180F82110DFF810814FF4007201682F
:1010700008F1140813011402414524D9A9420DD0E6
:10108000B1420FD0B9421AD0614515D0494515D0AB
:10109000514501D1120312E0594501D102220EE05F
:1010A000714501D120220AE0354D1435A94206D000
:1010B000334A2832914201D11A4600E022462F4994
:1010C000091F0A6029E0A94213D0B14215D0B942E4
:1010D00020D061451BD049451BD0514502D14FF46A
:1010E000001217E0414502D14FF0007212E059455D
:1010F00001D102220EE0714501D120220AE0204DEB
:101100001435A94206D01E4A2832914201D11A460E
:1011100000E02246134908394A60002180F8201077
:10112000816A00291CD0BDE8F05F0847FFE7082569
:10113000A540154214D01A0712D50A6822F00E02F3
:101140000A6090F84020C36B012101FA02F25A6054
:10115000816380F82110002180F82010016BE0E706
:10116000BDE8F09F080002401C0002403000024031
:1011700044000240580002406C0002400804024053
:101180001C04024030B560B11A4B026814219A4227
:1011900009D2194B1344B3FBF1F1890001641749DB
:1011A0000AE0012030BD134B5B421344B3FBF1F165
:1011B000890001640F490839C163022180F82110B8
:1011C000136843F6F0718B43F0E901142143D0E931
:1011D00002452C4321430469214344692143846926
:1011E00021431943116000214163012242770177B5
:1011F000084630BD08040240F8FFFDBF0000024071
:1012000070B5044690F82000002501280CD001207C
:1012100084F8200094F821600020012E06D084F884
:1012200020000225284670BD022070BD022684F8E9
:101230002160A0632068066826F00106066020464B
:10124000FFF7A8FDE06A00282068016802D041F09D
:101250000E0106E021F0040101602068016841F000
:101260000A0101602068016841F001010160D9E7CD
:1012700070B5044600F010F90546601C02D0044821
:101280000078044400F008F9401BA042FAD370BD76
:10129000040000202DE9F84FDFF8C8910024A9F1DF
:1012A000040B23460F2709F1040AABF1040ED1E029
:1012B0000125A54006EA0502AA4276D1DFF8A8C1B9
:1012C0004E68A6EB0C0866452BD00DDC032E34D0FF
:1012D00005DC36B3012E19D0022E2FD11BE0112EC2
:1012E00016D0122E2AD119E0B8F5881F19D006DCC5
:1012F000B8F5803F15D0B8F5801F1FD111E0B8F5C3
:10130000001F0ED0B8F5041F18D10AE0CB6815E015
:10131000CB681B1D12E0CB6808330FE0CB680C33A1
:101320000CE08B682BB1012B4FF0080303D0456113
:1013300004E0042302E0056100E00023FF2A01D855
:10134000064601E000F104064FEA840501D9A5F143
:101350002005D6F8008007FA05FC28EA0C0803FAF5
:1013600005F548EA0508C6F800804D68ED0070D51F
:101370003E4DAE6946F00106AE61AD6924F003064C
:1013800005F0010500953A4D06EB050CDCF8085018
:10139000A607360F07FA06F825EA0805DFF8D48015
:1013A000404503D14FF0000825E052E0DFF8C88047
:1013B000404502D14FF001081DE0DFF8C0804045F4
:1013C00002D14FF0020816E0DFF8B480404502D1A8
:1013D0004FF003080FE0DFF8AC80404502D14FF03A
:1013E000040808E0DFF8A080404502D14FF005086E
:1013F00001E04FF0060808FA06F848EA0508CCF8BC
:1014000008804D68D9F80060ED024D4601D51643BD
:1014100000E096432E604D68DAF80060AD02554654
:1014200001D5164300E096432E604D68DBF800605E
:10143000AD035D4601D5164300E096432E604D682E
:10144000DEF80060ED03754601D5164300E09643D3
:101450002E60641C0A681646E2407FF429AFBDE89E
:10146000F88F000008040140000011100010024035
:101470000000014000080140000C01400010014044
:101480000014014000180140001C01400AB1016134
:1014900070470904FBE700000148806870470000BE
:1014A0000400002070B5040025D094F83D0000250C
:1014B00020B984F83C50204600F0B8F8242084F885
:1014C0003D002068016821F0010101602068016889
:1014D00041F4004101602068016821F4004101608D
:1014E00000F000FA4D4A6168914201D84C4900E091
:1014F0004C49884201D2012070BD4B492368B0FBA2
:10150000F1F15E6826F03F060E435E606368934229
:1015100006D94FF4967359434FF47A73B1FBF3F144
:101520002368491C1E6A26F03F0631431962616830
:10153000914210D84900401EB0FBF1F2521CC2F398
:101540000B02042A01D2042022E0B0FBF1F0401C7F
:10155000C0F30B001CE0A268F2B301EBC10303EB84
:101560000116431EB3FBF6F35B1C43F480431B05DB
:1015700049D092B301EBC10202EB0111401EB0FB56
:10158000F1F0401CC0F30B0040F4804040F40040F8
:101590002168CA694CF6FF739A431043C861D4E9C5
:1015A000071001432068026822F0C0021143016065
:1015B000D4E9030101432068826848F2FF339A436B
:1015C00011438160D4E9050108432168CA6822F00B
:1015D000FF021043C86001E00EE016E020680168D9
:1015E00041F0010101602564202084F83D0025635D
:1015F00084F83E50002070BD01EB4106431EB3FB52
:10160000F6F35B1CB3E70120C2E701EB4101401E8A
:10161000B0FBF1F0401CC0F30B00B7E7A08601005F
:1016200080841E0000093D0040420F0010B586B0C6
:101630000021009101910291039100680F498842B5
:101640001AD10F4CA06940F00800A061A06969465A
:1016500000F008000490C0200090122001900320A8
:1016600003900848FFF716FEE06940F40010E061BF
:10167000E06900F40010049006B010BD0054004072
:1016800000100240000C01400248816802781144B9
:101690008160704704000020074810B5016841F0E0
:1016A00010010160032000F075F80F2000F006F82B
:1016B00000F024F8002010BD0020024070B50D4D50
:1016C00004464FF47A712878B1FBF0F00A490968B2
:1016D000B1FBF0F000F0DCFA48B9102C07D2002280
:1016E0002146501E00F036F800206C6070BD0120CD
:1016F00070BD000004000020100000200C4808B558
:10170000816941F001018161816901F0010100916C
:10171000C16941F08051C161C06900F08050009002
:101720000448416821F0E06141F00071416008BD6A
:101730000010024000000140002809DB00F01F02F9
:10174000012191404009800000F1E020C0F8001123
:1017500070470000F0B40E4B1B680C46C3F3022325
:10176000C3F10705042D00D90425191D072901D24D
:10177000002300E0DB1E012606FA05F1491E214088
:1017800099409E40761E16403143F0BC01F0DABA13
:101790000CED00E0064900F0070208684FF6FF0371
:1017A000184040EA0220034A1043086070470000D6
:1017B0000CED00E00000FA052DE9F0470F460500AA
:1017C00061D0434E306800F00700B84209D230685B
:1017D00020F0070038433060306800F00700B8425E
:1017E00051D128683B4C810712D5400703D560686A
:1017F00040F4E06060602878000703D5606840F43A
:10180000605060606068A96820F0F0000843606084
:101810002878C00728D06868012810D021680228DD
:1018200010D0890700292EDA616821F003010143F5
:101830006160FFF731FE804641F288390DE0216892
:101840008903EFE78901EDE7FFF726FEA0EB08012A
:10185000494502D90320BDE8F0876068696800F057
:101860000C00B0EB810FEFD1306800F00700B842F8
:101870000BD9306820F0070038433060306800F042
:101880000700B84201D00120E5E72878400705D5D8
:101890006068E96820F4E060084360602878000729
:1018A00006D56068296920F4605040EAC100606094
:1018B00000F038F86168084AC1F30311515CC84070
:1018C0000649086006480068FFF7F8FE0020C2E7F6
:1018D0000020024000100240823900081000002061
:1018E000080000200448054900684968044AC1F31B
:1018F0000221515CC84070471000002000100240D7
:10190000923900080448054900684968044AC1F34F
:10191000C221515CC84070471000002000100240F6
:10192000923900080E4A51680E4801F00C03042B4E
:1019300011D0082B0FD10C48C1F38343C903C05CFD
:101940000AD55168084AC1F34041921E515C054ACC
:101950005043B0FBF1F07047044948437047000022
:101960000010024000127A007239000800093D00A0
:101970002DE9F84F040070D02078C04DC00749D041
:101980006868C0F38100012807D06868C0F381004F
:10199000022809D16868C00306D52868800339D5B4
:1019A00060680028E7D035E06068B0F5803F0BD074
:1019B00010B1B0F5A02F11D0286820F48030286035
:1019C000286820F4802002E0286840F480302860F5
:1019D000606890B1FFF760FD06460AE0286840F4B1
:1019E00080202860F0E700BFFFF756FD801B6428C9
:1019F00073D828688003F7D50CE0FFF74DFD064645
:101A000005E000BFFFF748FD801B6428F0D8286878
:101A10008003F7D420789A4E80074FF001094FF0E9
:101A2000000839D5686810F00C0F07D06868C0F35B
:101A30008100022809D16868C00306D4286880079D
:101A400014D52069012808D110E02069B0B1C6F88A
:101A50000090FFF721FD074605E00AE1FFF71CFDB6
:101A6000C01B0228C4D828688007F7D52868616998
:101A700020F0F80040EAC10028600DE0C6F80080C0
:101A8000FFF70AFD074604E0FFF706FDC01B02282A
:101A900023D828688007F7D4207800072CD5794808
:101AA000A169D9B1C0F80090FFF7F6FC074604E041
:101AB000FFF7F2FCC01B02280FD8686A8007F7D531
:101AC00071484FF4FA510068B0FBF1F0009000BF8C
:101AD0000098411E0091FAD20EE080E0C0F800802C
:101AE000FFF7DAFC074604E0FFF7D6FCC01B02282C
:101AF00075D8686A8007F7D42078400760D5E86910
:101B00000027C00008D4E86940F08050E861E86927
:101B1000012700F0805000905C480168C90513D48B
:101B20000168834641F480710160FFF7B5FC82468D
:101B300006E000BFFFF7B0FCA0EB0A0064284ED817
:101B4000DBF80000C005F5D5E06801280AD008B12F
:101B5000052813D0286A20F001002862286A20F0A6
:101B6000040002E0286A40F001002862E06841F2C7
:101B7000883B98B1FFF790FC82460BE0286A40F062
:101B800004002862EEE700BFFFF786FCA0EB0A0125
:101B900059455AD8286A8007F6D50CE0FFF77CFC37
:101BA000824605E0FFF778FCA0EB0A0159454CD8C6
:101BB000286A8007F6D41FB1E86920F08050E861F8
:101BC000E06988B36968C1F38101022944D0022821
:101BD000C6F8608004D0FFF75FFC044638E034E0CC
:101BE000FFF75AFC074604E0FFF756FCC01B02282B
:101BF0002BD828688001F7D4206AB0F5803F05D142
:101C00006868A16820F4003008436860D4E90801DE
:101C10000843696821F4741108436860C6F860904D
:101C2000FFF73AFC044606E025E000BFFFF734FC6E
:101C3000001B022809D828688001F7D51BE000BFE7
:101C4000FFF72AFC001B022802D90320BDE8F88F09
:101C500028688001F4D40EE00128F7D06868226A71
:101C600000F48031914204D1616A00F4701088421E
:101C700001D00120EAE70020E8E700000010024060
:101C800000004242800442421000002000700040E8
:101C900010B5401EB0F1807F01D3012010BD4FF080
:101CA000E02460610F21601701F04CF80020A06172
:101CB00007202061002010BD7047704770B590F874
:101CC0003C20012A2CD0012480F83C40022280F8DC
:101CD0003D2003685A689D6822F070060A68324306
:101CE0005A60104B02689A420ED00F4B9A420BD0AA
:101CF000B2F1804F08D00D4B9A4205D00C4B9A425E
:101D000002D00C4B9A4204D1496825F08003194354
:101D1000916080F83D40002180F83C10084670BD7D
:101D2000022070BD002C014000340140000400403E
:101D300000080040000C004010B5040003D094F8E7
:101D40003D0010B107E0012010BD002084F83C00E8
:101D5000204600F01FF8022084F83D00211D206875
:101D600000F05CFD012084F8460084F83E0084F811
:101D70003F0084F8400084F8410084F8420084F871
:101D8000430084F8440084F8450084F83D000020B6
:101D900010BD000008B50068B0F1804F12D10A48AC
:101DA000C16941F00101C161C069002200F0010078
:101DB000009011461C20FFF7CDFCBDE808401C2018
:101DC000FFF7BABC08BD00000010024070B5044621
:101DD00090F83C000025012817D0012684F83C60CB
:101DE000022084F83D002068826822F0770222F405
:101DF0007F4282600868502838D00DDC20284FD000
:101E000005DC90B3102811D14AE0022070BD3028C3
:101E100046D040280AD13BE060282FD070280DD052
:101E2000B0F5805F03D0B0F5005F12D0012584F8D3
:101E30003D60002084F83C00284670BDCB68D1E9A5
:101E40000121206800F038FD2068816841F07701A9
:101E500009E0CB68D1E90121206800F02DFD206860
:101E6000816841F480418160E1E719E0CA6849680E
:101E7000206800F033FD5021206806E0CA684968F8
:101E8000206800F03CFD6021206800F01FFDCEE7D7
:101E9000CA684968206800F021FD40212068F4E705
:101EA000226801461046F0E770472DE9F0410446EC
:101EB0000068C66805694FF00007A90713D5B10788
:101EC00011D5F91E01610120207720688069800703
:101ED000204602D0FFF7E8FF04E000F07EF820463D
:101EE00000F07CF82777680716D5700714D52168AD
:101EF0006FF004000861022020772068806910F4E8
:101F0000407F204602D0FFF7CFFF04E000F065F8E5
:101F1000204600F063F82777280715D5300713D53A
:101F200021686FF008000861042020772068C069EC
:101F30008007204602D0FFF7B7FF04E000F04DF81D
:101F4000204600F04BF82777E80616D5F00614D5A2
:101F500021686FF010000861082020772068C069B0
:101F600010F4407F204602D0FFF79EFF04E000F00F
:101F700034F8204600F032F82777E80708D0F00759
:101F800006D021686FF001000861204600F027F8B4
:101F9000280608D5300606D521686FF08000086154
:101FA0002046FFF789FE680608D5700606D5216829
:101FB0006FF040000861204600F012F8A8060AD52C
:101FC000B00608D521686FF0200008612046BDE802
:101FD000F041FFF772BEBDE8F0817047704770476F
:101FE000704738B5044690F84200202801D00220FE
:101FF00038BD51B14AB10120206300206063204602
:1020000000F000FE216B012901D0012038BD2168BC
:102010000A684968009121680C3151E8002F42F0AC
:10202000100241E80023002BF5D138BD2DE9F04125
:102030000D4600680A490B4C88420FD10A4E002712
:102040006088A8420AD0305C01F00EFB6088401C1A
:1020500080B26080FF28F3D96780F1E7BDE8F081A6
:102060000044004000000020D40100207047000020
:10207000F8B5016804460868CA684B6910F00F0F8C
:102080004FF0000559D003F0010602F49077374372
:1020900065D0C10705D0D10503D5616C41F00101C0
:1020A0006164410705D5D90703D0616C41F0020195
:1020B0006164810705D5D90703D0616C41F0040143
:1020C0006164010707D502F02001314303D0616C40
:1020D00041F008016164616C00293AD0800604D5A2
:1020E000900602D5204600F0D0FC20684069616C63
:1020F000C0F38010090700D460B3204600F090FCC4
:1021000020684069400621D52068143050E8001F3F
:1021100021F0400140E80012002AF5D1E06BA8B19F
:102120006D494163E06BFEF771FE002811D0E06B52
:10213000416B01B0BDE8F040084783060FD5930618
:102140000DD52046BDE8F84000F09FBC2046FFF7C3
:102150008DFFF8BD2046FFF789FF6564F8BD266B4B
:102160002023012E7CD1C6067AD5D60678D50868FC
:102170004868009048694FF00206400640D5E16B80
:10218000086840680004000CE8D0A28D8242E5D9BE
:10219000E085886920282DD020680C3050E8001F89
:1021A00021F4807140E80012002AF5D12068143033
:1021B00050E8001F21F0010140E80012002AF5D18B
:1021C0002068143050E8001F21F0400140E8001260
:1021D000002AF5D184F84230256320680C3050E89D
:1021E000001F21F0100140E80012002AF5D1E06B39
:1021F000FEF7E8FD6663A08DE18D401A81B22AE00A
:10220000A08DE18D401A81B2E08D0028A6D0002972
:10221000A4D022680C3252E8000F20F4907042E8FB
:102220000007002FF5D12068143050E8002F22F06D
:10223000010240E80027002FF5D184F842302563E1
:1022400020680C3050E8002F22F0100240E80023F4
:10225000002BF5D166632046FFF7E8FEF8BDFFE7E7
:1022600005062BD5150629D594F841002128F5D16E
:10227000A068B0F5805F01D12069B0B1206A411C2F
:102280002162216800784860E08C401E0004000C48
:10229000E084E3D12068C16821F08001C16020683A
:1022A000C16841F04001C160D8E7206A0088C0F3EE
:1022B00008004860206A801C2062E5E74006CDD512
:1022C0005006CBD5CA68204622F04002CA6084F886
:1022D000413000F035F9C1E72329000870B504004A
:1022E00004D094F84100002510B106E0012070BD33
:1022F00084F84050204600F023F8242084F8410060
:102300002068C16821F40051C160204600F01EFC25
:102310002068016921F4904101612068416921F040
:102320002A0141612068C16841F40051C1606564BF
:10233000202084F8410084F842006563002070BDCD
:10234000F0B585B0002400940194029403940546EE
:1023500002684B48DFF824C102230321494E0715C8
:10236000624520D1826942F480428261826902F42E
:1023700080420492826942F0040282618069039182
:1023800000F0040004901802CDE9000369463046CD
:10239000FEF780FFCDE90074694630460294FEF7EF
:1023A00079FF05B0F0BDDFF8E0C062453AD1C269FF
:1023B00042F40032C261C26902F4003204928269BE
:1023C00042F0040282618069039100F004000490ED
:1023D0000420CDE9000369463046FEF75BFF082084
:1023E000CDE90004694630460294FEF753FF284EBB
:1023F0002648C6E900048020C6E902402020346156
:10240000C6E905403046F461FEF7BCFE08B1FEF7B0
:10241000D7FCEE630022114626207562FFF79AF979
:10242000262028E01B4DAA42BBD1C26942F480227B
:10243000C261C26902F480220492826942F00802F9
:1024400082618069144D00F00800CDE90310CDE9E8
:10245000007369462846FEF71DFFE814CDE9000425
:10246000694628460294FEF715FF002211462720F0
:10247000FFF770F92720FFF75FF992E70038014076
:102480000010024000080140004400406C0002407F
:102490009001002000480040000C01407047704748
:1024A0002DE9F843044690F84100984616460D463B
:1024B000202802D00220BDE8F88385B17EB100203B
:1024C0006064212084F84100FEF7E6FFA68481467F
:1024D000E684A0682027B0F5805F02D003E00120E9
:1024E000E9E7206910B12E4600250EE000260CE039
:1024F0008021204600F0CEFBA8B9C6B116F8010B2A
:1025000021684860E08C401EE084E08C4B464FF030
:102510000002CDF800800028EAD14FF040012046AB
:1025200000F0B8FB40B184F841700320C3E735F8F0
:10253000020BC0F30800E3E784F841700020BAE71B
:102540007047FEE7094808B5416941F00101416162
:102550004069002200F00100009011461020FFF7B2
:10256000F9F8BDE808401020FFF7E6B80010024077
:102570002DE9F04385B00024324800940194029480
:102580000394816941F020018161816901F020019A
:102590000491816941F010018161816901F01001AC
:1025A0000491816941F004018161816901F00401B4
:1025B0000491816941F0080181618069DFF88880B8
:1025C00000F008000490012202214046FEF75EFF61
:1025D00000224FF480514046FEF758FF0122DFF8F9
:1025E0006C90170239464846FEF750FF2F20012510
:1025F0008DE8310069461648FEF74CFECDE90054DF
:102600000226694648460296FEF744FE41F2020061
:10261000CDE90005CDE9024669464046FEF73AFE9F
:1026200000970396CDE9015469464846FEF732FE0D
:10263000E8038DE8310069464846FEF72BFE05B0F9
:10264000BDE8F08300100240000C0140000801408A
:10265000001001400D4810B50B4901600C49416064
:1026600000214FF480428160C0E903124161816121
:10267000C1610162FEF716FF002803D0BDE81040DB
:10268000FEF79EBB10BD0000005400401C0000205F
:10269000801A060010B586B00024174800940194F3
:1026A0000294039404944FF0804105940160472103
:1026B000C0E9011440F2E731C0E9031480218161CF
:1026C000FFF73AFB08B1FEF77BFB4FF48050009018
:1026D00069460948FFF77AFB08B1FEF771FB0494DD
:1026E00004A905480594FFF7E9FA002801D0FEF790
:1026F00067FB06B010BD0000700000200C4810B54C
:102700000A4901604FF4E1314160002181600C22EF
:10271000C160C0E904128161C161FFF7DFFD0028DB
:1027200003D0BDE81040FEF74BBB10BD00380140A0
:10273000B80000200C4810B50A4901604FF4E1319F
:102740004160002181600C22C160C0E904128161F6
:10275000C161FFF7C3FD002803D0BDE81040FEF7BC
:102760002FBB10BD00440040000100200C4810B5F4
:102770000A4901604FF4E1314160002181600C227F
:10278000C160C0E904128161C161FFF7A7FD0028A3
:1027900003D0BDE81040FEF713BB10BD0048004059
:1027A00048010020FEE7FEE770477047FEF76CBF68
:1027B00030B58FB028216846FDF7EFFC14210AA838
:1027C000FDF7EBFC01210804CDE900100024029480
:1027D00002250491CDE907504FF4E01009906846B6
:1027E000FFF7C6F808B172B6FEE70F20CDE90A057B
:1027F0004FF48060CDE90C4002210AA80E94FEF748
:10280000DBFF002801D072B6FEE70FB030BD704785
:102810000148FFF74ABB000070000020F0B50268D5
:10282000204C214D214E224F224B4FF0804CA04294
:1028300009D0984207D0604505D0A84203D0B042E5
:1028400001D0B84204D122F0700E4A6842EA0E026A
:10285000A04209D0984207D0604505D0A84203D0D5
:10286000B04201D0B84203D122F44075CA682A436D
:102870004D6922F080022A4302608A68C2620A68B7
:102880008262A04201D0984201D10969016301210D
:1028900041610169C90703D0016921F001010161AA
:1028A000F0BD0000002C0140000400400008004082
:1028B000000C00400034014010B5846842EA032255
:1028C00024F47F440A432243826010BD826822F0D0
:1028D00070020A4342F007018160704710B5036A35
:1028E000046A24F001040462846924F0F00444EAD8
:1028F000021423F00A020A438461026210BD10B57B
:10290000036A046A24F010040462846923F0A003BB
:1029100024F4704444EA023243EA01118261016204
:1029200010BD10B5406A0021C185C184FFF79EFB30
:1029300010BD70B5446A2068406994F84110C0F336
:10294000C0100025212904D118B1E584204600F0EB
:102950008EF82068406994F84210C0F38010222954
:1029600004D118B1E585204600F05AF8606C40F0BB
:10297000100060642046FFF779FB70BD10B501467A
:10298000406A096809684FF0000289062ED4C285A2
:1029900001680C3151E8003F23F4807341E80034B2
:1029A000002CF5D10168143151E8003F23F00103F8
:1029B00041E80034002CF5D10168143151E8003FA2
:1029C00023F0400341E80034002CF5D1202180F8A9
:1029D0004210016B012909D101680C3151E8003F17
:1029E00023F0100341E80034002CF5D14263016B61
:1029F000012902D0FFF752FD10BD818DFFF716FBB4
:102A000010BD10B5406A01214163016B012902D05C
:102A1000FFF745FD10BD818D4908FFF707FB10BD8D
:102A200001680C3151E8002F22F4907241E8002334
:102A3000002BF5D10168143151E8002F22F001027A
:102A400041E80023002BF5D1016B012909D1016870
:102A50000C3151E8002F22F0100241E80023002B36
:102A6000F5D1202180F842100021016370470168F0
:102A70000C3151E8002F22F0C00241E80023002B66
:102A8000F5D1202180F84110704708B590F8421028
:102A9000222901D0022008BD82684FF480539A4257
:102AA00001D1016921B1816A9A421BD04AB10AE081
:102AB0000268816A5268C2F308020A80816A891C2E
:102AC00008E0026972B10268526802F07F020A707F
:102AD000816A491C8162C18D491E0904090CC185A6
:102AE00003D01BE002685268F1E70168CA6822F06F
:102AF0002002CA600168CA6822F48072CA60016854
:102B00004A6922F001024A61202180F84210002126
:102B10004163026B012A03D0FFF7C0FC002008BD0F
:102B2000016301680C3151E8002F22F0100241E8E6
:102B30000023002BF5D101680A68D20602D50A6885
:102B400049680091818DFFF771FAE7E770B5044697
:102B500000680169E26821F4405111430161216973
:102B6000A0680843616908432168CA6841F20C63A0
:102B70009A430243CA6020684169A26921F4407106
:102B8000114341611E492068884202D1FEF7BAFE16
:102B900001E0FEF7A7FE00EBC00101EB0012606848
:102BA00064218000B2FBF0F3B3FBF1F36FF0180681
:102BB0007343B2FBF0F5B2FBF0F605EB830532236D
:102BC00003EB0515B5FBF1F5B6FBF1F605F0F005E5
:102BD00005EB0615B2FBF0F6B2FBF0F0B0FBF1F03E
:102BE0006FF01802504306EB800003EB0010B0FBBF
:102BF000F1F0216800F00F002844886070BD0000EB
:102C00000038014038B581620446828500201346B1
:102C10006064222284F84220E56B1B4AAA62E56BBD
:102C20001A4AEA62E56B1A4A2A63E26B50630A4663
:102C30002168E06B091DFEF7E3FA2068016840682F
:102C40000090206948B120680C3050E8001F41F422
:102C5000807140E80012002AF5D12068143050E855
:102C6000001F41F0010140E80012002AF5D1206860
:102C7000143050E8001F41F0400140E80012002AE3
:102C8000F5D1002038BD00007D290008032A000886
:102C9000332900082DE9F843984617460D460446A7
:102CA000089E24E0701C22D0FEF7F6FBA0EB080083
:102CB000B0421AD8CEB12068C168490717D5802D17
:102CC00015D0402D13D00168C94309070FD40168FE
:102CD0000025406800902046FFF7A2FE08206064AF
:102CE00084F840500120BDE8F8830320FBE720680A
:102CF000006835EA000004D00020B842D2D000209D
:102D0000F1E70120F9E700000148FFF7B1B9000041
:102D1000000100200148FFF7ABB900004801002086
:102D2000FEE700000FB4054B10B503A9044A029852
:102D300000F002F910BC5DF814FB0000B536000885
:102D4000140000200907090E002804DB00F1E02030
:102D500080F80014704700F00F0000F1E02080F8C8
:102D6000141D704700487047180000200148006893
:102D7000704700001800002002E008C8121F08C1B8
:102D8000002AFAD170477047002001E001C1121FEC
:102D9000002AFBD17047000001490860704700001D
:102DA000180000202DE9FF5F82B00021DDE904302A
:102DB000020DDDF840B0034318D044F61050A2F2E3
:102DC000FF3242431514119801281FD0A5EB0B00C8
:102DD000401C5FEA000A4FF000064E4FDFF83891C2
:102DE000B046504615D5CAF1000413E011980124ED
:102DF0004AA3012801D16FEA0B010298119AC0E998
:102E00000031C0E9024206B0BDE8F09FCBF10000FE
:102E1000DFE704460021404A491842EB0450CDE95F
:102E2000001012E0E00707D032463B4640464946D4
:102E3000FDF7BEFB8046894632463B4610461946A2
:102E4000FDF7B6FB06460F466410002CEAD1DDE91B
:102E50000401DDE90023BAF1000F06DAFDF7A8FB53
:102E600042464B46FDF7A4FB05E0FDF713FC424646
:102E70004B46FDF70FFC04460E460022284BFDF79B
:102E800091FC03D84FF0FF30014607E00022254BAC
:102E900020463146FDF7E5FAFDF76BFC102409E00A
:102EA000002C0ADB0A220023FDF7ECF9039B3032E9
:102EB0001A55641E50EA0102F2D1641C039AC4F14F
:102EC00011031444119A012A03D0012208430DD1A1
:102ED0000AE0084304D000204FF0110B119072E774
:102EE000A3EB0B056D1E0DE05B4504DD4FF000020A
:102EF00005F1010504E003DA4FF00002A5F1010538
:102F0000002AECD002981199C0E90231C0E90045CD
:102F100079E70000000014400000F03F300000009E
:102F20000000F0430000E03F30380A2801D20120C1
:102F300070470020704700002DE9FF4F95B09A467A
:102F4000884606460025EEE1252877D1002427464D
:102F5000F94A0121039400E0044316F8013F203BA5
:102F600001FA03F01042F7D130782A2811D06FF01F
:102F70002F033078A0F13002092A16D8039A44F0C2
:102F8000020402EB820203EB42021044761C03901F
:102F9000EFE758F8042B0392002A03DA504244F476
:102FA0000054039044F00204761C30782E2816D189
:102FB00016F8010F44F004042A280DD06FF02F02F8
:102FC0003078A0F13003092B09D807EB870302EB17
:102FD0004303C718761CF3E758F8047B761C307857
:102FE0006C280FD006DC4C2817D068280DD06A2832
:102FF00014D104E0742810D07A280FD10DE044F4E5
:1030000000140AE044F4801401E044F4401472789F
:10301000824202D104F58014761C761C3078662832
:103020000BD013DC582877D009DC002875D0452850
:10303000F6D04628F4D047281AD193E118E0632847
:1030400035D0642879D0652812D18BE1702873D0EF
:1030500008DC6728F1D069286FD06E280DD06F2862
:1030600006D1ACE073282CD0752874D0782853D0C2
:103070005246179990476D1C54E1C4F30250022840
:1030800009D003280DD0D8F8001004280DD00D6009
:1030900008F1040846E1D8F80010EA17C1E9005227
:1030A000F6E7D8F800100D80F2E70D70F0E718F899
:1030B000041B8DF8001000208DF80100EB46012064
:1030C00003E058F804BB4FF0FF3061074FF00001F8
:1030D00002D40DE009F101018946B9420FDA8145B8
:1030E000F8DB1BF809100029F4D108E009F101010F
:1030F00089468142FADB1BF809100029F6D10398B2
:103100005346A0EB090721463846179A00F080FA8B
:10311000284400EB090507E044E008E10DE01BF856
:10312000010B524617999047B9F10109F7D253465E
:1031300021463846179AF2E039E00A21C4F30252D8
:103140004FF0000B0091022A06D058F8040BC1176B
:10315000032A09D00AE023E008F1070020F0070263
:10316000F2E80201904605E000B2C117042A01D13D
:1031700040B2C117002906DA0A460021404261EB3D
:1031800002012D2202E0220504D52B228DF8042015
:10319000012203E0E20701D02022F7E7914657E041
:1031A0000A2100E010214FF0000B00910BE01021EC
:1031B0004FF0000B44F004040827009103E00820BE
:1031C0004FF0000B0090C4F30252022A05D058F8C9
:1031D000040B0021032A08D008E008F1070020F0C2
:1031E0000702F2E80201904603E080B2042A00D10F
:1031F000C0B24FF0000922072AD53278702A07D0D2
:10320000DDF800C08CF0100C5CEA0B0C05D00EE071
:1032100040228DF80420012208E050EA010306D084
:1032200030238DF804308DF8052002229146009B52
:1032300083F0080353EA0B030AD150EA010201D1DB
:10324000620705D530228DF804204FF001097F1E5A
:103250003278582A04D039A20C920CAA02920BE0C0
:103260003BA2F9E75B46009AFDF70CF80C9B9B5CD0
:10327000029A521E0292137050EA0102F2D1029891
:1032800004A9081A00F1200B600702D524F4803449
:1032900000E001275F4502DDA7EB0B0000E0002006
:1032A00000EB0B01009003984944401A0390E0039F
:1032B00006D453462146179A039800F0A9F905440D
:1032C000002706E001A85246C05D179990476D1C83
:1032D0007F1C4F45F6DBE0030CD553462146179A79
:1032E000039800F095F9054404E030205246179900
:1032F00090476D1C0099481E00900029F5DC08E0FD
:103300000298029952460078491C029117999047F9
:103310006D1CBBF10001ABF1010BF1DC5BE100F0D6
:1033200065F90544761C307800287FF40DAE19B09D
:103330002846BDE8F08F0000092801003031323303
:1033400034353637383961626364656600000000E1
:1033500030313233343536373839414243444546CB
:1033600000000000600700D4062708F1070020F0E5
:103370000700F0E80223804603F0004C5FEA0C00EF
:1033800001D097A009E0200501D596A005E0E0074F
:1033900001D095A001E0AFF24C001390307823F0FB
:1033A000004365280CD006DC452809D046281DD0EE
:1033B00047287FD13BE0662818D067287AD136E0CD
:1033C0000021112F01DB112000E0781CCDE9000164
:1033D00004A90CA8FFF7E6FCDDE90D010C9A4FF0FB
:1033E000000B07F10109109200914EE04FF00040F0
:1033F0000097CDE9011004A90CA8FFF7D3FCDDE983
:103400000D020C9B0F994FF0000B91461093009208
:1034100011B9791C00EB0109B7EB090003D4C0F125
:10342000FF3B07F10109A9EB0700019042E0012FE2
:1034300000DA01270021112F01DD112000E03846BC
:10344000CDE9000104A90CA8FFF7ACFCDDE90D01F2
:103450000C9A00914FF0000BB946109221070FD43F
:10346000009A4A4503DA914601E0A9F10109B9F150
:10347000010F05DD109AA9F10101515C3029F4D04A
:10348000B84202DA10F1040F03DA0121CDE901108C
:1034900010E0002803DC8344A9EB000102E0411C9A
:1034A000494500DD8946A0EB0B00401C01904FF020
:1034B00000400290200705D40198484502DB4FF0F8
:1034C000FF30019000208DF84B0002980DF14B0762
:1034D000B0F1004F25D002200C902B200D900298C7
:1034E00000280CDA404202902D200D9007E00A21BE
:1034F0000298FCF7B1FE3031029007F8011D0C99DB
:10350000481E0C900029F2DC02980028EFD1791EA9
:103510000D980870307800F0200040F0450007F862
:10352000020D11A8C01BC01D02901398007800B1B5
:10353000012000EB0901019801EBE07102980144C0
:103540000398401A401E0390E00306D453462146D8
:10355000179A039800F05CF805441398007818B1A6
:103560005246179990476D1CE00323D553462146D8
:10357000179A039800F04CF805441BE0BBF1000FCC
:1035800007DB0098584504DD1098179910F80B00D8
:1035900001E0179930205246904701980BF1010B3A
:1035A000401E05F10105019004D12E2052461799C5
:1035B00090476D1CB9F10001A9F10109DEDC05E0BD
:1035C00017F8010B5246179990476D1C0299481E37
:1035D00002900029F4DC53462146179A03989EE690
:1035E0002D0000002B000000200000002DE9F0411C
:1035F000044600251E461746880404D405E03946D3
:103600002020B0476D1C641EF9D52846BDE8F08126
:103610002DE9F041044600251E469046C80301D519
:10362000302700E02027880404D505E041463846CD
:10363000B0476D1C641EF9D52846BDE8F08130B551
:1036400083B00446FFF792FB05460020CDE9000059
:10365000024621466846FCF762FE2846FFF79CFBBF
:10366000DDE9000103B030BD70B500250F4C242802
:1036700011D0617800290DD021460D4A0978232800
:103680000CD00D2806D00A2804D02F290AD2505475
:10369000491C217070BD0120607004E0555404483D
:1036A00000F07EF86570257070BD000000000020FD
:1036B000D402002013B50A23012269460248FEF70E
:1036C000EFFE00981CBD0000B80000201CB5FDF7FF
:1036D000E3FFFFF76DF8FEF74BFFFEF733FFFEF752
:1036E000B9FFFFF70BF8FFF725F8FFF73FF8FEF7F4
:1036F000D1FF00F0CDF81AA0FFF714FB00F0C8F8D6
:1037000017A0FFF70FFB1B4C002700BF00F0E0F8ED
:10371000207A78B127726068FCF76FFD05460E4687
:103720002068FCF76AFDCDE9005602460B4612A060
:10373000FFF7F8FA207E78B127766069FCF75DFD27
:1037400005460E462069FCF758FDCDE900560246B5
:103750000B460EA0FFF7E6FA0520FDF789FDD5E739
:10376000766973696F6E20696E697420646F6E6527
:103770000D0A0000040300204C4153455220252E21
:103780003166202C20252E31660D0A00464952450F
:103790002020252E3166202C20252E31660D0A0092
:1037A0002DE9F0470646FDF777FE2F4C80462C2189
:1037B00020643046FCF7FCFC050002D0002005F830
:1037C000010BB14629A13046FCF7FCFC012798B15A
:1037D000002D1AD02846FFF732FFFCF721FD0646E0
:1037E0002C212846FCF7E4FC88B1401CFFF727FF9A
:1037F000FCF716FD05460BE01DB12846FCF7F0FC72
:1038000000E00020A06384F83C70BDE8F08700254C
:1038100017A14846FCF7D6FCA0B117A14846FCF713
:10382000D1FCA8B116A14846FCF7CCFCB0B116A15A
:103830004846FCF7C7FC0028E7D1C4E90B6584F8CB
:103840003470E2E7C4E900652772C4F80C80DCE755
:10385000C4E904652776C4F81C80D6E7C4E9086586
:1038600084F82870D1E700000403002048420000DB
:103870004C415345520000004649524500000000AB
:10388000434952434C45000054494C540000000049
:1038900010B544210A48FCF780FC0A4900204FF487
:1038A000807248800870487007490848FEF799FB05
:1038B0000648C06B0068016821F00401016010BD7A
:1038C0000403002000000020D4010020000100209B
:1038D000F0B525498DB091F83C00002841D000207A
:1038E00081F83C0024208DF8100048208DF811004C
:1038F00042208DF812002C208DF813008A6B0420D2
:10390000002104AB0A266D461AB1D40F0FD05242E3
:103910000DE030218DF80010012111E092FBF6F747
:1039200006FB172792FBF6F230376F54491C002A2A
:1039300001DD0B29F2DB3CB12D226A54491C03E066
:10394000491E6A5C1A54401C0029F9DC23211954D1
:10395000401C04A91E54401C82B214230348FEF7E5
:103960009FFD0DB0F0BD0000040300200001002009
:10397000010202030405060708090A0B0C0D0E0FCD
:103980001010000000000000000001020304060700
:1039900008090000000001020304004040404040CC
:1039A0004040404041414141414040404040404012
:1039B000404040404040404040404005020202023A
:1039C0000202020202020202020202202020202041
:1039D00020202020200202020202020290909090F9
:1039E00090901010101010101010101010101010D7
:1039F000101010101010020202020202888888883B
:103A00008888080808080808080808080808080836
:103A10000808080808080202020240009B39000852
:103A2000403A0008000000201C000000782D00082B
:103A30005C3A00081C0000202C070000882D0008BC
:103A40000000000001000000100000000000000065
:0C3A500000127A000000000000000000DE
:0400000508000131BD
:00000001FF
