:020000040800F2
:1000000000C000200D5900087156000879560008FC
:10001000815600088956000891560008000000002B
:10002000000000000000000000000000A5560008CD
:100030009956000800000000B1560008BD5600089F
:1000400055590008555900085559000855590008D8
:1000500055590008555900085559000855590008C8
:1000600055590008555900085559000855590008B8
:1000700055590008555900085559000855590008A8
:10008000C956000855590008555900085559000827
:100090005559000855590008555900085559000888
:1000A0005559000855590008555900085559000878
:1000B000DD560008555900085559000855590008E3
:1000C0005559000855590008555900085559000858
:1000D0005559000855590008F15600080557000801
:1000E0005559000855590008555900085559000838
:1000F0005559000855590008555900085559000828
:100100005559000855590008555900085559000817
:100110005559000855590008555900085559000807
:1001200055590008555900085559000855590008F7
:1001300000000000000000000000000000000000BF
:1001400000000000000000000000000000000000AF
:10015000000000000000000000000000000000009F
:10016000000000000000000000000000000000008F
:10017000000000000000000000000000000000007F
:10018000000000000000000000000000000000006F
:10019000000000000000000000000000000000005F
:1001A000000000000000000000000000000000004F
:1001B000000000000000000000000000000000003F
:1001C000000000000000000000000000000000002F
:1001D000000000000000000000000000000000001F
:0401E0005FF8E0F1F3
:1001E80010B5054C237833B9044B13B10448AFF369
:1001F80000800123237010BDDC01002000000000F6
:100208009C23010808B5034B1BB103490348AFF30E
:10021800008008BD00000000E00100209C230108C8
:1002280081F0004102E000BF83F0004330B54FEA9F
:1002380041044FEA430594EA050F08BF90EA020F0C
:100248001FBF54EA000C55EA020C7FEA645C7FEA9F
:10025800655C00F0E2804FEA5454D4EB5555B8BFC2
:100268006D420CDD2C4480EA020281EA030382EA33
:10027800000083EA010180EA020281EA0303362DC5
:1002880088BF30BD11F0004F4FEA01314FF4801C98
:100298004CEA113102D0404261EB410113F0004FAA
:1002A8004FEA03334CEA133302D0524263EB430361
:1002B80094EA050F00F0A780A4F10104D5F1200EFF
:1002C8000DDB02FA0EFC22FA05F2801841F100015A
:1002D80003FA0EF2801843FA05F359410EE0A5F12E
:1002E80020050EF1200E012A03FA0EFC28BF4CF05F
:1002F800020C43FA05F3C01851EBE37101F0004515
:1003080007D54FF0000EDCF1000C7EEB00006EEB21
:100318000101B1F5801F1BD3B1F5001F0CD34908AB
:100328005FEA30004FEA3C0C04F101044FEA445202
:1003380012F5800F80F09A80BCF1004F08BF5FEA89
:10034800500C50F1000041EB045141EA050130BD69
:100358005FEA4C0C404141EB0101013C28BFB1F57B
:10036800801FE9D291F0000F04BF01460020B1FAC6
:1003780081F308BF2033A3F10B03B3F120020CDA99
:100388000C3208DD02F1140CC2F10C0201FA0CF077
:1003980021FA02F10CE002F11402D8BFC2F1200CDC
:1003A80001FA02F120FA0CFCDCBF41EA0C01904092
:1003B800E41AA2BF01EB0451294330BD6FEA0404DB
:1003C8001F3C1CDA0C340EDC04F11404C4F12002C6
:1003D80020FA04F001FA02F340EA030021FA04F3D8
:1003E80045EA030130BDC4F10C04C4F1200220FA2F
:1003F80002F001FA04F340EA0300294630BD21FA6D
:1004080004F0294630BD94F0000F83F4801306BF32
:1004180081F480110134013D4EE77FEA645C18BF26
:100428007FEA655C29D094EA050F08BF90EA020FBD
:1004380005D054EA000C04BF1946104630BD91EAB5
:10044800030F1EBF0021002030BD5FEA545C05D1B8
:100458004000494128BF41F0004130BD14F58004F7
:100468003CBF01F5801130BD01F0004545F0FE416B
:1004780041F470014FF0000030BD7FEA645C1ABFA0
:10048800194610467FEA655C1CBF0B46024650EAD7
:10049800013406BF52EA033591EA030F41F4002103
:1004A80030BD00BF90F0000F04BF0021704730B589
:1004B8004FF4806404F132044FF000054FF000015E
:1004C80050E700BF90F0000F04BF0021704730B51F
:1004D8004FF4806404F1320410F0004548BF4042F4
:1004E8004FF000013EE700BF42004FEAE2014FEA49
:1004F80031014FEA02701FBF12F07F4393F07F4F24
:1005080081F06051704732F07F4208BF704793F026
:100518007F4F04BF41F40021704730B54FF4607439
:1005280001F0004521F000411CE700BF50EA01023C
:1005380008BF704730B54FF000050AE050EA0102E5
:1005480008BF704730B511F0004502D5404261EB55
:1005580041014FF4806404F132045FEA915C3FF496
:10056800D8AE4FF003025FEADC0C18BF03325FEA33
:10057800DC0C18BF033202EBDC02C2F1200300FAE4
:1005880003FC20FA02F001FA03FE40EA0E0021FA09
:1005980002F11444BDE600BF80F0004002E000BF55
:1005A80081F0004142001FBF5FEA410392EA030F56
:1005B8007FEA226C7FEA236C6AD04FEA1262D2EBA0
:1005C8001363C1BFD218414048404140B8BF5B42A5
:1005D800192B88BF704710F0004F40F4000020F03E
:1005E8007F4018BF404211F0004F41F4000121F054
:1005F8007F4118BF494292EA030F3FD0A2F101029E
:1006080041FA03FC10EB0C00C3F1200301FA03F1DB
:1006180000F0004302D5494260EB4000B0F5000FFE
:1006280013D3B0F1807F06D340084FEA310102F1BD
:100638000102FE2A51D2B1F1004F40EBC25008BF6F
:1006480020F0010040EA03007047490040EB000039
:10065800013A28BFB0F5000FEDD2B0FA80FCACF13A
:10066800080CB2EB0C0200FA0CF0AABF00EBC25067
:1006780052421843BCBFD0401843704792F0000F55
:1006880081F4000106BF80F400000132013BB5E7A8
:100698004FEA41037FEA226C18BF7FEA236C21D01E
:1006A80092EA030F04D092F0000F08BF0846704783
:1006B80090EA010F1CBF0020704712F07F4F04D151
:1006C800400028BF40F00040704712F100723CBF64
:1006D80000F50000704700F0004343F0FE4040F48E
:1006E800000070477FEA226216BF08467FEA23634C
:1006F8000146420206BF5FEA412390EA010F40F437
:10070800800070474FF0000304E000BF10F0004382
:1007180048BF40425FEA000C08BF704743F0964369
:1007280001464FF000001CE050EA010208BF704784
:100738004FF000030AE000BF50EA010208BF70470B
:1007480011F0004302D5404261EB41015FEA010C20
:1007580002BF84460146002043F0B64308BFA3F118
:100768008053A3F50003BCFA8CF2083AA3EBC253FA
:1007780010DB01FA02FC634400FA02FCC2F1200219
:10078800BCF1004F20FA02F243EB020008BF20F050
:100798000100704702F1200201FA02FCC2F12002B6
:1007A80050EA4C0021FA02F243EB020008BF20EAAB
:1007B800DC7070474FF0FF0C1CEAD0521EBF1CEAD9
:1007C800D15392EA0C0F93EA0C0F6FD01A4480EAC7
:1007D800010C400218BF5FEA41211ED04FF00063B0
:1007E80043EA501043EA5111A0FB01310CF00040DC
:1007F800B1F5000F3EBF490041EAD3715B0040EA02
:10080800010062F17F02FD2A1DD8B3F1004F40EBD1
:10081800C25008BF20F00100704790F0000F0CF0A4
:10082800004C08BF49024CEA502040EA51207F3A68
:10083800C2BFD2F1FF0340EAC250704740F4000043
:100848004FF00003013A5DDC12F1190FDCBF00F034
:1008580000407047C2F10002410021FA02F1C2F1E2
:10086800200200FA02FC5FEA310040F1000053EA7E
:100878004C0308BF20EADC70704792F0000F00F0CC
:10088800004C02BF400010F4000F013AF9D040EAD2
:100898000C0093F0000F01F0004C02BF490011F466
:1008A800000F013BF9D041EA0C018FE70CEAD15364
:1008B80092EA0C0F18BF93EA0C0F0AD030F0004CE4
:1008C80018BF31F0004CD8D180EA010000F0004098
:1008D800704790F0000F17BF90F0004F084691F056
:1008E800000F91F0004F14D092EA0C0F01D1420290
:1008F8000FD193EA0C0F03D14B0218BF084608D159
:1009080080EA010000F0004040F0FE4040F40000A2
:10091800704740F0FE4040F4400070474FF0FF0C35
:100928001CEAD0521EBF1CEAD15392EA0C0F93EA7C
:100938000C0F69D0A2EB030280EA010C49024FEACE
:10094800402037D04FF0805343EA111143EA101387
:100958000CF000408B4238BF5B0042F17D024FF43F
:10096800000C8B4224BF5B1A40EA0C00B3EB510F1A
:1009780024BFA3EB510340EA5C00B3EB910F24BF03
:10098800A3EB910340EA9C00B3EBD10F24BFA3EB88
:10099800D10340EADC001B0118BF5FEA1C1CE0D150
:1009A800FD2A3FF650AF8B4240EBC25008BF20F003
:1009B800010070470CF0004C4CEA50207F32C2BF57
:1009C800D2F1FF0340EAC250704740F400004FF0F4
:1009D8000003013A37E792F0000F00F0004C02BF25
:1009E800400010F4000F013AF9D040EA0C0093F0EF
:1009F800000F01F0004C02BF490011F4000F013B49
:100A0800F9D041EA0C0195E70CEAD15392EA0C0FB0
:100A180008D142027FF47DAF93EA0C0F7FF470AFE8
:100A2800084676E793EA0C0F04D14B023FF44CAF2B
:100A380008466EE730F0004C18BF31F0004CCAD1C0
:100A480030F000427FF45CAF31F000437FF43CAFFC
:100A58005FE700BF4FF0FF3C06E000BF4FF0010C1E
:100A680002E000BF4FF0010C4DF804CD4FEA400200
:100A78004FEA41037FEA226C18BF7FEA236C11D04A
:100A880001B052EA530C18BF90EA010F58BFB2EBFD
:100A9800030088BFC81738BF6FEAE17018BF40F07D
:100AA800010070477FEA226C02D15FEA402C05D131
:100AB8007FEA236CE4D15FEA412CE1D05DF8040BB6
:100AC800704700BF844608466146FFE70FB5FFF749
:100AD800C9FF002848BF10F1000F0FBD4DF808ED01
:100AE800FFF7F4FF0CBF012000205DF808FB00BFF2
:100AF8004DF808EDFFF7EAFF34BF012000205DF84C
:100B080008FB00BF4DF808EDFFF7E0FF94BF012098
:100B180000205DF808FB00BF4DF808EDFFF7D2FF95
:100B280094BF012000205DF808FB00BF4DF808EDD8
:100B3800FFF7C8FF34BF012000205DF808FB00BFA5
:100B48004FEA40024FEA41037FEA226C02D15FEA92
:100B5800402C08D17FEA236C02D15FEA412C02D1F4
:100B68004FF0000070474FF00100704742000ED26E
:100B7800B2F1FE4F0BD34FF09E03B3EB126209D4D0
:100B88004FEA002343F0004323FA02F070474FF086
:100B98000000704712F1610F01D1420202D14FF0FB
:100BA800FF3070474FF00000704700BF10F8012B6E
:100BB80011F8013B012A28BF9A42F7D0D01A704792
:100BC800034613F8012B002AFBD1181A0138704785
:100BD80070B54FF0FF0C4CF4E06C1CEA11541DBFCB
:100BE8001CEA135594EA0C0F95EA0C0F00F0DEF896
:100BF8002C4481EA030621EA4C5123EA4C5350EA7B
:100C0800013518BF52EA033541F4801143F48013CB
:100C180038D0A0FB02CE4FF00005E1FB02E506F05C
:100C28000042E0FB03E54FF00006E1FB03569CF0B1
:100C3800000F18BF4EF0010EA4F1FF04B6F5007FB7
:100C480064F5407404D25FEA4E0E6D4146EB060629
:100C580042EAC62141EA55514FEAC52040EA5E50B2
:100C68004FEACE2EB4F1FD0C88BFBCF5E06F1ED85C
:100C7800BEF1004F08BF5FEA500E50F1000041EB93
:100C8800045170BD06F0004646EA010140EA020040
:100C980081EA0301B4EB5C04C2BFD4EB0C0541EA62
:100CA800045170BD41F480114FF0000E013C00F377
:100CB800AB8014F1360FDEBF002001F0004170BD9B
:100CC800C4F10004203C35DA0C341BDC04F11404B4
:100CD800C4F1200500FA05F320FA04F001FA05F240
:100CE80040EA020001F0004221F0004110EBD3700D
:100CF80021FA04F642EB06015EEA430E08BF20EA39
:100D0800D37070BDC4F10C04C4F1200500FA04F3DB
:100D180020FA05F001FA04F240EA020001F000416D
:100D280010EBD37041F100015EEA430E08BF20EAE0
:100D3800D37070BDC4F1200500FA05F24EEA020E28
:100D480020FA04F301FA05F243EA020321FA04F057
:100D580001F0004121FA04F220EA020000EBD3700E
:100D68005EEA430E08BF20EAD37070BD94F0000F0E
:100D78000FD101F00046400041EB010111F4801F42
:100D880008BF013CF7D041EA060195F0000F18BFF3
:100D9800704703F00046520043EB030313F4801F2F
:100DA80008BF013DF7D043EA0603704794EA0C0FE9
:100DB8000CEA135518BF95EA0C0F0CD050EA4106FF
:100DC80018BF52EA4306D1D181EA030101F000417C
:100DD8004FF0000070BD50EA410606BF10461946A4
:100DE80052EA430619D094EA0C0F02D150EA0136B0
:100DF80013D195EA0C0F05D152EA03361CBF1046F1
:100E080019460AD181EA030101F0004141F0FE418F
:100E180041F470014FF0000070BD41F0FE4141F413
:100E2800780170BD70B54FF0FF0C4CF4E06C1CEA13
:100E380011541DBF1CEA135594EA0C0F95EA0C0FC8
:100E480000F0A7F8A4EB050481EA030E52EA033583
:100E58004FEA013100F088804FEA03334FF08055A4
:100E680045EA131343EA12634FEA022245EA1115D1
:100E780045EA10654FEA00260EF000419D4208BF82
:100E8800964244F1FD0404F5407402D25B084FEA2F
:100E98003202B61A65EB03055B084FEA32024FF4DB
:100EA80080104FF4002CB6EB020E75EB030E22BF38
:100EB800B61A754640EA0C005B084FEA3202B6EBF8
:100EC800020E75EB030E22BFB61A754640EA5C00A7
:100ED8005B084FEA3202B6EB020E75EB030E22BF37
:100EE800B61A754640EA9C005B084FEA3202B6EB38
:100EF800020E75EB030E22BFB61A754640EADC00F7
:100F080055EA060E18D04FEA051545EA16754FEA58
:100F180006164FEAC30343EA52734FEAC2025FEA76
:100F28001C1CC0D111F4801F0BD141EA00014FF005
:100F380000004FF0004CB6E711F4801F04BF0143D6
:100F48000020B4F1FD0C88BFBCF5E06F3FF6AFAEF2
:100F5800B5EB030C04BFB6EB020C5FEA500C50F182
:100F6800000041EB045170BD0EF0004E4EEA113105
:100F780014EB5C04C2BFD4EB0C0541EA045170BD0C
:100F880041F480114FF0000E013C90E645EA060E50
:100F98008DE60CEA135594EA0C0F08BF95EA0C0F7E
:100FA8003FF43BAF94EA0C0F0AD150EA01347FF4C6
:100FB80034AF95EA0C0F7FF425AF104619462CE79D
:100FC80095EA0C0F06D152EA03353FF4FDAE104600
:100FD800194622E750EA410618BF52EA43067FF451
:100FE800C5AE50EA41047FF40DAF52EA43057FF4E1
:100FF800EBAE12E74FF0FF3C06E000BF4FF0010CEC
:1010080002E000BF4FF0010C4DF804CD4FEA410C4F
:101018007FEA6C5C4FEA430C18BF7FEA6C5C1BD01C
:1010280001B050EA410C0CBF52EA430C91EA030F9D
:1010380002BF90EA020F0020704710F1000F91EAFA
:10104800030F58BF994208BF90422CBFD8176FEAC8
:10105800E37040F0010070474FEA410C7FEA6C5C96
:1010680002D150EA013C07D14FEA430C7FEA6C5C9D
:10107800D6D152EA033CD3D05DF8040B704700BFC9
:101088008446104662468C461946634600E000BF17
:1010980001B5FFF7B7FF002848BF10F1000F01BDE9
:1010A8004DF808EDFFF7F4FF0CBF012000205DF8B4
:1010B80008FB00BF4DF808EDFFF7EAFF34BF012039
:1010C80000205DF808FB00BF4DF808EDFFF7E0FFD2
:1010D80094BF012000205DF808FB00BF4DF808ED23
:1010E800FFF7CEFF94BF012000205DF808FB00BF8A
:1010F8004DF808EDFFF7C4FF34BF012000205DF86C
:1011080008FB00BF4FEA410C7FEA6C5C02D150EA51
:10111800013C0AD14FEA430C7FEA6C5C02D152EAE7
:10112800033C02D14FF0000070474FF001007047B8
:101138004FEA410212F5001215D211D56FF47873F7
:10114800B3EB625212D94FEAC12343F0004343EA9A
:10115800505311F0004F23FA02F018BF4042704775
:101168004FF00000704750EA013005D111F00040FF
:1011780008BF6FF0004070474FF00000704700BF95
:101188004A0011D212F5001211D20DD56FF47873FE
:10119800B3EB62520ED44FEAC12343F0004343EA53
:1011A800505323FA02F070474FF00000704750EA9E
:1011B800013002D14FF0FF3070474FF00000704708
:1011C8004FEA4102B2F1E04324BFB3F5001CDCF161
:1011D800FE5C0DD901F0004C4FEAC0024CEA507099
:1011E800B2F1004F40EB830008BF20F001007047C8
:1011F80011F0804F21D113F13872BCBF01F00040CB
:10120800704741F480114FEA5252C2F11802C2F1FC
:10121800200C10FA0CF320FA02F018BF40F001007D
:101228004FEAC1234FEAD32303FA0CFC40EA0C002F
:1012380023FA02F34FEA4303CCE77FEA625307D16C
:1012480050EA01331EBF4FF0FE4040F440007047A3
:1012580001F0004040F0FE4040F40000704700BF3D
:1012680038B50022002304460D46FFF723FF28B9AE
:1012780020462946BDE8384000F00AB8204605F166
:10128800004100F005F8404261EB410138BD00BF64
:10129800D0B500220B4B06460F46FFF799FCFFF727
:1012A8006FFF0446FFF7FEF80022074BFFF790FC9C
:1012B80002460B4630463946FEF7B6FFFFF760FF99
:1012C8002146D0BD0000F03D0000F04180B400AFE1
:1012D80000BFBD4680BC704780B582B000AF786063
:1012E8007B68002B01D1012341E07B6893F83D30F6
:1012F800DBB2002B06D17B68002283F83C2078689B
:1013080004F016F87B68022283F83D207B681A688F
:101318007B6804331946104600F012FA7B680122F4
:1013280083F846207B68012283F83E207B680122EF
:1013380083F83F207B68012283F840207B680122E4
:1013480083F841207B68012283F842207B680122D0
:1013580083F843207B68012283F844207B680122BC
:1013680083F845207B68012283F83D200023184636
:101378000837BD4680BD80B584B000AF78607B6813
:101388001B68DB68FB607B681B681B69BB60BB680C
:1013980003F00203002B20D0FB6803F00203002BAC
:1013A8001BD07B681B686FF002021A617B68012200
:1013B8001A777B681B689B6903F00303002B03D033
:1013C800786800F0A1F905E0786800F094F9786889
:1013D80000F0A3F97B6800221A77BB6803F00403C6
:1013E800002B20D0FB6803F00403002B1BD07B6884
:1013F8001B686FF004021A617B6802221A777B6807
:101408001B689B6903F44073002B03D0786800F0D5
:101418007BF905E0786800F06EF9786800F07DF9EE
:101428007B6800221A77BB6803F00803002B20D0E2
:10143800FB6803F00803002B1BD07B681B686FF068
:1014480008021A617B6804221A777B681B68DB69CB
:1014580003F00303002B03D0786800F055F905E08A
:10146800786800F048F9786800F057F97B6800223E
:101478001A77BB6803F01003002B20D0FB6803F039
:101488001003002B1BD07B681B686FF010021A61D9
:101498007B6808221A777B681B68DB6903F4407352
:1014A800002B03D0786800F02FF905E0786800F089
:1014B80022F9786800F031F97B6800221A77BB6856
:1014C80003F00103002B0CD0FB6803F00103002B91
:1014D80007D07B681B686FF001021A61786800F01A
:1014E80001F9BB6803F08003002B0CD0FB6803F004
:1014F8008003002B07D07B681B686FF080021A619D
:10150800786800F0AEFABB6803F04003002B0CD0FB
:10151800FB6803F04003002B07D07B681B686FF063
:1015280040021A61786800F001F9BB6803F02003F3
:10153800002B0CD0FB6803F02003002B07D07B683E
:101548001B686FF020021A61786800F081FA00BF0A
:101558001037BD4680BD80B584B000AF7860396073
:101568000023FB737B6893F83C30012B01D10223E5
:10157800B4E07B68012283F83C207B68022283F870
:101588003D207B681B689B68BB60BB6823F07703C2
:10159800BB60BB6823F47F43BB607B681B68BA6889
:1015A8009A603B681B68B3F5005F3ED0B3F5005FF7
:1015B80000F28780B3F5805F00F08680B3F5805F26
:1015C8007FD8702B1AD0702B7BD8602B50D0602B13
:1015D80077D8502B3CD0502B73D8402B58D0402B69
:1015E8006FD8302B64D0302B6BD8202B60D0202BB9
:1015F80067D8002B5CD0102B5AD062E07B68186843
:101608003B6899683B685A683B68DB6800F095F965
:101618007B681B689B68BB60BB6843F07703BB6053
:101628007B681B68BA689A604FE07B6818683B68FB
:1016380099683B685A683B68DB6800F07EF97B680C
:101648001B689A687B681B6842F480429A603CE099
:101658007B6818683B6859683B68DB681A4600F085
:10166800F5F87B681B685021184600F04CF92CE00F
:101678007B6818683B6859683B68DB681A4600F065
:1016880013F97B681B686021184600F03CF91CE0E0
:101698007B6818683B6859683B68DB681A4600F045
:1016A800D5F87B681B684021184600F02CF90CE03F
:1016B8007B681A683B681B681946104600F023F9D6
:1016C80003E00123FB7300E000BF7B68012283F87D
:1016D8003D207B68002283F83C20FB7B18461037AE
:1016E800BD4680BD80B483B000AF786000BF0C37C2
:1016F800BD4680BC704780B483B000AF786000BF3F
:101708000C37BD4680BC704780B483B000AF7860AA
:1017180000BF0C37BD4680BC704780B483B000AFB3
:10172800786000BF0C37BD4680BC704780B483B07A
:1017380000AF786000BF0C37BD4680BC7047000022
:1017480080B485B000AF786039607B681B68FB6047
:101758007B68394A934213D07B68384A93420FD04A
:101768007B68B3F1804F0BD07B68354A934207D032
:101778007B68344A934203D07B68334A934208D14A
:10178800FB6823F07003FB603B685B68FA681343EF
:10179800FB607B68284A934213D07B68274A9342B0
:1017A8000FD07B68B3F1804F0BD07B68244A9342FB
:1017B80007D07B68234A934203D07B68224A93422E
:1017C80008D1FB6823F44073FB603B68DB68FA6868
:1017D8001343FB60FB6823F080023B685B6913439B
:1017E800FB607B68FA681A603B689A687B68DA6213
:1017F8003B681A687B689A627B680F4A934203D0F9
:101808007B680E4A934203D13B681A697B681A6366
:101818007B6801225A617B681B6903F00103002B76
:1018280005D07B681B6923F001027B681A6100BF41
:101838001437BD4680BC7047002C0140003401407D
:101848000004004000080040000C004080B487B04D
:1018580000AFF860B9607A60FB681B6A7B61FB685F
:101868001B6A23F00102FB681A62FB689B693B61F3
:101878003B6923F0F0033B617B681B013A69134322
:101888003B617B6923F00A037B617A69BB68134378
:101898007B61FB683A699A61FB687A691A6200BFE2
:1018A8001C37BD4680BC704780B487B000AFF86075
:1018B800B9607A60FB681B6A7B61FB681B6A23F06E
:1018C8001002FB681A62FB689B693B613B6923F461
:1018D80070433B617B681B033A6913433B617B6937
:1018E80023F0A0037B61BB681B017A6913437B610A
:1018F800FB683A699A61FB687A691A6200BF1C370B
:10190800BD4680BC704780B485B000AF7860396050
:101918007B689B68FB60FB6823F07003FB603A6898
:10192800FB68134343F00703FB607B68FA689A601F
:1019380000BF1437BD4680BC704780B487B000AF85
:10194800F860B9607A603B60FB689B687B617B6983
:1019580023F47F437B613B681A027B681A43BB68A8
:1019680013437A6913437B61FB687A699A6000BF05
:101978001C37BD4680BC704780B485B000AF786026
:1019880039607B6893F83C30012B01D1022350E089
:101998007B68012283F83C207B68022283F83D2083
:1019A8007B681B685B68FB607B681B689B68BB6027
:1019B800FB6823F07003FB603B681B68FA681343FD
:1019C800FB607B681B68FA685A607B681B681B4A67
:1019D800934218D07B681B68194A934213D07B68DE
:1019E8001B68B3F1804F0ED07B681B68154A934281
:1019F80009D07B681B68144A934204D07B681B6833
:101A0800124A93420CD1BB6823F08003BB603B6849
:101A18005B68BA681343BB607B681B68BA689A60E6
:101A28007B68012283F83D207B68002283F83C20F4
:101A3800002318461437BD4680BC7047002C01406F
:101A4800003401400004004000080040000C004041
:101A580080B483B000AF786000BF0C37BD4680BC4F
:101A6800704780B483B000AF786000BF0C37BD46C4
:101A780080BC704780B500AF084B1B68074A43F02D
:101A880010031360032001F0EBFB0F2000F008F8AF
:101A980003F03EFE0023184680BD00BF0020024030
:101AA80080B582B000AF7860124B1A68124B1B7871
:101AB80019464FF47A73B3FBF1F3B2FBF3F318460C
:101AC80001F011FC0346002B01D001230EE07B68D6
:101AD8000F2B0AD8002279684FF0FF3001F0CBFBBA
:101AE800064A7B681360002300E001231846083784
:101AF800BD4680BD00000020080000200400002032
:101B080080B400AF054B1B781A46054B1B6813447D
:101B1800034A136000BFBD4680BC70470800002020
:101B2800F801002080B400AF024B1B681846BD4680
:101B380080BC7047F801002080B584B000AF7860A1
:101B4800FFF7F0FFB8607B68FB60FB68B3F1FF3F0D
:101B580005D00A4B1B781A46FB681344FB6000BF8C
:101B6800FFF7E0FF0246BB68D31AFA689A42F7D833
:101B780000BF00BF1037BD4680BD00BF0800002071
:101B880080B586B000AF78607B68002B01D1012357
:101B980072E27B681B6803F00103002B00F087806A
:101BA800924B5B6803F00C03042B0CD08F4B5B68E3
:101BB80003F00C03082B12D18C4B5B6803F48033C1
:101BC800B3F5803F0BD1894B1B6803F40033002B1E
:101BD8006CD07B685B68002B68D101234CE27B6882
:101BE8005B68B3F5803F06D1804B1B687F4A43F49E
:101BF800803313602EE07B685B68002B0CD17B4B35
:101C08001B687A4A23F480331360784B1B68774A41
:101C180023F4802313601DE07B685B68B3F5A02F75
:101C28000CD1724B1B68714A43F4802313606F4BCD
:101C38001B686E4A43F4803313600BE06B4B1B68E0
:101C48006A4A23F480331360684B1B68674A23F49D
:101C5800802313607B685B68002B13D0FFF762FF5B
:101C6800386108E0FFF75EFF02463B69D31A642B30
:101C780001D9032300E25D4B1B6803F40033002BFA
:101C8800F0D014E0FFF74EFF386108E0FFF74AFF95
:101C980002463B69D31A642B01D90323ECE1534B69
:101CA8001B6803F40033002BF0D100E000BF7B6811
:101CB8001B6803F00203002B63D04C4B5B6803F0F6
:101CC8000C03002B0BD0494B5B6803F00C03082B6B
:101CD8001CD1464B5B6803F48033002B16D1434B71
:101CE8001B6803F00203002B05D07B681B69012BDE
:101CF80001D00123C0E13D4B1B6823F0F8027B684B
:101D08005B69DB00394913430B603AE07B681B6968
:101D1800002B20D0364B01221A60FFF703FF3861F1
:101D280008E0FFF7FFFE02463B69D31A022B01D9F0
:101D38000323A1E12D4B1B6803F00203002BF0D015
:101D48002A4B1B6823F0F8027B685B69DB00274994
:101D580013430B6015E0264B00221A60FFF7E2FEE2
:101D6800386108E0FFF7DEFE02463B69D31A022B12
:101D780001D9032380E11D4B1B6803F00203002BEC
:101D8800F0D17B681B6803F00803002B3AD07B680E
:101D98009B69002B19D0174B01221A60FFF7C2FE6E
:101DA800386108E0FFF7BEFE02463B69D31A022BF2
:101DB80001D9032360E10D4B5B6A03F00203002B9A
:101DC800F0D0012000F0CEFA1CE00A4B00221A6085
:101DD800FFF7A8FE38610FE0FFF7A4FE02463B6953
:101DE800D31A022B08D9032346E100BF0010024092
:101DF8000000424280044242924B5B6A03F00203B5
:101E0800002BE9D17B681B6803F00403002B00F06A
:101E1800A6800023FB758B4BDB6903F08053002BF6
:101E28000DD1884BDB69874A43F08053D361854BDA
:101E3800DB6903F08053BB60BB680123FB75824BF1
:101E48001B6803F48073002B18D17F4B1B687E4AF4
:101E580043F480731360FFF765FE386108E0FFF70D
:101E680061FE02463B69D31A642B01D9032303E1BF
:101E7800754B1B6803F48073002BF0D07B68DB681C
:101E8800012B06D16F4B1B6A6E4A43F001031362A4
:101E98002DE07B68DB68002B0CD16A4B1B6A694A12
:101EA80023F001031362674B1B6A664A23F004039D
:101EB80013621CE07B68DB68052B0CD1614B1B6A45
:101EC800604A43F0040313625E4B1B6A5D4A43F0A9
:101ED800010313620BE05B4B1B6A5A4A23F00103B0
:101EE8001362584B1B6A574A23F0040313627B683A
:101EF800DB68002B15D0FFF715FE38610AE0FFF705
:101F080011FE02463B69D31A41F28832934201D945
:101F18000323B1E04B4B1B6A03F00203002BEED006
:101F280014E0FFF7FFFD38610AE0FFF7FBFD02460A
:101F38003B69D31A41F28832934201D903239BE0CB
:101F4800404B1B6A03F00203002BEED1FB7D012BF3
:101F580005D13C4BDB693B4A23F08053D3617B6856
:101F6800DB69002B00F08780364B5B6803F00C03BD
:101F7800082B61D07B68DB69022B46D1334B0022EA
:101F88001A60FFF7CFFD386108E0FFF7CBFD024686
:101F98003B69D31A022B01D903236DE0294B1B6837
:101FA80003F00073002BF0D17B681B6AB3F5803F08
:101FB80008D1244B5B6823F400327B689B68214975
:101FC80013434B601F4B5B6823F474127B68196AD8
:101FD8007B685B6A0B431B4913434B601B4B012215
:101FE8001A60FFF79FFD386108E0FFF79BFD024686
:101FF8003B69D31A022B01D903233DE0114B1B681F
:1020080003F00073002BF0D035E0104B00221A606B
:10201800FFF788FD386108E0FFF784FD02463B6959
:10202800D31A022B01D9032326E0064B1B6803F0C1
:102038000073002BF0D11EE07B68DB69012B07D110
:10204800012319E000100240007000406000424285
:102058000B4B5B68FB60FB6803F480327B681B6A90
:102068009A4206D1FB6803F470127B685B6A9A4255
:1020780001D0012300E0002318461837BD4680BD73
:102088000010024080B584B000AF786039607B688A
:10209800002B01D10123D0E06A4B1B6803F0070332
:1020A8003A689A4210D9674B1B6823F007026549C2
:1020B8003B6813430B60634B1B6803F007033A68E4
:1020C8009A4201D00123B8E07B681B6803F0020341
:1020D800002B20D07B681B6803F00403002B05D07D
:1020E800594B5B68584A43F4E06353607B681B684C
:1020F80003F00803002B05D0534B5B68524A43F4A6
:1021080060535360504B5B6823F0F0027B689B6818
:102118004D4913434B607B681B6803F00103002B98
:1021280040D07B685B68012B07D1474B1B6803F4E1
:102138000033002B15D101237FE07B685B68022BFD
:1021480007D1414B1B6803F00073002B09D1012311
:1021580073E03D4B1B6803F00203002B01D1012300
:102168006BE0394B5B6823F003027B685B68364998
:1021780013434B60FFF7D6FCF8600AE0FFF7D2FC88
:102188000246FB68D31A41F28832934201D90323ED
:1021980053E02D4B5B6803F00C027B685B689B0087
:1021A8009A42EBD1274B1B6803F007033A689A421F
:1021B80010D2244B1B6823F0070222493B681343C3
:1021C8000B60204B1B6803F007033A689A4201D062
:1021D800012332E07B681B6803F00403002B08D05E
:1021E800194B5B6823F4E0627B68DB68164913438C
:1021F8004B607B681B6803F00803002B09D0124B67
:102208005B6823F460527B681B69DB000E4913434B
:102218004B6000F021F802460B4B5B681B0903F08A
:102228000F030A49CB5C22FA03F3094A1360094BEE
:102238001B681846FFF734FC002318461037BD46C4
:1022480080BD00BF0020024000100240C8460108BF
:10225800000000200400002080B487B000AF0023F5
:10226800FB600023BB6000237B6100237B600023AD
:102278003B611E4B5B68FB60FB6803F00C03042B9F
:1022880002D0082B03D027E0194B3B6127E0FB68FD
:102298009B0C03F00F03174AD35C7B60FB6803F4C5
:1022A8008033002B10D0114B5B685B0C03F00103EB
:1022B800114AD35CBB607B680D4A03FB02F2BB6822
:1022C800B2FBF3F37B6104E07B680C4A02FB03F387
:1022D8007B617B693B6102E0054B3B6100BF3B6969
:1022E80018461C37BD4680BC704700BF001002402E
:1022F80000127A00E0460108F046010800093D0096
:1023080080B400AF024B1B681846BD4680BC7047BE
:102318000000002080B500AFFFF7F2FF0246054B32
:102328005B681B0A03F007030349CB5C22FA03F33B
:10233800184680BD00100240D846010880B500AF9D
:10234800FFF7DEFF0246054B5B68DB0A03F0070375
:102358000349CB5C22FA03F3184680BD0010024003
:10236800D846010880B485B000AF78600A4B1B6876
:102378000A4AA2FB03235B0A7A6802FB03F3FB60A9
:1023880000BFFB685A1EFA60002BF9D100BF00BFDE
:102398001437BD4680BC704700000020D34D621042
:1023A80080B48BB000AF7860396000237B62002373
:1023B8003B6279E101227B6A02FA03F3FB613B6825
:1023C8001B68FA691340BB61BA69FB699A4240F01D
:1023D80068813B685B68964A93425ED0944A934210
:1023E80075D8944A934258D0924A93426FD8924AE9
:1023F800934252D0904A934269D8904A93424CD023
:102408008E4A934263D88E4A934246D08C4A93426E
:102418005DD8122B2AD8122B59D801A252F823F0D2
:10242800A32400087D2400088F240008D124000874
:10243800D7240008D7240008D7240008D724000888
:10244800D7240008D7240008D7240008D724000878
:10245800D7240008D7240008D7240008D724000868
:10246800D72400088524000899240008754A934257
:1024780013D02CE03B68DB683B6229E03B68DB68F3
:1024880004333B6224E03B68DB6808333B621FE0AF
:102498003B68DB680C333B621AE03B689B68002BA7
:1024A80002D104233B6213E03B689B68012B05D1F2
:1024B80008233B627B68FA691A6109E008233B62DA
:1024C8007B68FA695A6103E000233B6200E000BFC1
:1024D800BB69FF2B01D87B6801E07B6804337B6113
:1024E800BB69FF2B02D87B6A9B0002E07B6A083B32
:1024F8009B003B617B691A680F213B6901FA03F372
:10250800DB431A40396A3B6901FA03F31A437B69D2
:102518001A603B685B6803F08053002B00F0C180B1
:10252800494B9B69484A43F001039361464B9B69B9
:1025380003F00103BB60BB68444A7B6A9B08023313
:1025480052F82330FB607B6A03F003039B000F22E1
:1025580002FA03F3DB43FA681340FB607B683C4AEA
:1025680093421FD07B683B4A934219D07B683A4A12
:10257800934213D07B68394A93420DD07B68384A1E
:10258800934207D07B68374A934201D105230AE07A
:10259800062308E0042306E0032304E0022302E004
:1025A800012300E000237A6A02F0030292009340BC
:1025B800FA681343FB6025497B6A9B080233FA6873
:1025C80041F823203B685B6803F48013002B06D096
:1025D800254B9A682449BB6913438B6006E0224B5C
:1025E8009A68BB69DB43204913408B603B685B6892
:1025F80003F40013002B06D01B4BDA681A49BB6999
:102608001343CB6006E0184BDA68BB69DB43164915
:102618001340CB603B685B6803F40033002B25D084
:10262800114B5A681049BB6913434B6025E000BF42
:1026380000003210000031100000221000002110AC
:1026480000001210000011100010024000000140AC
:1026580000080140000C0140001001400014014036
:1026680000180140001C014000040140154B5A6845
:10267800BB69DB43134913404B603B685B6803F459
:102688008033002B06D00F4B1A680E49BB691343E1
:102698000B6006E00B4B1A68BB69DB430949134022
:1026A8000B607B6A01337B623B681A687B6A22FA9B
:1026B80003F3002B7FF47EAE00BF00BF2C37BD466E
:1026C80080BC70470004014080B485B000AF7860DA
:1026D8000B467B807B689A687B881340002B02D06E
:1026E8000123FB7301E00023FB73FB7B18461437BF
:1026F800BD4680BC704780B483B000AF78600B469D
:102708007B8013467B707B78002B03D07A887B68AC
:102718001A6103E07B881A047B681A6100BF0C37D2
:10272800BD4680BC7047000080B485B000AF7860BB
:102738000023FB607B68002B01D1012359E07B68F3
:102748001B681A462D4B9A420FD87B681B681A469D
:102758002B4B13442B4AA2FB03231B099A007B68CB
:102768001A647B68284ADA630EE07B681B681A469D
:10277800264B1344234AA2FB03231B099A007B68B8
:102788001A647B68224ADA637B68022283F8212074
:102798007B681B681B68FB60FB6823F47F5323F08E
:1027A8003003FB607B685A687B689B681A437B68C8
:1027B800DB681A437B681B691A437B685B691A43A9
:1027C8007B689B691A437B68DB691343FA68134388
:1027D800FB607B681B68FA681A607B6800229A6352
:1027E8007B68012283F821207B68002283F820205F
:1027F800002318461437BD4680BC704707040240C2
:10280800F8FFFDBFCDCCCCCC00000240F8FBFDBFEB
:102818000004024080B586B000AFF860B9607A6005
:102828003B600023FB75FB6893F82030012B01D136
:1028380002234BE0FB68012283F82020FB6893F811
:102848002130DBB2012B3AD1FB68022283F8212028
:10285800FB6800229A63FB681B681A68FB681B68A0
:1028680022F001021A603B687A68B968F86800F0DB
:10287800BCFBFB68DB6A002B08D0FB681B681A6886
:10288800FB681B6842F00E021A600FE0FB681B68C9
:102898001A68FB681B6822F004021A60FB681B6850
:1028A8001A68FB681B6842F00A021A60FB681B681A
:1028B8001A68FB681B6842F001021A6005E0FB68B1
:1028C800002283F820200223FB75FB7D1846183769
:1028D800BD4680BD80B485B000AF78600023FB732F
:1028E8007B6893F82130DBB2022B08D07B68042286
:1028F8009A637B68002283F82020012320E07B680C
:102908001B681A687B681B6822F00E021A607B68D5
:102918001B681A687B681B6822F001021A607B68D2
:102928001A6C7B68DB6B012101FA02F25A607B6842
:10293800012283F821207B68002283F82020FB7B7A
:1029480018461437BD4680BC7047000080B584B077
:1029580000AF78600023FB737B6893F82130DBB20B
:10296800022B05D07B6804229A630123FB73D6E00F
:102978007B681B681A687B681B6822F00E021A6065
:102988007B681B681A687B681B6822F001021A6062
:102998007B681B681A46644B9A4258D97B681B6847
:1029A800624A93424FD07B681B68614A934248D081
:1029B8007B681B685F4A934240D07B681B685E4A0D
:1029C800934238D07B681B685C4A934230D07B685E
:1029D8001B685B4A934228D07B681B68524A934223
:1029E80020D07B681B68574A934219D07B681B68C4
:1029F800554A934212D07B681B68544A93420AD0C6
:102A08007B681B68524A934202D14FF480531BE003
:102A18004FF4803318E04FF4807315E0102313E06F
:102A2800012311E04FF080730EE04FF480130BE0A8
:102A38004FF4803308E04FF4805305E04FF480737F
:102A480002E0102300E00123424A536057E07B680C
:102A58001B68364A93424FD07B681B68344A9342BE
:102A680048D07B681B68334A934240D07B681B6818
:102A7800314A934238D07B681B68304A934230D041
:102A88007B681B682E4A934228D07B681B68264ABD
:102A9800934220D07B681B682A4A934219D07B68EE
:102AA8001B68294A934212D07B681B68274A9342C5
:102AB8000AD07B681B68264A934202D14FF48053A0
:102AC8001BE04FF4803318E04FF4807315E01023B7
:102AD80013E0012311E04FF080730EE04FF48013F0
:102AE8000BE04FF4803308E04FF4805305E04FF4D7
:102AF800807302E0102300E00123174A53607B68CB
:102B0800012283F821207B68002283F820207B683B
:102B18005B6B002B03D07B685B6B78689847FB7B0B
:102B280018461037BD4680BD8000024008000240AC
:102B38001C0002403000024044000240580002409D
:102B48006C000240080402401C04024030040240A9
:102B580044040240000402400000024080B584B0F2
:102B680000AF78607B68DB6B1B68FB607B681B6869
:102B78001B68BB607B681B6C04229A40FB6813408F
:102B8800002B00F0F180BB6803F00403002B00F079
:102B9800EB807B681B681B6803F02003002B07D1C0
:102BA8007B681B681A687B681B6822F004021A603D
:102BB8007B681B681A465F4B9A4258D97B681B682A
:102BC8005D4A93424FD07B681B685C4A934248D069
:102BD8007B681B685A4A934240D07B681B68594AF5
:102BE800934238D07B681B68574A934230D07B6841
:102BF8001B68564A934228D07B681B684D4A93420B
:102C080020D07B681B68524A934219D07B681B68A6
:102C1800504A934212D07B681B684F4A93420AD0AD
:102C28007B681B684D4A934202D14FF480431BE0F6
:102C38004FF4802318E04FF4806315E0402313E03D
:102C4800042311E04FF080630EE04FF480030BE0A3
:102C58004FF4802308E04FF4804305E04FF480638D
:102C680002E0402300E004233D4A536057E07B68BC
:102C78001B68314A93424FD07B681B682F4A9342A6
:102C880048D07B681B682E4A934240D07B681B68FB
:102C98002C4A934238D07B681B682B4A934230D029
:102CA8007B681B68294A934228D07B681B68214AA5
:102CB800934220D07B681B68254A934219D07B68D1
:102CC8001B68244A934212D07B681B68224A9342AD
:102CD8000AD07B681B68214A934202D14FF4804393
:102CE8001BE04FF4802318E04FF4806315E0402385
:102CF80013E0042311E04FF080630EE04FF48003EB
:102D08000BE04FF4802308E04FF4804305E04FF4D4
:102D1800806302E0402300E00423124A53607B688A
:102D2800DB6A002B00F036817B68DB6A786898479D
:102D380030E100BF80000240080002401C00024051
:102D48003000024044000240580002406C0002403B
:102D5800080402401C0402403004024044040240BB
:102D680000040240000002407B681B6C02229A406B
:102D7800FB681340002B00F0DD80BB6803F0020302
:102D8800002B00F0D7807B681B681B6803F02003CA
:102D9800002B0BD17B681B681A687B681B6822F0C4
:102DA8000A021A607B68012283F821207B681B686D
:102DB8001A467B4B9A4258D97B681B68794A9342DA
:102DC8004FD07B681B68784A934248D07B681B6861
:102DD800764A934240D07B681B68754A934238D044
:102DE8007B681B68734A934230D07B681B68724AC1
:102DF800934228D07B681B68694A934220D07B683D
:102E08001B686E4A934219D07B681B686C4A9342D0
:102E180012D07B681B686B4A93420AD07B681B6898
:102E2800694A934202D14FF400531BE04FF4003338
:102E380018E04FF4007315E0202313E0022311E09B
:102E48004FF000730EE04FF400130BE04FF4003323
:102E580008E04FF4005305E04FF4007302E020232C
:102E680000E00223594A536057E07B681B684D4ACB
:102E780093424FD07B681B684B4A934248D07B688B
:102E88001B684A4A934240D07B681B68484A934271
:102E980038D07B681B68474A934230D07B681B68F0
:102EA800454A934228D07B681B683D4A934220D00C
:102EB8007B681B68414A934219D07B681B68404A6B
:102EC800934212D07B681B683E4A93420AD07B68C3
:102ED8001B683D4A934202D14FF400531BE04FF464
:102EE800003318E04FF4007315E0202313E00223A9
:102EF80011E04FF000730EE04FF400130BE04FF4B5
:102F0800003308E04FF4005305E04FF4007302E08B
:102F1800202300E002232E4A53607B68002283F8B6
:102F280020207B689B6A002B34D07B689B6A78687A
:102F380098472FE07B681B6C08229A40FB68134077
:102F4800002B28D0BB6803F00803002B23D07B6834
:102F58001B681A687B681B6822F00E021A607B687F
:102F68001A6C7B68DB6B012101FA02F25A607B68FC
:102F780001229A637B68012283F821207B68002262
:102F880083F820207B681B6B002B04D07B681B6BAD
:102F98007868984700BF00BF1037BD4680BD00BFA6
:102FA80080000240080002401C000240300002403D
:102FB80044000240580002406C00024008040240ED
:102FC8001C04024030040240440402400004024051
:102FD8000000024080B483B000AF78607B689B6BD0
:102FE80018460C37BD4680BC704780B485B000AF2A
:102FF800F860B9607A603B60FB681A6CFB68DB6B51
:10300800012101FA02F25A60FB681B683A685A60AB
:10301800FB685B68102B08D1FB681B687A689A60AC
:10302800FB681B68BA68DA6007E0FB681B68BA6867
:103038009A60FB681B687A68DA6000BF1437BD467F
:1030480080BC704780B485B000AF78607B6803F0BF
:103058000703FB600C4BDB68BB60BA684FF6FF03E5
:103068001340BB60FB681A02BB68134343F0BF639D
:1030780043F40033BB60044ABB68D36000BF143715
:10308800BD4680BC704700BF00ED00E080B400AFD3
:10309800044BDB681B0A03F007031846BD4680BCD7
:1030A800704700BF00ED00E080B483B000AF034676
:1030B800FB7197F90730002B0BDBFB7903F01F023C
:1030C800064997F907305B09012000FA02F241F836
:1030D800232000BF0C37BD4680BC704700E100E0EC
:1030E80080B483B000AF0346FB7197F90730002B1B
:1030F80012DBFB7903F01F020A4997F907305B09D5
:10310800012000FA02F2203341F82320BFF34F8F49
:1031180000BFBFF36F8F00BF00BF0C37BD4680BC38
:10312800704700BF00E100E080B483B000AF034601
:10313800FB7197F90730002B0CDBFB7903F01F02BA
:10314800074997F907305B09012000FA02F260335A
:1031580041F8232000BF0C37BD4680BC704700BF34
:1031680000E100E080B483B000AF03463960FB7132
:1031780097F90730002B0ADB3B68DAB20C4997F95C
:1031880007301201D2B20B4483F800230AE03B68EF
:10319800DAB20849FB7903F00F03043B1201D2B2FB
:1031A8000B441A7600BF0C37BD4680BC704700BF81
:1031B80000E100E000ED00E080B489B000AFF86005
:1031C800B9607A60FB6803F00703FB61FB69C3F130
:1031D8000703042B28BF0423BB61FB690433062BB8
:1031E80002D9FB69033B00E000237B614FF0FF320B
:1031F800BB6902FA03F3DA43BB681A407B699A4059
:103208004FF0FF317B6901FA03F3D9437B680B4028
:10321800134318462437BD4680BC704780B582B03A
:1032280000AF78607B68013BB3F1807F01D3012355
:103238000FE00A4A7B68013B53600F214FF0FF30D3
:10324800FFF790FF054B00229A60044B07221A6093
:10325800002318460837BD4680BD00BF10E000E0D7
:1032680080B582B000AF78607868FFF7EBFE00BFEA
:103278000837BD4680BD80B586B000AF0346B9604B
:103288007A60FB7300237B61FFF700FF78617A683F
:10329800B9687869FFF790FF024697F90F30114631
:1032A8001846FFF75FFF00BF1837BD4680BD80B5E1
:1032B80082B000AF0346FB7197F907301846FFF755
:1032C800F3FE00BF0837BD4680BD80B582B000AFB1
:1032D8000346FB7197F907301846FFF701FF00BF57
:1032E8000837BD4680BD80B582B000AF7860786889
:1032F800FFF794FF034618460837BD4680BD80B5E2
:1033080082B000AF0346FB7197F907301846FFF704
:103318000BFF00BF0837BD4680BD000080B584B0F4
:1033280000AF78607B68002B01D101232BE17B681B
:1033380093F83D30DBB2002B06D17B68002283F87E
:103348003C20786801F06AFF7B68242283F83D20DE
:103358007B681B681A687B681B6822F001021A6088
:103368007B681B681A687B681B6842F400421A6015
:103378007B681B681A687B681B6822F400421A6025
:10338800FEF7C8FFF8607B685B68814A934207D8FC
:10339800FB68804A934294BF01230023DBB206E016
:1033A800FB687D4A934294BF01230023DBB2002BC4
:1033B80001D00123E7E0FB68784AA2FB03239B0CBA
:1033C800BB607B681B685B6823F03F017B681B68F8
:1033D800BA680A435A607B681B681B6A23F03F017E
:1033E8007B685B686A4A934202D8BB68013309E08C
:1033F800BB684FF4967202FB03F3694AA2FB0323EE
:103408009B0901337A6812680B4313627B681B6857
:10341800DB6923F44F4222F0FF027B685B685C495A
:103428008B4219D8FB68591E7B685B685B00B1FB4F
:10343800F3F3591C40F6FC730B40002B0AD0FB68D1
:10344800591E7B685B685B00B1FBF3F30133C3F380
:103458000B0351E004234FE07B689B68002B11D1DC
:10346800FB68581E7B6859680B465B000B44B0FB31
:10347800F3F30133C3F30B03002B0CBF0123002329
:10348800DBB212E0FB68581E7B6859680B469B004C
:103498000B4499000B44B0FBF3F30133C3F30B0364
:1034A800002B0CBF01230023DBB2002B01D001232A
:1034B80022E07B689B68002B0ED1FB68581E7B6856
:1034C80059680B465B000B44B0FBF3F30133C3F3BD
:1034D8000B0343F400430FE0FB68581E7B685968F0
:1034E8000B469B000B4499000B44B0FBF3F30133EC
:1034F800C3F30B0343F44043796809681343CB6172
:103508007B681B681B6823F0C0017B68DA697B68ED
:103518001B6A1A437B681B680A431A607B681B682E
:103528009B6823F4034323F0FF037A6811697A68E0
:10353800D26811437A6812680B4393607B681B68F2
:10354800DB6823F0FF017B685A697B689B691A4333
:103558007B681B680A43DA607B681B681A687B68AB
:103568001B6842F001021A607B6800221A647B68BB
:10357800202283F83D207B6800221A637B680022A2
:1035880083F83E20002318461037BD4680BD00BF93
:10359800A08601007F841E00FF083D0083DE1B43D8
:1035A800D34D621080B588B002AFF8607A601A46D1
:1035B8000B467B8113463B81FEF7B4FA7861FB68C2
:1035C80093F83D30DBB2202B40F0E0807B6900931C
:1035D800192301227049F86800F064F90346002BAA
:1035E80001D00223D3E0FB6893F83C30012B01D1D2
:1035F8000223CCE0FB68012283F83C20FB681B68AF
:103608001B6803F00103012B07D0FB681B681A68CD
:10361800FB681B6842F001021A60FB681B681A68A5
:10362800FB681B6822F400621A60FB68212283F899
:103638003D20FB68102283F83E20FB6800221A64B4
:10364800FB687A685A62FB683A895A85FB685B8D21
:103658009AB2FB681A85FB68504ADA6279897B69F5
:103668003A6AF86800F09CF80346002B01D0012361
:103678008DE000233B61FB681B685B693B61FB686D
:103688001B689B693B613B6966E07A69396AF8683F
:1036980000F022FA0346002B0DD0FB681B6C042BAC
:1036A80007D1FB681B681A68FB681B6842F4007244
:1036B8001A6001236BE0FB685B6A1A78FB681B6879
:1036C8001A61FB685B6A5A1CFB685A62FB685B8D6F
:1036D8009BB2013B9AB2FB685A85FB681B8D013B84
:1036E8009AB2FB681A85FB681B685B6903F00403E0
:1036F800042B1BD1FB681B8D002B17D0FB685B6A62
:103708001A78FB681B681A61FB685B6A5A1CFB68BD
:103718005A62FB685B8D9BB2013B9AB2FB685A8583
:10372800FB681B8D013B9AB2FB681A857A69396A76
:10373800F86800F019FA0346002B0DD0FB681B6CE3
:10374800042B07D1FB681B681A68FB681B6842F4E6
:1037580000721A6001231AE0FB681B8D002B94D1BC
:10376800FB681B681A68FB681B6842F400721A60E1
:10377800FB68202283F83D20FB68002283F83E2066
:10378800FB68002283F83C20002300E0022318464F
:103798001837BD4680BD00BF020010000000FFFFC3
:1037A80080B588B002AFF8607A603B600B467B81D9
:1037B800FB68DB6A7B617B69082B06D07B69012B80
:1037C80003D07B6913F5803F08D1FB681B681A6832
:1037D800FB681B6842F480721A600BE0FB681B6B85
:1037E800122B07D1FB681B681A68FB681B6842F438
:1037F80080721A603B6800937B6800224FF00111C9
:10380800F86800F04FF80346002B0DD0FB681B68E2
:103818001B6803F48073B3F5807F03D1FB684FF412
:1038280000721A64032335E0FB681B69B3F5804F07
:1038380008D17B89DBB21A46FB681B6802F0FE02DE
:103848001A611BE07B89DB11DBB203F00603DBB2F4
:1038580063F00F03DAB2FB681B681A613B687A6889
:103868000E49F86800F098F80346002B01D00123B0
:1038780010E07B89DAB2FB681B681A613B687A68DA
:103888000749F86800F088F80346002B01D00123A7
:1038980000E0002318461837BD4680BD0800010027
:1038A8000200010080B584B000AFF860B9603B60E9
:1038B8001346FB7148E03B68B3F1FF3F44D0FEF785
:1038C80031F90246BB69D31A3A689A4202D33B6877
:1038D800002B39D1BB681B0CDBB2012B0DD1FB6867
:1038E8001B685B69DA43BB6813409BB2002B0CBFB3
:1038F80001230023DBB21A460CE0FB681B689B69B6
:10390800DA43BB6813409BB2002B0CBF0123002392
:10391800DBB21A46FB799A4216D1FB6800221A6379
:10392800FB68202283F83D20FB68002283F83E20B4
:10393800FB681B6C43F02002FB681A64FB680022DA
:1039480083F83C20012323E0BB681B0CDBB2012B6E
:103958000DD1FB681B685B69DA43BB6813409BB2F7
:10396800002B0CBF01230023DBB21A460CE0FB68D6
:103978001B689B69DA43BB6813409BB2002B0CBFE2
:1039880001230023DBB21A46FB799A4293D0002325
:1039980018461037BD4680BD80B584B000AFF860CA
:1039A800B9607A603B6071E0FB681B685B6903F48F
:1039B8008063B3F5806F23D1FB681B681A68FB68C6
:1039C8001B6842F400721A60FB681B686FF480621F
:1039D8005A61FB6800221A63FB68202283F83D20A5
:1039E800FB68002283F83E20FB681B6C43F004024E
:1039F800FB681A64FB68002283F83C20012367E017
:103A08007B68B3F1FF3F41D0FEF78CF802463B6874
:103A1800D31A7A689A4202D37B68002B36D1BB68E6
:103A28001B0CDBB2012B0CD1FB681B685B69DA430A
:103A3800BB6813409BB2002B14BF01230023DBB2E9
:103A48000BE0FB681B689B69DA43BB6813409BB2B9
:103A5800002B14BF01230023DBB2002B16D0FB6818
:103A680000221A63FB68202283F83D20FB680022AD
:103A780083F83E20FB681B6C43F02002FB681A6445
:103A8800FB68002283F83C20012321E0BB681B0C63
:103A9800DBB2012B0CD1FB681B685B69DA43BB689E
:103AA80013409BB2002B14BF01230023DBB20BE0B1
:103AB800FB681B689B69DA43BB6813409BB2002B09
:103AC80014BF01230023DBB2002B7FF46DAF00236A
:103AD80018461037BD4680BD80B584B000AFF86089
:103AE800B9607A6034E0F86800F086F80346002B85
:103AF80001D0012334E0BB68B3F1FF3F28D0FEF7C3
:103B080011F802467B68D31ABA689A4202D3BB6896
:103B1800002B1DD1FB681B685B6903F08003802BB9
:103B280016D0FB6800221A63FB68202283F83D2028
:103B3800FB68002283F83E20FB681B6C43F02002E0
:103B4800FB681A64FB68002283F83C20012307E025
:103B5800FB681B685B6903F08003802BC3D10023DB
:103B680018461037BD4680BD80B584B000AFF860F8
:103B7800B9607A6034E0F86800F03EF80346002B3C
:103B880001D0012334E0BB68B3F1FF3F28D0FDF733
:103B9800C9FF02467B68D31ABA689A4202D3BB6847
:103BA800002B1DD1FB681B685B6903F00403042B21
:103BB80016D0FB6800221A63FB68202283F83D2098
:103BC800FB68002283F83E20FB681B6C43F0200250
:103BD800FB681A64FB68002283F83C20012307E095
:103BE800FB681B685B6903F00403042BC3D1002343
:103BF80018461037BD4680BD80B483B000AF7860EA
:103C08007B681B685B6903F48063B3F5806F1BD125
:103C18007B681B686FF480625A617B6800221A63B4
:103C28007B68202283F83D207B68002283F83E20B1
:103C38007B681B6C43F004027B681A647B68002273
:103C480083F83C20012300E0002318460C37BD46CA
:103C580080BC704780B582B000AF78607B68002B6D
:103C680001D1012342E07B6893F84130DBB2002B9D
:103C780006D17B68002283F84020786801F0FAFBBF
:103C88007B68242283F841207B681B68DA687B689C
:103C98001B6822F40052DA60786801F0B5F87B6896
:103CA8001B681A697B681B6822F490421A617B685A
:103CB8001B685A697B681B6822F02A025A617B6874
:103CC8001B68DA687B681B6842F40052DA607B681C
:103CD80000225A647B68202283F841207B682022D6
:103CE80083F842207B6800225A630023184608376D
:103CF800BD4680BD80B58AB002AFF860B9603B6050
:103D08001346FB8000237B61FB6893F84130DBB2EC
:103D1800202B75D1BB68002B02D0FB88002B01D16A
:103D280001236EE0FB6800225A64FB68212283F8B5
:103D38004120FDF7F7FE7861FB68FA889A84FB68F2
:103D4800FA88DA84FB689B68B3F5805F08D1FB6862
:103D58001B69002B04D10023FB61BB68BB6103E036
:103D6800BB68FB610023BB612EE03B6800937B6965
:103D780000228021F86800F091FD0346002B05D051
:103D8800FB68202283F8412003233AE0FB69002BDB
:103D98000BD1BB691B881A46FB681B68C2F3080273
:103DA8005A60BB690233BB6107E0FB691A78FB689C
:103DB8001B685A60FB690133FB61FB68DB8C9BB2B3
:103DC800013B9AB2FB68DA84FB68DB8C9BB2002B60
:103DD800CBD13B6800937B6900224021F86800F052
:103DE8005DFD0346002B05D0FB68202283F84120A7
:103DF800032306E0FB68202283F84120002300E02B
:103E0800022318462037BD4680BD80B58AB002AF70
:103E1800F860B9603B601346FB8000237B61FB6858
:103E280093F84230DBB2202B40F08180BB68002B36
:103E380002D0FB88002B01D1012379E0FB68002226
:103E48005A64FB68222283F84220FB6800221A6326
:103E5800FDF768FE7861FB68FA889A85FB68FA883E
:103E6800DA85FB689B68B3F5805F08D1FB681B693E
:103E7800002B04D10023FB61BB68BB6103E0BB6876
:103E8800FB610023BB6147E03B6800937B6900222C
:103E98002021F86800F002FD0346002B05D0FB68DE
:103EA800202283F84220032342E0FB69002B0CD137
:103EB800FB681B685B689BB2C3F308039AB2BB69D3
:103EC8001A80BB690233BB611FE0FB689B68B3F5CE
:103ED800805F07D0FB689B68002B0AD1FB681B69D1
:103EE800002B06D1FB681B685B68DAB2FB691A70A5
:103EF80008E0FB681B685B68DBB203F07F03DAB29B
:103F0800FB691A70FB690133FB61FB68DB8D9BB2AF
:103F1800013B9AB2FB68DA85FB68DB8D9BB2002B0C
:103F2800B2D1FB68202283F84220002300E002235C
:103F380018462037BD4680BD80B58CB000AFF8600C
:103F4800B9601346FB80FB6893F84230DBB2202B44
:103F580046D1BB68002B02D0FB88002B01D101237E
:103F68003FE0FB6801221A63FB6800225A63FB8862
:103F78001A46B968F86800F0EBFC034687F82F305A
:103F8800FB681B6B012B25D100233B61FB681B6879
:103F98001B683B61FB681B685B683B613B69FB68AE
:103FA8001B680C33BB61BB6953E8003F7B617B69CD
:103FB80043F01003BB62FB681B680C33BA6A7A6271
:103FC8003B62396A7A6A41E80023FB61FB69002B8E
:103FD800E5D102E0012387F82F3097F82F3000E071
:103FE800022318463037BD4680BD80B59AB000AF71
:103FF80078607B681B680C33BB64BB6C53E8003F7C
:104008007B647B6C23F490737B667B681B680C3342
:104018007A6E7A653B65396D7A6D41E80023FB64F9
:10402800FB6C002BE5D17B681B6814337B637B6BCF
:1040380053E8003F3B633B6B23F001033B667B681F
:104048001B6814333A6E3A64FB63F96B3A6C41E8C7
:104058000023BB63BB6B002BE5D17B681B6B012B7B
:1040680019D17B681B680C333B623B6A53E8003FFD
:10407800FB61FB6923F01003FB657B681B680C334D
:10408800FA6DFA62BB62B96AFA6A41E800237B6298
:104098007B6A002BE5D17B681B685B6903F04003F2
:1040A800002B36D07B681B681433FB60FB6853E831
:1040B800003FBB60BB6823F04003BB657B681B689F
:1040C8001433BA6DBA617B617969BA6941E8002332
:1040D8003B613B69002BE5D17B68DB6B002B18D07B
:1040E8007B68DB6B00225A637B68DB6B1846FEF744
:1040F800F1FB0346002B0CD07B68DB6B1846FEF700
:1041080069FF0346202B04D17B6810225A640323DD
:104118000AE07B680022DA857B68202283F8422047
:104128007B6800221A63002318466837BD4680BDA5
:1041380080B5BAB000AF78607B681B681B68C7F8A9
:10414800E4307B681B68DB68C7F8E0307B681B6875
:104158005B69C7F8DC300023C7F8D8300023C7F8FC
:10416800D430D7F8E43003F00F03C7F8D830D7F8C5
:10417800D830002B0FD1D7F8E43003F02003002B00
:1041880009D0D7F8E03003F02003002B03D078687B
:1041980000F07CFD5BE2D7F8D830002B00F0DE8021
:1041A800D7F8DC3003F00103002B06D1D7F8E03054
:1041B80003F49073002B00F0D180D7F8E43003F0BB
:1041C8000103002B0BD0D7F8E03003F48073002BE9
:1041D80005D07B685B6C43F001027B685A64D7F8B2
:1041E800E43003F00403002B0BD0D7F8DC3003F0E5
:1041F8000103002B05D07B685B6C43F002027B68EF
:104208005A64D7F8E43003F00203002B0BD0D7F838
:10421800DC3003F00103002B05D07B685B6C43F0B6
:1042280004027B685A64D7F8E43003F00803002BD3
:1042380011D0D7F8E03003F02003002B05D1D7F8D0
:10424800DC3003F00103002B05D07B685B6C43F086
:1042580008027B685A647B685B6C002B00F0F28173
:10426800D7F8E43003F02003002B08D0D7F8E0306B
:1042780003F02003002B02D0786800F007FD7B686C
:104288001B685B6903F04003002B14BF0123002364
:10429800DBB2C7F8D4307B685B6C03F00803002BF3
:1042A80003D1D7F8D430002B4FD0786800F011FC38
:1042B8007B681B685B6903F04003002B41D07B6877
:1042C8001B681433C7F89C30D7F89C3053E8003F7C
:1042D800C7F89830D7F8983023F04003C7F8D030A3
:1042E8007B681B681433D7F8D020C7F8A820C7F814
:1042F800A430D7F8A410D7F8A82041E80023C7F8BD
:10430800A030D7F8A030002BD9D17B68DB6B002B0D
:1043180013D07B68DB6B7E4A5A637B68DB6B18467D
:10432800FEF714FB0346002B16D07B68DB6B5B6B38
:104338007A68D26B104698470EE0786803F03AFE28
:104348000AE0786803F036FE06E0786803F032FE8B
:104358007B6800225A6475E100BF73E17B681B6BC0
:10436800012B40F04F81D7F8E43003F01003002B05
:1043780000F04881D7F8E03003F01003002B00F07C
:1043880041810023BB607B681B681B68BB607B683E
:104398001B685B68BB60BB687B681B685B6903F074
:1043A8004003002B00F0B6807B68DB6B1B685B6802
:1043B800A7F8BE30B7F8BE30002B00F045817B6807
:1043C8009B8DB7F8BE209A4280F03E817B68B7F893
:1043D800BE20DA857B68DB6B9B69202B00F0888028
:1043E8007B681B680C33C7F88830D7F8883053E8E7
:1043F800003FC7F88430D7F8843023F48073C7F8B7
:10440800B8307B681B680C33D7F8B820C7F89420FD
:10441800C7F89030D7F89010D7F8942041E80023D7
:10442800C7F88C30D7F88C30002BD9D17B681B6843
:1044380014337B677B6F53E8003F3B673B6F23F088
:104448000103C7F8B4307B681B681433D7F8B4206D
:10445800C7F88020FB67F96FD7F8802041E8002370
:10446800BB67BB6F002BE1D17B681B6814333B66CD
:104478003B6E53E8003FFB65FB6D23F04003C7F834
:10448800B0307B681B681433D7F8B020FA66BB6677
:10449800B96EFA6E41E800237B667B6E002BE3D190
:1044A8007B68202283F842207B6800221A637B689D
:1044B8001B680C33FB64FB6C53E8003FBB64BB6CAC
:1044C80023F01003C7F8AC307B681B680C33D7F8AF
:1044D800AC20BA657B65796DBA6D41E800233B6510
:1044E8003B6D002BE3D17B68DB6B1846FEF7F2F9D6
:1044F8007B6802225A637B689A8D7B68DB8D9BB24E
:10450800D31A9BB21946786803F00CFD9CE000BFF3
:104518009F4B00087B689A8D7B68DB8D9BB2D31A12
:10452800A7F8CE307B68DB8D9BB2002B00F08E8025
:10453800B7F8CE30002B00F089807B681B680C33FD
:10454800BB63BB6B53E8003F7B637B6B23F49073C7
:10455800C7F8C8307B681B680C33D7F8C8207A6462
:104568003B64396C7A6C41E80023FB63FB6B002BDE
:10457800E3D17B681B6814337B627B6A53E8003F96
:104588003B623B6A23F00103C7F8C4307B681B68B1
:104598001433D7F8C4203A63FB62F96A3A6B41E8EE
:1045A8000023BB62BB6A002BE3D17B68202283F81F
:1045B80042207B6800221A637B681B680C333B61CE
:1045C8003B6953E8003FFB60FB6823F01003C7F822
:1045D800C0307B681B680C33D7F8C020FA61BB6118
:1045E800B969FA6941E800237B617B69002BE3D153
:1045F8007B6802225A63B7F8CE301946786803F010
:1046080091FC23E0D7F8E43003F08003002B09D0B5
:10461800D7F8E03003F08003002B03D0786800F06F
:10462800CEFA14E0D7F8E43003F04003002B0ED0A4
:10463800D7F8E03003F04003002B08D0786800F08A
:104648000DFB04E000BF02E000BF00E000BFE83758
:10465800BD4680BD80B483B000AF786000BF0C3722
:10466800BD4680BC704780B483B000AF786000BF9F
:104678000C37BD4680BC704780B483B000AF78600B
:1046880000BF0C37BD4680BC704780B483B000AF14
:1046980078607B685B6C18460C37BD4680BC7047F9
:1046A80080B59CB000AF78607B685B6AFB667B680E
:1046B8001B681B6803F02003002B72D1FB6E0022DD
:1046C800DA85FB6E1B680C33FB64FB6C53E8003F18
:1046D800BB64BB6C23F48073BB66FB6E1B680C3336
:1046E800BA6EBA657B65796DBA6D41E800233B65A2
:1046F8003B6D002BE5D1FB6E1B681433BB63BB6BB2
:1047080053E8003F7B637B6B23F001037B66FB6E02
:104718001B6814337A6E7A643B64396C7A6C41E8AE
:104728000023FB63FB6B002BE5D1FB6E1B68143386
:104738007B627B6A53E8003F3B623B6A23F040039D
:104748003B66FB6E1B6814333A6E3A63FB62F96A88
:104758003A6B41E80023BB62BB6A002BE5D1FB6ED4
:10476800202283F84220FB6E1B6B012B19D1FB6EB4
:104778001B680C333B613B6953E8003FFB60FB68F7
:1047880023F01003FB65FB6E1B680C33FA6DFA61AE
:10479800BB61B969FA6941E800237B617B69002B39
:1047A800E5D1FB6E00225A63FB6E1B6B012B06D111
:1047B800FB6E9B8D1946F86E03F0B4FB02E0F86EB1
:1047C800FFF751FF00BF7037BD4680BD80B584B08C
:1047D80000AF78607B685B6AFB60FB6801225A6304
:1047E800FB681B6B012B08D1FB689B8D5B089BB298
:1047F8001946F86803F096FB02E0F868FFF73CFFFB
:1048080000BF1037BD4680BD80B584B000AF78606A
:104818000023FB607B685B6ABB60BB681B685B69E5
:1048280003F08003002B14BF01230023DBB2FB60DD
:10483800BB6893F84130DBB2212B08D1FB68002B11
:1048480005D0BB680022DA84B86800F01BF9BB68A1
:104858001B685B6903F04003002B14BF012300238E
:10486800DBB2FB60BB6893F84230DBB2222B08D185
:10487800FB68002B05D0BB680022DA85B86800F019
:1048880028F9BB685B6C43F01002BB685A64B868CF
:1048980003F090FB00BF1037BD4680BD80B586B0E1
:1048A80000AFF860B9603B601346FB713BE03B6AC0
:1048B800B3F1FF3F37D0FDF735F902463B68D31A0D
:1048C8003A6A9A4202D33B6A002B01D103233AE0A9
:1048D800FB681B68DB6803F00403002B23D0BB686C
:1048E800802B20D0BB68402B1DD0FB681B681B6841
:1048F80003F00803082B16D100237B61FB681B68B3
:104908001B687B61FB681B685B687B617B69F86877
:1049180000F0DFF8FB6808225A64FB68002283F87D
:10492800402001230FE0FB681B681A68BB6813402E
:10493800BA689A420CBF01230023DBB21A46FB79FE
:104948009A42B4D0002318461837BD4680BD0000EF
:1049580080B598B000AFF860B9601346FB80BA68BC
:10496800FB689A62FB68FA889A85FB6800225A6499
:10497800FB68222283F84220FB68DB6B3E4A9A627E
:10498800FB68DB6B3D4ADA62FB68DB6B3C4A1A6307
:10499800FB68DB6B00225A6307F10803FB65FB68C1
:1049A800D86BFB681B6804331946FB6D1A68FB88D3
:1049B800FDF730FF00233B61FB681B681B683B6108
:1049C800FB681B685B683B613B69FB681B69002BE4
:1049D80019D0FB681B680C333B643B6C53E8003F01
:1049E800FB63FB6B43F48073BB65FB681B680C338C
:1049F800BA6DFA64BB64B96CFA6C41E800237B6455
:104A08007B6C002BE5D1FB681B681433FB62FB6AE7
:104A180053E8003FBB62BB6A43F001037B65FB6858
:104A28001B6814337A6DBA637B63796BBA6B41E8A0
:104A380000233B633B6B002BE5D1FB681B681433F9
:104A4800BB61BB6953E8003F7B617B6943F040036E
:104A58003B65FB681B6814333A6D7A623B62396ABE
:104A68007A6A41E80023FB61FB69002BE5D100234A
:104A780018466037BD4680BDA9460008D5470008DE
:104A88001148000880B489B000AF78607B681B6863
:104A98000C33FB60FB6853E8003FBB60BB6823F046
:104AA800C003FB617B681B680C33FA69BA617B61E0
:104AB8007969BA6941E800233B613B69002BE5D17C
:104AC8007B68202283F8412000BF2437BD4680BC84
:104AD800704780B495B000AF78607B681B680C3372
:104AE8007B637B6B53E8003F3B633B6B23F4907322
:104AF800FB647B681B680C33FA6C3A64FB63F96BE4
:104B08003A6C41E80023BB63BB6B002BE5D17B68A3
:104B18001B6814333B623B6A53E8003FFB61FB6947
:104B280023F00103BB647B681B681433BA6CFA6218
:104B3800BB62B96AFA6A41E800237B627B6A002B90
:104B4800E5D17B681B6B012B19D17B681B680C3383
:104B5800FB60FB6853E8003FBB60BB6823F01003B1
:104B68007B647B681B680C337A6CBA617B617969FA
:104B7800BA6941E800233B613B69002BE5D17B68BA
:104B8800202283F842207B6800221A6300BF543732
:104B9800BD4680BC704780B584B000AF78607B6844
:104BA8005B6AFB60FB680022DA85FB680022DA8416
:104BB800F86803F0FFF900BF1037BD4680BD80B428
:104BC80085B000AF78607B6893F84130DBB2212B69
:104BD8003ED17B689B68B3F5805F14D17B681B6905
:104BE800002B10D17B681B6AFB60FB681B881A4688
:104BF8007B681B68C2F308025A607B681B6A9A1CB0
:104C08007B681A6208E07B681B6A591C7A68116223
:104C18001A787B681B685A607B68DB8C9BB2013B07
:104C28009BB27A681946D184002B0FD17B681B6828
:104C3800DA687B681B6822F08002DA607B681B6890
:104C4800DA687B681B6842F04002DA60002300E003
:104C5800022318461437BD4680BC704780B582B021
:104C680000AF78607B681B68DA687B681B6822F095
:104C78004002DA607B68202283F841207868FFF7D9
:104C8800E9FC002318460837BD4680BD80B58CB0C6
:104C980000AF78607B6893F84230DBB2222B40F09B
:104CA800AE807B689B68B3F5805F17D17B681B6912
:104CB800002B13D10023FB627B689B6ABB627B6875
:104CC8001B685B689BB2C3F308039AB2BB6A1A807D
:104CD8007B689B6A9A1C7B689A6226E07B689B6A61
:104CE800FB620023BB627B689B68B3F5805F07D0DB
:104CF8007B689B68002B0AD17B681B69002B06D157
:104D08007B681B685B68DAB2FB6A1A7008E07B682C
:104D18001B685B68DBB203F07F03DAB2FB6A1A70C8
:104D28007B689B6A5A1C7B689A627B68DB8D9BB2A6
:104D3800013B9BB27A681946D185002B5DD17B680F
:104D48001B68DA687B681B6822F02002DA607B68DF
:104D58001B68DA687B681B6822F48072DA607B68FB
:104D68001B685A697B681B6822F001025A617B68DC
:104D7800202283F842207B6800225A637B681B6BE1
:104D8800012B35D17B6800221A637B681B680C33C2
:104D98007B617B6953E8003F3B613B6923F010036B
:104DA8007B627B681B680C337A6A3A62FB61F9693B
:104DB8003A6A41E80023BB61BB69002BE5D17B68F7
:104DC8001B681B6803F01003102B0AD10023FB603B
:104DD8007B681B681B68FB607B681B685B68FB6003
:104DE800FB687B689B8D1946786803F09BF802E0A6
:104DF8007868FFF738FC002302E0002300E0022374
:104E080018463037BD4680BD80B584B000AF7860A5
:104E18007B681B681B6923F440517B68DA687B68F0
:104E28001B680A431A617B689A687B681B691A4386
:104E38007B685B691343BB607B681B68DB6823F492
:104E4800B05323F00C037A681268B9680B43D36037
:104E58007B681B685B6923F440717B689A697B688F
:104E68001B680A435A617B681B682C4A934203D12A
:104E7800FDF764FAF86002E0FDF74CFAF860FA68AA
:104E880013469B0013449A001A447B685B689B0096
:104E9800B2FBF3F3224AA2FB03235B091901FA6868
:104EA80013469B0013449A001A447B685B689B0076
:104EB800B2FBF3F21A4BA3FB02035B09642000FB6D
:104EC80003F3D31A1B013233154AA2FB03235B09F0
:104ED80003F0F0031944FA6813469B0013449A0040
:104EE8001A447B685B689B00B2FBF3F20C4BA3FB94
:104EF80002035B09642000FB03F3D31A1B0132335E
:104F0800074AA2FB03235B0903F00F027B681B68B7
:104F18000A449A6000BF1037BD4680BD0038014082
:104F28001F85EB5180B500AFFCF7A4FD00F028F811
:104F380000F08EF800F026F900F042F900F01CFAB3
:104F480000F044FA00F06CFA00F0A6F90A4B1B686E
:104F580098680023022200210AF048FB07480AF05B
:104F68003DFB02F0AFFD08F0BDF908F0EFF903F0E2
:104F78003FF800BFF9E700BF8C010020B823010803
:104F880080B590B000AF07F1180328220021184619
:104F98000AF0ECFC3B1D00221A605A609A60DA6045
:104FA8001A610123BB614FF48033FB6100233B622C
:104FB8000123BB6202237B634FF48033BB634FF44E
:104FC800E013FB6307F118031846FCF7D9FD034605
:104FD800002B01D000F036F80F237B600223BB6062
:104FE8000023FB604FF480633B6100237B613B1D22
:104FF80002211846FDF746F80346002B01D000F0C1
:1050080021F800BF4037BD4680BD000080B584B0A0
:1050180000AF78607B68DBB2FB7307F10F010A23EE
:1050280001220748FEF766FE0346002B01D17B6884
:1050380001E04FF0FF3318461037BD4680BD00BF72
:105048009802002080B400AF72B600BF00BFFDE731
:1050580080B588B000AF07F1100300221A605A60CB
:105068009A60DA60434B9B69424A43F0200393619C
:10507800404B9B6903F02003FB60FB683D4B9B6939
:105088003C4A43F0100393613A4B9B6903F01003C9
:10509800BB60BB68374B9B69364A43F00403936196
:1050A800344B9B6903F004037B607B68314B9B693D
:1050B800304A43F0080393612E4B9B6903F00803C1
:1050C8003B603B68012202212B48FDF714FB0022BC
:1050D8004FF480512848FDF70EFB01224FF48071F0
:1050E8002648FDF708FB2F233B6100237B61012342
:1050F800BB6107F1100319462148FDF751F9012357
:105108003B6100237B610223BB6107F11003194651
:105118001A48FDF745F941F202033B6101237B611F
:105128000023BB610223FB6107F1100319461248F3
:10513800FDF736F94FF480733B6101237B6100234F
:10514800BB610223FB6107F1100319460B48FDF709
:1051580027F94FF400433B6100237B610123BB61C6
:1051680007F1100319460548FDF71AF900BF203763
:10517800BD4680BD00100240000C014000080140FF
:105188000010014080B582B000AF0C4B5B690B4A40
:1051980043F001035361094B5B6903F001037B6032
:1051A8007B68002205211020FEF765F81020FEF725
:1051B8007EF800BF0837BD4680BD00BF0010024022
:1051C80080B500AF124B134A1A60114B124A5A604D
:1051D8000F4B00229A600E4B0022DA600C4B4FF402
:1051E80080421A610A4B00225A61094B00229A61D7
:1051F800074B0022DA61064B00221A620448FEF7C8
:105208008DF80346002B01D0FFF71CFF00BF80BDBF
:10521800FC01002000540040801A060080B588B0C8
:1052280000AF786007F1100300221A605A609A6094
:10523800DA607B681B68154A934223D1144B9B693B
:10524800134A43F008039361114B9B6903F0080369
:10525800FB60FB68C0233B6112237B610323FB6176
:1052680007F1100319460B48FDF79AF8084BDB695C
:10527800074A43F40013D361054BDB6903F40013B9
:10528800BB60BB6800BF2037BD4680BD00540040EE
:1052980000100240000C014080B586B000AF07F155
:1052A800080300221A605A609A60DA603B460022BE
:1052B8001A605A601D4B4FF080421A601B4B472200
:1052C8005A601A4B00229A60184B40F2E732DA60B3
:1052D800164B00221A61154B80229A611348FBF77E
:1052E800FBFF0346002B01D0FFF7ACFE4FF48053C1
:1052F800BB6007F1080319460C48FCF72CF9034674
:10530800002B01D0FFF79EFE00233B6000237B604B
:105318003B4619460548FCF72FFB0346002B01D0F6
:10532800FFF790FE00BF1837BD4680BD5002002031
:1053380080B584B000AF78607B681B68B3F1804F9C
:1053480013D10C4BDB690B4A43F00103D361094BC2
:10535800DB6903F00103FB60FB68002205211C20C8
:10536800FDF789FF1C20FDF7A2FF00BF1037BD46DF
:1053780080BD00BF0010024080B500AF114B124A3B
:105388001A60104B4FF4E1325A600E4B00229A60BB
:105398000C4B0022DA600B4B00221A61094B0C22DD
:1053A8005A61084B00229A61064B0022DA610548CF
:1053B800FEF750FC0346002B01D0FFF743FE00BF69
:1053C80080BD00BF980200200038014080B500AFC2
:1053D800114B124A1A60104B4FF4E1325A600E4BCF
:1053E80000229A600C4B0022DA600B4B00221A61F3
:1053F800094B0C225A61084B00229A61064B002285
:10540800DA610548FEF726FC0346002B01D0FFF7BA
:1054180019FE00BF80BD00BFE0020020004400402C
:1054280080B500AF114B124A1A60104B4FF4E132AD
:105438005A600E4B00229A600C4B0022DA600B4B2C
:1054480000221A61094B0C225A61084B00229A610A
:10545800064B0022DA610548FEF7FCFB0346002BE9
:1054680001D0FFF7EFFD00BF80BD00BF280300207B
:105478000048004080B58CB000AF786007F1200389
:1054880000221A605A609A60DA607B681B686E4A6C
:10549800934232D16D4B9B696C4A43F480439361CC
:1054A8006A4B9B6903F48043FB61FB69674B9B690B
:1054B800664A43F004039361644B9B6903F0040359
:1054C800BB61BB694FF400733B6202237B62032319
:1054D800FB6207F1200319465D48FCF761FF4FF4B2
:1054E80080633B6200237B620023BB6207F12003D9
:1054F80019465748FCF754FFA2E07B681B68554AD9
:1055080093425ED1514BDB69504A43F40033D36177
:105518004E4BDB6903F400337B617B694B4B9B6922
:105528004A4A43F004039361484B9B6903F0040320
:105538003B613B6904233B6202237B620323FB62DA
:1055480007F1200319464248FCF72AFF08233B626B
:1055580000237B620023BB6207F1200319463C4805
:10556800FCF71EFF3C4B3D4A1A603B4B00225A6039
:10557800394B00229A60384B8022DA60364B002281
:105588001A61354B00225A61334B20229A61324B03
:105598000022DA613048FDF7C7F80346002B01D036
:1055A800FFF750FD7B682C4ADA632B4A7B6853620D
:1055B800002205212620FDF75EFE2620FDF777FE56
:1055C8003EE07B681B68264A934239D11F4BDB6952
:1055D8001E4A43F48023D3611C4BDB6903F4802308
:1055E800FB60FB68194B9B69184A43F008039361F9
:1055F800164B9B6903F00803BB60BB684FF48063DC
:105608003B6202237B620323FB6207F120031946F6
:105618001448FCF7C5FE4FF400633B6200237B622D
:105628000023BB6207F1200319460E48FCF7B8FEB9
:10563800002205212720FDF71EFE2720FDF737FE53
:1056480000BF3037BD4680BD003801400010024021
:105658000008014000440040700300206C00024034
:1056680000480040000C014080B400AF00BFFDE7D7
:1056780080B400AF00BFFDE780B400AF00BFFDE716
:1056880080B400AF00BFFDE780B400AF00BFFDE706
:1056980080B400AF00BFBD4680BC704780B400AF87
:1056A80000BFBD4680BC704780B400AF00BFBD4698
:1056B80080BC704780B500AFFCF722FA00BF80BD00
:1056C80080B500AF0248FDF749FA00BF80BD00BFB2
:1056D8007003002080B500AF0248FBF74CFE00BF06
:1056E80080BD00BF5002002080B500AF0248FEF721
:1056F8001FFD00BF80BD00BFE002002080B500AFE5
:105708000248FEF715FD00BF80BD00BF280300203A
:1057180080B584B000AF184B9B69174A43F001036A
:105728009361154B9B6903F00103BB60BB68124B87
:10573800DB69114A43F08053D3610F4BDB6903F0F7
:1057480080537B607B6800220F216FF00100FDF71A
:1057580092FD0A4B5B68FB60FB6823F0E063FB602B
:10576800FB6843F00073FB60044AFB68536000BFAA
:105778001037BD4680BD00BF001002400000014048
:1057880080B586B000AF7860144A154BD31A7B6198
:105798007B693B61134B1B68002B02D1114B124AEA
:1057A8001A60104B1A687B6813443A699A4207D208
:1057B8000AF04EF903460C221A604FF0FF3309E055
:1057C800084B1B68FB60074B1A687B681344054A43
:1057D8001360FB6818461837BD4680BD00C000201E
:1057E80000040000B4030020100E002080B400AFB5
:1057F80001231846BD4680BC704780B582B000AF13
:10580800786039600AF024F9034616221A604FF0CE
:10581800FF3318460837BD4680BD80B582B000AF5B
:1058280078604FF0FF317868FFF7E7FF00BFFDE7CA
:1058380080B586B000AFF860B9607A6000237B61FC
:105848000AE0AFF300800146BB685A1CBA60CAB2CE
:105858001A707B6901337B617A697B689A42F0DB55
:105868007B6818461837BD4680BD80B586B000AF46
:10587800F860B9607A6000237B6109E0BB685A1C54
:10588800BA601B781846FFF7C1FB7B6901337B615F
:105898007A697B689A42F1DB7B6818461837BD46FF
:1058A80080BD80B483B000AF78604FF0FF331846F6
:1058B8000C37BD4680BC704780B483B000AF7860B9
:1058C80039603B684FF400525A60002318460C3781
:1058D800BD4680BC704780B483B000AF78600123B8
:1058E80018460C37BD4680BC704780B485B000AF01
:1058F800F860B9607A60002318461437BD4680BC4A
:1059080070470000FBF7E2FC0B480C490C4A0023E7
:1059180002E0D458C4500433C4188C42F9D3094A5D
:10592800094C002301E013600432A242FBD30AF0C1
:1059380095F8FFF7F7FA704700000020DC01002017
:10594800704E0108DC0100200C0E0020FEE780B438
:1059580085B000AF78600B467B804FF6FF73FB8104
:105968000023BB8126E0BB897A6813441B781A465A
:10597800FB895340FB810023FB7215E0FB8903F090
:105988000103002B0AD0FB895B08FB81FB8983F4A8
:10599800BF4383F07E03DB43FB8102E0FB895B08A6
:1059A800FB81FB7A0133FB72FB7A072BE6D9BB89B3
:1059B8000133BB81BA897B889A42D4D3FB891846C4
:1059C8001437BD4680BC704780B483B000AF03462F
:1059D800FB71FB79062B1FD801A252F823F000BFF8
:1059E800055A0008095A00080D5A0008115A0008FB
:1059F800155A0008195A00081D5A0008094B0CE0EE
:105A0800094B0AE0094B08E0094B06E0094B04E0A2
:105A1800094B02E0094B00E0094B18460C37BD461C
:105A280080BC704700240108042401080C240108E4
:105A3800142401081C24010828240108342401081E
:105A48004024010880B400AF024B1846BD4680BC14
:105A5800704700BF4424010880B582B000AF0346F8
:105A68003960FB71074AFB791376FCF75BF802464D
:105A78003B68D31A034A1361FB7918460837BD46B9
:105A880080BD00BFB803002080B582B000AF786049
:105A98000B467B8013463B805C220021174809F0A7
:105AA80065FF7B68002B1ED07B88002B1BD07B6892
:105AB8001A78124B1A707B88012B03D97B68013343
:105AC8001B7800E000230D4A53707B88202B28BFE9
